{
	"TestingEncryption.sol": {
		"Encryption": {
			"abi": [
				{
					"inputs": [
						{
							"internalType": "string",
							"name": "password",
							"type": "string"
						}
					],
					"name": "encrypt",
					"outputs": [],
					"stateMutability": "nonpayable",
					"type": "function"
				},
				{
					"inputs": [
						{
							"internalType": "bytes32",
							"name": "input",
							"type": "bytes32"
						}
					],
					"name": "isEqualToString",
					"outputs": [
						{
							"internalType": "bool",
							"name": "",
							"type": "bool"
						}
					],
					"stateMutability": "view",
					"type": "function"
				},
				{
					"inputs": [],
					"name": "showHashedPassword",
					"outputs": [
						{
							"internalType": "bytes32",
							"name": "",
							"type": "bytes32"
						}
					],
					"stateMutability": "view",
					"type": "function"
				}
			],
			"devdoc": {
				"kind": "dev",
				"methods": {},
				"version": 1
			},
			"evm": {
				"assembly": "    /* \"TestingEncryption.sol\":61:476  contract Encryption{... */\n  mstore(0x40, 0x80)\n  callvalue\n  dup1\n  iszero\n  tag_1\n  jumpi\n  0x00\n  dup1\n  revert\ntag_1:\n  pop\n  dataSize(sub_0)\n  dup1\n  dataOffset(sub_0)\n  0x00\n  codecopy\n  0x00\n  return\nstop\n\nsub_0: assembly {\n        /* \"TestingEncryption.sol\":61:476  contract Encryption{... */\n      mstore(0x40, 0x80)\n      callvalue\n      dup1\n      iszero\n      tag_1\n      jumpi\n      0x00\n      dup1\n      revert\n    tag_1:\n      pop\n      jumpi(tag_2, lt(calldatasize, 0x04))\n      shr(0xe0, calldataload(0x00))\n      dup1\n      0x1a42ba0c\n      eq\n      tag_3\n      jumpi\n      dup1\n      0x3a5b5bde\n      eq\n      tag_4\n      jumpi\n      dup1\n      0xcb3197b9\n      eq\n      tag_5\n      jumpi\n    tag_2:\n      0x00\n      dup1\n      revert\n        /* \"TestingEncryption.sol\":247:348  function showHashedPassword() view external returns (bytes32){... */\n    tag_3:\n      tag_6\n      tag_7\n      jump\t// in\n    tag_6:\n      mload(0x40)\n      tag_8\n      swap2\n      swap1\n      tag_9\n      jump\t// in\n    tag_8:\n      mload(0x40)\n      dup1\n      swap2\n      sub\n      swap1\n      return\n        /* \"TestingEncryption.sol\":116:239  function encrypt(string memory password) external {... */\n    tag_4:\n      tag_10\n      0x04\n      dup1\n      calldatasize\n      sub\n      dup2\n      add\n      swap1\n      tag_11\n      swap2\n      swap1\n      tag_12\n      jump\t// in\n    tag_11:\n      tag_13\n      jump\t// in\n    tag_10:\n      stop\n        /* \"TestingEncryption.sol\":356:473  function isEqualToString(bytes32 input)view external returns (bool){... */\n    tag_5:\n      tag_14\n      0x04\n      dup1\n      calldatasize\n      sub\n      dup2\n      add\n      swap1\n      tag_15\n      swap2\n      swap1\n      tag_16\n      jump\t// in\n    tag_15:\n      tag_17\n      jump\t// in\n    tag_14:\n      mload(0x40)\n      tag_18\n      swap2\n      swap1\n      tag_19\n      jump\t// in\n    tag_18:\n      mload(0x40)\n      dup1\n      swap2\n      sub\n      swap1\n      return\n        /* \"TestingEncryption.sol\":247:348  function showHashedPassword() view external returns (bytes32){... */\n    tag_7:\n        /* \"TestingEncryption.sol\":300:307  bytes32 */\n      0x00\n        /* \"TestingEncryption.sol\":326:340  hashedPassword */\n      dup1\n      sload\n        /* \"TestingEncryption.sol\":319:340  return hashedPassword */\n      swap1\n      pop\n        /* \"TestingEncryption.sol\":247:348  function showHashedPassword() view external returns (bytes32){... */\n      swap1\n      jump\t// out\n        /* \"TestingEncryption.sol\":116:239  function encrypt(string memory password) external {... */\n    tag_13:\n        /* \"TestingEncryption.sol\":221:229  password */\n      dup1\n        /* \"TestingEncryption.sol\":204:230  abi.encodePacked(password) */\n      add(0x20, mload(0x40))\n      tag_22\n      swap2\n      swap1\n      tag_23\n      jump\t// in\n    tag_22:\n      mload(0x40)\n      0x20\n      dup2\n      dup4\n      sub\n      sub\n      dup2\n      mstore\n      swap1\n      0x40\n      mstore\n        /* \"TestingEncryption.sol\":194:231  keccak256(abi.encodePacked(password)) */\n      dup1\n      mload\n      swap1\n      0x20\n      add\n      keccak256\n        /* \"TestingEncryption.sol\":177:191  hashedPassword */\n      0x00\n        /* \"TestingEncryption.sol\":177:231  hashedPassword = keccak256(abi.encodePacked(password)) */\n      dup2\n      swap1\n      sstore\n      pop\n        /* \"TestingEncryption.sol\":116:239  function encrypt(string memory password) external {... */\n      pop\n      jump\t// out\n        /* \"TestingEncryption.sol\":356:473  function isEqualToString(bytes32 input)view external returns (bool){... */\n    tag_17:\n        /* \"TestingEncryption.sol\":418:422  bool */\n      0x00\n        /* \"TestingEncryption.sol\":450:464  hashedPassword */\n      dup1\n      sload\n        /* \"TestingEncryption.sol\":441:446  input */\n      dup3\n        /* \"TestingEncryption.sol\":441:464  input == hashedPassword */\n      eq\n        /* \"TestingEncryption.sol\":434:465  return(input == hashedPassword) */\n      swap1\n      pop\n        /* \"TestingEncryption.sol\":356:473  function isEqualToString(bytes32 input)view external returns (bool){... */\n      swap2\n      swap1\n      pop\n      jump\t// out\n        /* \"#utility.yul\":7:84   */\n    tag_25:\n        /* \"#utility.yul\":44:51   */\n      0x00\n        /* \"#utility.yul\":73:78   */\n      dup2\n        /* \"#utility.yul\":62:78   */\n      swap1\n      pop\n        /* \"#utility.yul\":7:84   */\n      swap2\n      swap1\n      pop\n      jump\t// out\n        /* \"#utility.yul\":90:208   */\n    tag_26:\n        /* \"#utility.yul\":177:201   */\n      tag_51\n        /* \"#utility.yul\":195:200   */\n      dup2\n        /* \"#utility.yul\":177:201   */\n      tag_25\n      jump\t// in\n    tag_51:\n        /* \"#utility.yul\":172:175   */\n      dup3\n        /* \"#utility.yul\":165:202   */\n      mstore\n        /* \"#utility.yul\":90:208   */\n      pop\n      pop\n      jump\t// out\n        /* \"#utility.yul\":214:436   */\n    tag_9:\n        /* \"#utility.yul\":307:311   */\n      0x00\n        /* \"#utility.yul\":345:347   */\n      0x20\n        /* \"#utility.yul\":334:343   */\n      dup3\n        /* \"#utility.yul\":330:348   */\n      add\n        /* \"#utility.yul\":322:348   */\n      swap1\n      pop\n        /* \"#utility.yul\":358:429   */\n      tag_53\n        /* \"#utility.yul\":426:427   */\n      0x00\n        /* \"#utility.yul\":415:424   */\n      dup4\n        /* \"#utility.yul\":411:428   */\n      add\n        /* \"#utility.yul\":402:408   */\n      dup5\n        /* \"#utility.yul\":358:429   */\n      tag_26\n      jump\t// in\n    tag_53:\n        /* \"#utility.yul\":214:436   */\n      swap3\n      swap2\n      pop\n      pop\n      jump\t// out\n        /* \"#utility.yul\":442:517   */\n    tag_27:\n        /* \"#utility.yul\":475:481   */\n      0x00\n        /* \"#utility.yul\":508:510   */\n      0x40\n        /* \"#utility.yul\":502:511   */\n      mload\n        /* \"#utility.yul\":492:511   */\n      swap1\n      pop\n        /* \"#utility.yul\":442:517   */\n      swap1\n      jump\t// out\n        /* \"#utility.yul\":523:640   */\n    tag_28:\n        /* \"#utility.yul\":632:633   */\n      0x00\n        /* \"#utility.yul\":629:630   */\n      dup1\n        /* \"#utility.yul\":622:634   */\n      revert\n        /* \"#utility.yul\":646:763   */\n    tag_29:\n        /* \"#utility.yul\":755:756   */\n      0x00\n        /* \"#utility.yul\":752:753   */\n      dup1\n        /* \"#utility.yul\":745:757   */\n      revert\n        /* \"#utility.yul\":769:886   */\n    tag_30:\n        /* \"#utility.yul\":878:879   */\n      0x00\n        /* \"#utility.yul\":875:876   */\n      dup1\n        /* \"#utility.yul\":868:880   */\n      revert\n        /* \"#utility.yul\":892:1009   */\n    tag_31:\n        /* \"#utility.yul\":1001:1002   */\n      0x00\n        /* \"#utility.yul\":998:999   */\n      dup1\n        /* \"#utility.yul\":991:1003   */\n      revert\n        /* \"#utility.yul\":1015:1117   */\n    tag_32:\n        /* \"#utility.yul\":1056:1062   */\n      0x00\n        /* \"#utility.yul\":1107:1109   */\n      0x1f\n        /* \"#utility.yul\":1103:1110   */\n      not\n        /* \"#utility.yul\":1098:1100   */\n      0x1f\n        /* \"#utility.yul\":1091:1096   */\n      dup4\n        /* \"#utility.yul\":1087:1101   */\n      add\n        /* \"#utility.yul\":1083:1111   */\n      and\n        /* \"#utility.yul\":1073:1111   */\n      swap1\n      pop\n        /* \"#utility.yul\":1015:1117   */\n      swap2\n      swap1\n      pop\n      jump\t// out\n        /* \"#utility.yul\":1123:1303   */\n    tag_33:\n        /* \"#utility.yul\":1171:1248   */\n      0x4e487b7100000000000000000000000000000000000000000000000000000000\n        /* \"#utility.yul\":1168:1169   */\n      0x00\n        /* \"#utility.yul\":1161:1249   */\n      mstore\n        /* \"#utility.yul\":1268:1272   */\n      0x41\n        /* \"#utility.yul\":1265:1266   */\n      0x04\n        /* \"#utility.yul\":1258:1273   */\n      mstore\n        /* \"#utility.yul\":1292:1296   */\n      0x24\n        /* \"#utility.yul\":1289:1290   */\n      0x00\n        /* \"#utility.yul\":1282:1297   */\n      revert\n        /* \"#utility.yul\":1309:1590   */\n    tag_34:\n        /* \"#utility.yul\":1392:1419   */\n      tag_62\n        /* \"#utility.yul\":1414:1418   */\n      dup3\n        /* \"#utility.yul\":1392:1419   */\n      tag_32\n      jump\t// in\n    tag_62:\n        /* \"#utility.yul\":1384:1390   */\n      dup2\n        /* \"#utility.yul\":1380:1420   */\n      add\n        /* \"#utility.yul\":1522:1528   */\n      dup2\n        /* \"#utility.yul\":1510:1520   */\n      dup2\n        /* \"#utility.yul\":1507:1529   */\n      lt\n        /* \"#utility.yul\":1486:1504   */\n      0xffffffffffffffff\n        /* \"#utility.yul\":1474:1484   */\n      dup3\n        /* \"#utility.yul\":1471:1505   */\n      gt\n        /* \"#utility.yul\":1468:1530   */\n      or\n        /* \"#utility.yul\":1465:1553   */\n      iszero\n      tag_63\n      jumpi\n        /* \"#utility.yul\":1533:1551   */\n      tag_64\n      tag_33\n      jump\t// in\n    tag_64:\n        /* \"#utility.yul\":1465:1553   */\n    tag_63:\n        /* \"#utility.yul\":1573:1583   */\n      dup1\n        /* \"#utility.yul\":1569:1571   */\n      0x40\n        /* \"#utility.yul\":1562:1584   */\n      mstore\n        /* \"#utility.yul\":1352:1590   */\n      pop\n        /* \"#utility.yul\":1309:1590   */\n      pop\n      pop\n      jump\t// out\n        /* \"#utility.yul\":1596:1725   */\n    tag_35:\n        /* \"#utility.yul\":1630:1636   */\n      0x00\n        /* \"#utility.yul\":1657:1677   */\n      tag_66\n      tag_27\n      jump\t// in\n    tag_66:\n        /* \"#utility.yul\":1647:1677   */\n      swap1\n      pop\n        /* \"#utility.yul\":1686:1719   */\n      tag_67\n        /* \"#utility.yul\":1714:1718   */\n      dup3\n        /* \"#utility.yul\":1706:1712   */\n      dup3\n        /* \"#utility.yul\":1686:1719   */\n      tag_34\n      jump\t// in\n    tag_67:\n        /* \"#utility.yul\":1596:1725   */\n      swap2\n      swap1\n      pop\n      jump\t// out\n        /* \"#utility.yul\":1731:2039   */\n    tag_36:\n        /* \"#utility.yul\":1793:1797   */\n      0x00\n        /* \"#utility.yul\":1883:1901   */\n      0xffffffffffffffff\n        /* \"#utility.yul\":1875:1881   */\n      dup3\n        /* \"#utility.yul\":1872:1902   */\n      gt\n        /* \"#utility.yul\":1869:1925   */\n      iszero\n      tag_69\n      jumpi\n        /* \"#utility.yul\":1905:1923   */\n      tag_70\n      tag_33\n      jump\t// in\n    tag_70:\n        /* \"#utility.yul\":1869:1925   */\n    tag_69:\n        /* \"#utility.yul\":1943:1972   */\n      tag_71\n        /* \"#utility.yul\":1965:1971   */\n      dup3\n        /* \"#utility.yul\":1943:1972   */\n      tag_32\n      jump\t// in\n    tag_71:\n        /* \"#utility.yul\":1935:1972   */\n      swap1\n      pop\n        /* \"#utility.yul\":2027:2031   */\n      0x20\n        /* \"#utility.yul\":2021:2025   */\n      dup2\n        /* \"#utility.yul\":2017:2032   */\n      add\n        /* \"#utility.yul\":2009:2032   */\n      swap1\n      pop\n        /* \"#utility.yul\":1731:2039   */\n      swap2\n      swap1\n      pop\n      jump\t// out\n        /* \"#utility.yul\":2045:2193   */\n    tag_37:\n        /* \"#utility.yul\":2143:2149   */\n      dup3\n        /* \"#utility.yul\":2138:2141   */\n      dup2\n        /* \"#utility.yul\":2133:2136   */\n      dup4\n        /* \"#utility.yul\":2120:2150   */\n      calldatacopy\n        /* \"#utility.yul\":2184:2185   */\n      0x00\n        /* \"#utility.yul\":2175:2181   */\n      dup4\n        /* \"#utility.yul\":2170:2173   */\n      dup4\n        /* \"#utility.yul\":2166:2182   */\n      add\n        /* \"#utility.yul\":2159:2186   */\n      mstore\n        /* \"#utility.yul\":2045:2193   */\n      pop\n      pop\n      pop\n      jump\t// out\n        /* \"#utility.yul\":2199:2624   */\n    tag_38:\n        /* \"#utility.yul\":2277:2282   */\n      0x00\n        /* \"#utility.yul\":2302:2368   */\n      tag_74\n        /* \"#utility.yul\":2318:2367   */\n      tag_75\n        /* \"#utility.yul\":2360:2366   */\n      dup5\n        /* \"#utility.yul\":2318:2367   */\n      tag_36\n      jump\t// in\n    tag_75:\n        /* \"#utility.yul\":2302:2368   */\n      tag_35\n      jump\t// in\n    tag_74:\n        /* \"#utility.yul\":2293:2368   */\n      swap1\n      pop\n        /* \"#utility.yul\":2391:2397   */\n      dup3\n        /* \"#utility.yul\":2384:2389   */\n      dup2\n        /* \"#utility.yul\":2377:2398   */\n      mstore\n        /* \"#utility.yul\":2429:2433   */\n      0x20\n        /* \"#utility.yul\":2422:2427   */\n      dup2\n        /* \"#utility.yul\":2418:2434   */\n      add\n        /* \"#utility.yul\":2467:2470   */\n      dup5\n        /* \"#utility.yul\":2458:2464   */\n      dup5\n        /* \"#utility.yul\":2453:2456   */\n      dup5\n        /* \"#utility.yul\":2449:2465   */\n      add\n        /* \"#utility.yul\":2446:2471   */\n      gt\n        /* \"#utility.yul\":2443:2555   */\n      iszero\n      tag_76\n      jumpi\n        /* \"#utility.yul\":2474:2553   */\n      tag_77\n      tag_31\n      jump\t// in\n    tag_77:\n        /* \"#utility.yul\":2443:2555   */\n    tag_76:\n        /* \"#utility.yul\":2564:2618   */\n      tag_78\n        /* \"#utility.yul\":2611:2617   */\n      dup5\n        /* \"#utility.yul\":2606:2609   */\n      dup3\n        /* \"#utility.yul\":2601:2604   */\n      dup6\n        /* \"#utility.yul\":2564:2618   */\n      tag_37\n      jump\t// in\n    tag_78:\n        /* \"#utility.yul\":2283:2624   */\n      pop\n        /* \"#utility.yul\":2199:2624   */\n      swap4\n      swap3\n      pop\n      pop\n      pop\n      jump\t// out\n        /* \"#utility.yul\":2644:2984   */\n    tag_39:\n        /* \"#utility.yul\":2700:2705   */\n      0x00\n        /* \"#utility.yul\":2749:2752   */\n      dup3\n        /* \"#utility.yul\":2742:2746   */\n      0x1f\n        /* \"#utility.yul\":2734:2740   */\n      dup4\n        /* \"#utility.yul\":2730:2747   */\n      add\n        /* \"#utility.yul\":2726:2753   */\n      slt\n        /* \"#utility.yul\":2716:2838   */\n      tag_80\n      jumpi\n        /* \"#utility.yul\":2757:2836   */\n      tag_81\n      tag_30\n      jump\t// in\n    tag_81:\n        /* \"#utility.yul\":2716:2838   */\n    tag_80:\n        /* \"#utility.yul\":2874:2880   */\n      dup2\n        /* \"#utility.yul\":2861:2881   */\n      calldataload\n        /* \"#utility.yul\":2899:2978   */\n      tag_82\n        /* \"#utility.yul\":2974:2977   */\n      dup5\n        /* \"#utility.yul\":2966:2972   */\n      dup3\n        /* \"#utility.yul\":2959:2963   */\n      0x20\n        /* \"#utility.yul\":2951:2957   */\n      dup7\n        /* \"#utility.yul\":2947:2964   */\n      add\n        /* \"#utility.yul\":2899:2978   */\n      tag_38\n      jump\t// in\n    tag_82:\n        /* \"#utility.yul\":2890:2978   */\n      swap2\n      pop\n        /* \"#utility.yul\":2706:2984   */\n      pop\n        /* \"#utility.yul\":2644:2984   */\n      swap3\n      swap2\n      pop\n      pop\n      jump\t// out\n        /* \"#utility.yul\":2990:3499   */\n    tag_12:\n        /* \"#utility.yul\":3059:3065   */\n      0x00\n        /* \"#utility.yul\":3108:3110   */\n      0x20\n        /* \"#utility.yul\":3096:3105   */\n      dup3\n        /* \"#utility.yul\":3087:3094   */\n      dup5\n        /* \"#utility.yul\":3083:3106   */\n      sub\n        /* \"#utility.yul\":3079:3111   */\n      slt\n        /* \"#utility.yul\":3076:3195   */\n      iszero\n      tag_84\n      jumpi\n        /* \"#utility.yul\":3114:3193   */\n      tag_85\n      tag_28\n      jump\t// in\n    tag_85:\n        /* \"#utility.yul\":3076:3195   */\n    tag_84:\n        /* \"#utility.yul\":3262:3263   */\n      0x00\n        /* \"#utility.yul\":3251:3260   */\n      dup3\n        /* \"#utility.yul\":3247:3264   */\n      add\n        /* \"#utility.yul\":3234:3265   */\n      calldataload\n        /* \"#utility.yul\":3292:3310   */\n      0xffffffffffffffff\n        /* \"#utility.yul\":3284:3290   */\n      dup2\n        /* \"#utility.yul\":3281:3311   */\n      gt\n        /* \"#utility.yul\":3278:3395   */\n      iszero\n      tag_86\n      jumpi\n        /* \"#utility.yul\":3314:3393   */\n      tag_87\n      tag_29\n      jump\t// in\n    tag_87:\n        /* \"#utility.yul\":3278:3395   */\n    tag_86:\n        /* \"#utility.yul\":3419:3482   */\n      tag_88\n        /* \"#utility.yul\":3474:3481   */\n      dup5\n        /* \"#utility.yul\":3465:3471   */\n      dup3\n        /* \"#utility.yul\":3454:3463   */\n      dup6\n        /* \"#utility.yul\":3450:3472   */\n      add\n        /* \"#utility.yul\":3419:3482   */\n      tag_39\n      jump\t// in\n    tag_88:\n        /* \"#utility.yul\":3409:3482   */\n      swap2\n      pop\n        /* \"#utility.yul\":3205:3492   */\n      pop\n        /* \"#utility.yul\":2990:3499   */\n      swap3\n      swap2\n      pop\n      pop\n      jump\t// out\n        /* \"#utility.yul\":3505:3627   */\n    tag_40:\n        /* \"#utility.yul\":3578:3602   */\n      tag_90\n        /* \"#utility.yul\":3596:3601   */\n      dup2\n        /* \"#utility.yul\":3578:3602   */\n      tag_25\n      jump\t// in\n    tag_90:\n        /* \"#utility.yul\":3571:3576   */\n      dup2\n        /* \"#utility.yul\":3568:3603   */\n      eq\n        /* \"#utility.yul\":3558:3621   */\n      tag_91\n      jumpi\n        /* \"#utility.yul\":3617:3618   */\n      0x00\n        /* \"#utility.yul\":3614:3615   */\n      dup1\n        /* \"#utility.yul\":3607:3619   */\n      revert\n        /* \"#utility.yul\":3558:3621   */\n    tag_91:\n        /* \"#utility.yul\":3505:3627   */\n      pop\n      jump\t// out\n        /* \"#utility.yul\":3633:3772   */\n    tag_41:\n        /* \"#utility.yul\":3679:3684   */\n      0x00\n        /* \"#utility.yul\":3717:3723   */\n      dup2\n        /* \"#utility.yul\":3704:3724   */\n      calldataload\n        /* \"#utility.yul\":3695:3724   */\n      swap1\n      pop\n        /* \"#utility.yul\":3733:3766   */\n      tag_93\n        /* \"#utility.yul\":3760:3765   */\n      dup2\n        /* \"#utility.yul\":3733:3766   */\n      tag_40\n      jump\t// in\n    tag_93:\n        /* \"#utility.yul\":3633:3772   */\n      swap3\n      swap2\n      pop\n      pop\n      jump\t// out\n        /* \"#utility.yul\":3778:4107   */\n    tag_16:\n        /* \"#utility.yul\":3837:3843   */\n      0x00\n        /* \"#utility.yul\":3886:3888   */\n      0x20\n        /* \"#utility.yul\":3874:3883   */\n      dup3\n        /* \"#utility.yul\":3865:3872   */\n      dup5\n        /* \"#utility.yul\":3861:3884   */\n      sub\n        /* \"#utility.yul\":3857:3889   */\n      slt\n        /* \"#utility.yul\":3854:3973   */\n      iszero\n      tag_95\n      jumpi\n        /* \"#utility.yul\":3892:3971   */\n      tag_96\n      tag_28\n      jump\t// in\n    tag_96:\n        /* \"#utility.yul\":3854:3973   */\n    tag_95:\n        /* \"#utility.yul\":4012:4013   */\n      0x00\n        /* \"#utility.yul\":4037:4090   */\n      tag_97\n        /* \"#utility.yul\":4082:4089   */\n      dup5\n        /* \"#utility.yul\":4073:4079   */\n      dup3\n        /* \"#utility.yul\":4062:4071   */\n      dup6\n        /* \"#utility.yul\":4058:4080   */\n      add\n        /* \"#utility.yul\":4037:4090   */\n      tag_41\n      jump\t// in\n    tag_97:\n        /* \"#utility.yul\":4027:4090   */\n      swap2\n      pop\n        /* \"#utility.yul\":3983:4100   */\n      pop\n        /* \"#utility.yul\":3778:4107   */\n      swap3\n      swap2\n      pop\n      pop\n      jump\t// out\n        /* \"#utility.yul\":4113:4203   */\n    tag_42:\n        /* \"#utility.yul\":4147:4154   */\n      0x00\n        /* \"#utility.yul\":4190:4195   */\n      dup2\n        /* \"#utility.yul\":4183:4196   */\n      iszero\n        /* \"#utility.yul\":4176:4197   */\n      iszero\n        /* \"#utility.yul\":4165:4197   */\n      swap1\n      pop\n        /* \"#utility.yul\":4113:4203   */\n      swap2\n      swap1\n      pop\n      jump\t// out\n        /* \"#utility.yul\":4209:4318   */\n    tag_43:\n        /* \"#utility.yul\":4290:4311   */\n      tag_100\n        /* \"#utility.yul\":4305:4310   */\n      dup2\n        /* \"#utility.yul\":4290:4311   */\n      tag_42\n      jump\t// in\n    tag_100:\n        /* \"#utility.yul\":4285:4288   */\n      dup3\n        /* \"#utility.yul\":4278:4312   */\n      mstore\n        /* \"#utility.yul\":4209:4318   */\n      pop\n      pop\n      jump\t// out\n        /* \"#utility.yul\":4324:4534   */\n    tag_19:\n        /* \"#utility.yul\":4411:4415   */\n      0x00\n        /* \"#utility.yul\":4449:4451   */\n      0x20\n        /* \"#utility.yul\":4438:4447   */\n      dup3\n        /* \"#utility.yul\":4434:4452   */\n      add\n        /* \"#utility.yul\":4426:4452   */\n      swap1\n      pop\n        /* \"#utility.yul\":4462:4527   */\n      tag_102\n        /* \"#utility.yul\":4524:4525   */\n      0x00\n        /* \"#utility.yul\":4513:4522   */\n      dup4\n        /* \"#utility.yul\":4509:4526   */\n      add\n        /* \"#utility.yul\":4500:4506   */\n      dup5\n        /* \"#utility.yul\":4462:4527   */\n      tag_43\n      jump\t// in\n    tag_102:\n        /* \"#utility.yul\":4324:4534   */\n      swap3\n      swap2\n      pop\n      pop\n      jump\t// out\n        /* \"#utility.yul\":4540:4639   */\n    tag_44:\n        /* \"#utility.yul\":4592:4598   */\n      0x00\n        /* \"#utility.yul\":4626:4631   */\n      dup2\n        /* \"#utility.yul\":4620:4632   */\n      mload\n        /* \"#utility.yul\":4610:4632   */\n      swap1\n      pop\n        /* \"#utility.yul\":4540:4639   */\n      swap2\n      swap1\n      pop\n      jump\t// out\n        /* \"#utility.yul\":4645:4793   */\n    tag_45:\n        /* \"#utility.yul\":4747:4758   */\n      0x00\n        /* \"#utility.yul\":4784:4787   */\n      dup2\n        /* \"#utility.yul\":4769:4787   */\n      swap1\n      pop\n        /* \"#utility.yul\":4645:4793   */\n      swap3\n      swap2\n      pop\n      pop\n      jump\t// out\n        /* \"#utility.yul\":4799:4938   */\n    tag_46:\n        /* \"#utility.yul\":4888:4894   */\n      dup3\n        /* \"#utility.yul\":4883:4886   */\n      dup2\n        /* \"#utility.yul\":4878:4881   */\n      dup4\n        /* \"#utility.yul\":4872:4895   */\n      mcopy\n        /* \"#utility.yul\":4929:4930   */\n      0x00\n        /* \"#utility.yul\":4920:4926   */\n      dup4\n        /* \"#utility.yul\":4915:4918   */\n      dup4\n        /* \"#utility.yul\":4911:4927   */\n      add\n        /* \"#utility.yul\":4904:4931   */\n      mstore\n        /* \"#utility.yul\":4799:4938   */\n      pop\n      pop\n      pop\n      jump\t// out\n        /* \"#utility.yul\":4944:5334   */\n    tag_47:\n        /* \"#utility.yul\":5050:5053   */\n      0x00\n        /* \"#utility.yul\":5078:5117   */\n      tag_107\n        /* \"#utility.yul\":5111:5116   */\n      dup3\n        /* \"#utility.yul\":5078:5117   */\n      tag_44\n      jump\t// in\n    tag_107:\n        /* \"#utility.yul\":5133:5222   */\n      tag_108\n        /* \"#utility.yul\":5215:5221   */\n      dup2\n        /* \"#utility.yul\":5210:5213   */\n      dup6\n        /* \"#utility.yul\":5133:5222   */\n      tag_45\n      jump\t// in\n    tag_108:\n        /* \"#utility.yul\":5126:5222   */\n      swap4\n      pop\n        /* \"#utility.yul\":5231:5296   */\n      tag_109\n        /* \"#utility.yul\":5289:5295   */\n      dup2\n        /* \"#utility.yul\":5284:5287   */\n      dup6\n        /* \"#utility.yul\":5277:5281   */\n      0x20\n        /* \"#utility.yul\":5270:5275   */\n      dup7\n        /* \"#utility.yul\":5266:5282   */\n      add\n        /* \"#utility.yul\":5231:5296   */\n      tag_46\n      jump\t// in\n    tag_109:\n        /* \"#utility.yul\":5321:5327   */\n      dup1\n        /* \"#utility.yul\":5316:5319   */\n      dup5\n        /* \"#utility.yul\":5312:5328   */\n      add\n        /* \"#utility.yul\":5305:5328   */\n      swap2\n      pop\n        /* \"#utility.yul\":5054:5334   */\n      pop\n        /* \"#utility.yul\":4944:5334   */\n      swap3\n      swap2\n      pop\n      pop\n      jump\t// out\n        /* \"#utility.yul\":5340:5615   */\n    tag_23:\n        /* \"#utility.yul\":5472:5475   */\n      0x00\n        /* \"#utility.yul\":5494:5589   */\n      tag_111\n        /* \"#utility.yul\":5585:5588   */\n      dup3\n        /* \"#utility.yul\":5576:5582   */\n      dup5\n        /* \"#utility.yul\":5494:5589   */\n      tag_47\n      jump\t// in\n    tag_111:\n        /* \"#utility.yul\":5487:5589   */\n      swap2\n      pop\n        /* \"#utility.yul\":5606:5609   */\n      dup2\n        /* \"#utility.yul\":5599:5609   */\n      swap1\n      pop\n        /* \"#utility.yul\":5340:5615   */\n      swap3\n      swap2\n      pop\n      pop\n      jump\t// out\n\n    auxdata: 0xa2646970667358221220da229d72435047ad660a468126cfbade8b8466592e15a7b388dc5625c828f45764736f6c634300081a0033\n}\n",
				"bytecode": {
					"linkReferences": {},
					"object": "6080604052348015600e575f80fd5b506103db8061001c5f395ff3fe608060405234801561000f575f80fd5b506004361061003f575f3560e01c80631a42ba0c146100435780633a5b5bde14610061578063cb3197b91461007d575b5f80fd5b61004b6100ad565b6040516100589190610108565b60405180910390f35b61007b6004803603810190610076919061026e565b6100b5565b005b610097600480360381019061009291906102df565b6100e4565b6040516100a49190610324565b60405180910390f35b5f8054905090565b806040516020016100c6919061038f565b604051602081830303815290604052805190602001205f8190555050565b5f805482149050919050565b5f819050919050565b610102816100f0565b82525050565b5f60208201905061011b5f8301846100f9565b92915050565b5f604051905090565b5f80fd5b5f80fd5b5f80fd5b5f80fd5b5f601f19601f8301169050919050565b7f4e487b71000000000000000000000000000000000000000000000000000000005f52604160045260245ffd5b6101808261013a565b810181811067ffffffffffffffff8211171561019f5761019e61014a565b5b80604052505050565b5f6101b1610121565b90506101bd8282610177565b919050565b5f67ffffffffffffffff8211156101dc576101db61014a565b5b6101e58261013a565b9050602081019050919050565b828183375f83830152505050565b5f61021261020d846101c2565b6101a8565b90508281526020810184848401111561022e5761022d610136565b5b6102398482856101f2565b509392505050565b5f82601f83011261025557610254610132565b5b8135610265848260208601610200565b91505092915050565b5f602082840312156102835761028261012a565b5b5f82013567ffffffffffffffff8111156102a05761029f61012e565b5b6102ac84828501610241565b91505092915050565b6102be816100f0565b81146102c8575f80fd5b50565b5f813590506102d9816102b5565b92915050565b5f602082840312156102f4576102f361012a565b5b5f610301848285016102cb565b91505092915050565b5f8115159050919050565b61031e8161030a565b82525050565b5f6020820190506103375f830184610315565b92915050565b5f81519050919050565b5f81905092915050565b8281835e5f83830152505050565b5f6103698261033d565b6103738185610347565b9350610383818560208601610351565b80840191505092915050565b5f61039a828461035f565b91508190509291505056fea2646970667358221220da229d72435047ad660a468126cfbade8b8466592e15a7b388dc5625c828f45764736f6c634300081a0033",
					"opcodes": "PUSH1 0x80 PUSH1 0x40 MSTORE CALLVALUE DUP1 ISZERO PUSH1 0xE JUMPI PUSH0 DUP1 REVERT JUMPDEST POP PUSH2 0x3DB DUP1 PUSH2 0x1C PUSH0 CODECOPY PUSH0 RETURN INVALID PUSH1 0x80 PUSH1 0x40 MSTORE CALLVALUE DUP1 ISZERO PUSH2 0xF JUMPI PUSH0 DUP1 REVERT JUMPDEST POP PUSH1 0x4 CALLDATASIZE LT PUSH2 0x3F JUMPI PUSH0 CALLDATALOAD PUSH1 0xE0 SHR DUP1 PUSH4 0x1A42BA0C EQ PUSH2 0x43 JUMPI DUP1 PUSH4 0x3A5B5BDE EQ PUSH2 0x61 JUMPI DUP1 PUSH4 0xCB3197B9 EQ PUSH2 0x7D JUMPI JUMPDEST PUSH0 DUP1 REVERT JUMPDEST PUSH2 0x4B PUSH2 0xAD JUMP JUMPDEST PUSH1 0x40 MLOAD PUSH2 0x58 SWAP2 SWAP1 PUSH2 0x108 JUMP JUMPDEST PUSH1 0x40 MLOAD DUP1 SWAP2 SUB SWAP1 RETURN JUMPDEST PUSH2 0x7B PUSH1 0x4 DUP1 CALLDATASIZE SUB DUP2 ADD SWAP1 PUSH2 0x76 SWAP2 SWAP1 PUSH2 0x26E JUMP JUMPDEST PUSH2 0xB5 JUMP JUMPDEST STOP JUMPDEST PUSH2 0x97 PUSH1 0x4 DUP1 CALLDATASIZE SUB DUP2 ADD SWAP1 PUSH2 0x92 SWAP2 SWAP1 PUSH2 0x2DF JUMP JUMPDEST PUSH2 0xE4 JUMP JUMPDEST PUSH1 0x40 MLOAD PUSH2 0xA4 SWAP2 SWAP1 PUSH2 0x324 JUMP JUMPDEST PUSH1 0x40 MLOAD DUP1 SWAP2 SUB SWAP1 RETURN JUMPDEST PUSH0 DUP1 SLOAD SWAP1 POP SWAP1 JUMP JUMPDEST DUP1 PUSH1 0x40 MLOAD PUSH1 0x20 ADD PUSH2 0xC6 SWAP2 SWAP1 PUSH2 0x38F JUMP JUMPDEST PUSH1 0x40 MLOAD PUSH1 0x20 DUP2 DUP4 SUB SUB DUP2 MSTORE SWAP1 PUSH1 0x40 MSTORE DUP1 MLOAD SWAP1 PUSH1 0x20 ADD KECCAK256 PUSH0 DUP2 SWAP1 SSTORE POP POP JUMP JUMPDEST PUSH0 DUP1 SLOAD DUP3 EQ SWAP1 POP SWAP2 SWAP1 POP JUMP JUMPDEST PUSH0 DUP2 SWAP1 POP SWAP2 SWAP1 POP JUMP JUMPDEST PUSH2 0x102 DUP2 PUSH2 0xF0 JUMP JUMPDEST DUP3 MSTORE POP POP JUMP JUMPDEST PUSH0 PUSH1 0x20 DUP3 ADD SWAP1 POP PUSH2 0x11B PUSH0 DUP4 ADD DUP5 PUSH2 0xF9 JUMP JUMPDEST SWAP3 SWAP2 POP POP JUMP JUMPDEST PUSH0 PUSH1 0x40 MLOAD SWAP1 POP SWAP1 JUMP JUMPDEST PUSH0 DUP1 REVERT JUMPDEST PUSH0 DUP1 REVERT JUMPDEST PUSH0 DUP1 REVERT JUMPDEST PUSH0 DUP1 REVERT JUMPDEST PUSH0 PUSH1 0x1F NOT PUSH1 0x1F DUP4 ADD AND SWAP1 POP SWAP2 SWAP1 POP JUMP JUMPDEST PUSH32 0x4E487B7100000000000000000000000000000000000000000000000000000000 PUSH0 MSTORE PUSH1 0x41 PUSH1 0x4 MSTORE PUSH1 0x24 PUSH0 REVERT JUMPDEST PUSH2 0x180 DUP3 PUSH2 0x13A JUMP JUMPDEST DUP2 ADD DUP2 DUP2 LT PUSH8 0xFFFFFFFFFFFFFFFF DUP3 GT OR ISZERO PUSH2 0x19F JUMPI PUSH2 0x19E PUSH2 0x14A JUMP JUMPDEST JUMPDEST DUP1 PUSH1 0x40 MSTORE POP POP POP JUMP JUMPDEST PUSH0 PUSH2 0x1B1 PUSH2 0x121 JUMP JUMPDEST SWAP1 POP PUSH2 0x1BD DUP3 DUP3 PUSH2 0x177 JUMP JUMPDEST SWAP2 SWAP1 POP JUMP JUMPDEST PUSH0 PUSH8 0xFFFFFFFFFFFFFFFF DUP3 GT ISZERO PUSH2 0x1DC JUMPI PUSH2 0x1DB PUSH2 0x14A JUMP JUMPDEST JUMPDEST PUSH2 0x1E5 DUP3 PUSH2 0x13A JUMP JUMPDEST SWAP1 POP PUSH1 0x20 DUP2 ADD SWAP1 POP SWAP2 SWAP1 POP JUMP JUMPDEST DUP3 DUP2 DUP4 CALLDATACOPY PUSH0 DUP4 DUP4 ADD MSTORE POP POP POP JUMP JUMPDEST PUSH0 PUSH2 0x212 PUSH2 0x20D DUP5 PUSH2 0x1C2 JUMP JUMPDEST PUSH2 0x1A8 JUMP JUMPDEST SWAP1 POP DUP3 DUP2 MSTORE PUSH1 0x20 DUP2 ADD DUP5 DUP5 DUP5 ADD GT ISZERO PUSH2 0x22E JUMPI PUSH2 0x22D PUSH2 0x136 JUMP JUMPDEST JUMPDEST PUSH2 0x239 DUP5 DUP3 DUP6 PUSH2 0x1F2 JUMP JUMPDEST POP SWAP4 SWAP3 POP POP POP JUMP JUMPDEST PUSH0 DUP3 PUSH1 0x1F DUP4 ADD SLT PUSH2 0x255 JUMPI PUSH2 0x254 PUSH2 0x132 JUMP JUMPDEST JUMPDEST DUP2 CALLDATALOAD PUSH2 0x265 DUP5 DUP3 PUSH1 0x20 DUP7 ADD PUSH2 0x200 JUMP JUMPDEST SWAP2 POP POP SWAP3 SWAP2 POP POP JUMP JUMPDEST PUSH0 PUSH1 0x20 DUP3 DUP5 SUB SLT ISZERO PUSH2 0x283 JUMPI PUSH2 0x282 PUSH2 0x12A JUMP JUMPDEST JUMPDEST PUSH0 DUP3 ADD CALLDATALOAD PUSH8 0xFFFFFFFFFFFFFFFF DUP2 GT ISZERO PUSH2 0x2A0 JUMPI PUSH2 0x29F PUSH2 0x12E JUMP JUMPDEST JUMPDEST PUSH2 0x2AC DUP5 DUP3 DUP6 ADD PUSH2 0x241 JUMP JUMPDEST SWAP2 POP POP SWAP3 SWAP2 POP POP JUMP JUMPDEST PUSH2 0x2BE DUP2 PUSH2 0xF0 JUMP JUMPDEST DUP2 EQ PUSH2 0x2C8 JUMPI PUSH0 DUP1 REVERT JUMPDEST POP JUMP JUMPDEST PUSH0 DUP2 CALLDATALOAD SWAP1 POP PUSH2 0x2D9 DUP2 PUSH2 0x2B5 JUMP JUMPDEST SWAP3 SWAP2 POP POP JUMP JUMPDEST PUSH0 PUSH1 0x20 DUP3 DUP5 SUB SLT ISZERO PUSH2 0x2F4 JUMPI PUSH2 0x2F3 PUSH2 0x12A JUMP JUMPDEST JUMPDEST PUSH0 PUSH2 0x301 DUP5 DUP3 DUP6 ADD PUSH2 0x2CB JUMP JUMPDEST SWAP2 POP POP SWAP3 SWAP2 POP POP JUMP JUMPDEST PUSH0 DUP2 ISZERO ISZERO SWAP1 POP SWAP2 SWAP1 POP JUMP JUMPDEST PUSH2 0x31E DUP2 PUSH2 0x30A JUMP JUMPDEST DUP3 MSTORE POP POP JUMP JUMPDEST PUSH0 PUSH1 0x20 DUP3 ADD SWAP1 POP PUSH2 0x337 PUSH0 DUP4 ADD DUP5 PUSH2 0x315 JUMP JUMPDEST SWAP3 SWAP2 POP POP JUMP JUMPDEST PUSH0 DUP2 MLOAD SWAP1 POP SWAP2 SWAP1 POP JUMP JUMPDEST PUSH0 DUP2 SWAP1 POP SWAP3 SWAP2 POP POP JUMP JUMPDEST DUP3 DUP2 DUP4 MCOPY PUSH0 DUP4 DUP4 ADD MSTORE POP POP POP JUMP JUMPDEST PUSH0 PUSH2 0x369 DUP3 PUSH2 0x33D JUMP JUMPDEST PUSH2 0x373 DUP2 DUP6 PUSH2 0x347 JUMP JUMPDEST SWAP4 POP PUSH2 0x383 DUP2 DUP6 PUSH1 0x20 DUP7 ADD PUSH2 0x351 JUMP JUMPDEST DUP1 DUP5 ADD SWAP2 POP POP SWAP3 SWAP2 POP POP JUMP JUMPDEST PUSH0 PUSH2 0x39A DUP3 DUP5 PUSH2 0x35F JUMP JUMPDEST SWAP2 POP DUP2 SWAP1 POP SWAP3 SWAP2 POP POP JUMP INVALID LOG2 PUSH5 0x6970667358 0x22 SLT KECCAK256 0xDA 0x22 SWAP14 PUSH19 0x435047AD660A468126CFBADE8B8466592E15A7 0xB3 DUP9 0xDC JUMP 0x25 0xC8 0x28 DELEGATECALL JUMPI PUSH5 0x736F6C6343 STOP ADDMOD BYTE STOP CALLER "
				},
				"gasEstimates": {
					"creation": {
						"codeDepositCost": "197400",
						"executionCost": "236",
						"totalCost": "197636"
					},
					"external": {
						"encrypt(string)": "infinite",
						"isEqualToString(bytes32)": "2727",
						"showHashedPassword()": "2410"
					}
				},
				"methodIdentifiers": {
					"encrypt(string)": "3a5b5bde",
					"isEqualToString(bytes32)": "cb3197b9",
					"showHashedPassword()": "1a42ba0c"
				}
			},
			"storageLayout": {
				"storage": [
					{
						"astId": 3,
						"contract": "TestingEncryption.sol:Encryption",
						"label": "hashedPassword",
						"offset": 0,
						"slot": "0",
						"type": "t_bytes32"
					}
				],
				"types": {
					"t_bytes32": {
						"encoding": "inplace",
						"label": "bytes32",
						"numberOfBytes": "32"
					}
				}
			},
			"userdoc": {
				"kind": "user",
				"methods": {},
				"version": 1
			}
		}
	}
}