{
	"Bank.sol": {
		"SimpleBank": {
			"abi": [
				{
					"inputs": [
						{
							"internalType": "string",
							"name": "password",
							"type": "string"
						}
					],
					"name": "createAccount",
					"outputs": [],
					"stateMutability": "nonpayable",
					"type": "function"
				},
				{
					"inputs": [],
					"name": "deposit",
					"outputs": [],
					"stateMutability": "payable",
					"type": "function"
				},
				{
					"inputs": [],
					"name": "getBalance",
					"outputs": [
						{
							"internalType": "uint256",
							"name": "",
							"type": "uint256"
						}
					],
					"stateMutability": "view",
					"type": "function"
				},
				{
					"inputs": [
						{
							"internalType": "address",
							"name": "to",
							"type": "address"
						},
						{
							"internalType": "uint256",
							"name": "amount",
							"type": "uint256"
						},
						{
							"internalType": "string",
							"name": "password",
							"type": "string"
						}
					],
					"name": "transfer",
					"outputs": [],
					"stateMutability": "nonpayable",
					"type": "function"
				},
				{
					"inputs": [
						{
							"internalType": "uint256",
							"name": "amount",
							"type": "uint256"
						},
						{
							"internalType": "string",
							"name": "password",
							"type": "string"
						}
					],
					"name": "withdraw",
					"outputs": [],
					"stateMutability": "nonpayable",
					"type": "function"
				}
			],
			"devdoc": {
				"kind": "dev",
				"methods": {},
				"version": 1
			},
			"evm": {
				"assembly": "    /* \"Bank.sol\":61:2244  contract SimpleBank {... */\n  mstore(0x40, 0x80)\n  callvalue\n  dup1\n  iszero\n  tag_1\n  jumpi\n  0x00\n  dup1\n  revert\ntag_1:\n  pop\n  dataSize(sub_0)\n  dup1\n  dataOffset(sub_0)\n  0x00\n  codecopy\n  0x00\n  return\nstop\n\nsub_0: assembly {\n        /* \"Bank.sol\":61:2244  contract SimpleBank {... */\n      mstore(0x40, 0x80)\n      jumpi(tag_1, lt(calldatasize, 0x04))\n      shr(0xe0, calldataload(0x00))\n      dup1\n      0x12065fe0\n      eq\n      tag_2\n      jumpi\n      dup1\n      0x298daf5b\n      eq\n      tag_3\n      jumpi\n      dup1\n      0x56b8c724\n      eq\n      tag_4\n      jumpi\n      dup1\n      0xd0e30db0\n      eq\n      tag_5\n      jumpi\n      dup1\n      0xdc048cf2\n      eq\n      tag_6\n      jumpi\n    tag_1:\n      0x00\n      dup1\n      revert\n        /* \"Bank.sol\":2107:2241  function getBalance() external view accountExists(msg.sender) returns (uint256) {... */\n    tag_2:\n      callvalue\n      dup1\n      iszero\n      tag_7\n      jumpi\n      0x00\n      dup1\n      revert\n    tag_7:\n      pop\n      tag_8\n      tag_9\n      jump\t// in\n    tag_8:\n      mload(0x40)\n      tag_10\n      swap2\n      swap1\n      tag_11\n      jump\t// in\n    tag_10:\n      mload(0x40)\n      dup1\n      swap2\n      sub\n      swap1\n      return\n        /* \"Bank.sol\":653:939  function createAccount(string memory password) external {... */\n    tag_3:\n      callvalue\n      dup1\n      iszero\n      tag_12\n      jumpi\n      0x00\n      dup1\n      revert\n    tag_12:\n      pop\n      tag_13\n      0x04\n      dup1\n      calldatasize\n      sub\n      dup2\n      add\n      swap1\n      tag_14\n      swap2\n      swap1\n      tag_15\n      jump\t// in\n    tag_14:\n      tag_16\n      jump\t// in\n    tag_13:\n      stop\n        /* \"Bank.sol\":1182:1620  function transfer(... */\n    tag_4:\n      callvalue\n      dup1\n      iszero\n      tag_17\n      jumpi\n      0x00\n      dup1\n      revert\n    tag_17:\n      pop\n      tag_18\n      0x04\n      dup1\n      calldatasize\n      sub\n      dup2\n      add\n      swap1\n      tag_19\n      swap2\n      swap1\n      tag_20\n      jump\t// in\n    tag_19:\n      tag_21\n      jump\t// in\n    tag_18:\n      stop\n        /* \"Bank.sol\":997:1119  function deposit() external payable accountExists(msg.sender) {... */\n    tag_5:\n      tag_22\n      tag_23\n      jump\t// in\n    tag_22:\n      stop\n        /* \"Bank.sol\":1665:2022  function withdraw(uint256 amount, string memory password)... */\n    tag_6:\n      callvalue\n      dup1\n      iszero\n      tag_24\n      jumpi\n      0x00\n      dup1\n      revert\n    tag_24:\n      pop\n      tag_25\n      0x04\n      dup1\n      calldatasize\n      sub\n      dup2\n      add\n      swap1\n      tag_26\n      swap2\n      swap1\n      tag_27\n      jump\t// in\n    tag_26:\n      tag_28\n      jump\t// in\n    tag_25:\n      stop\n        /* \"Bank.sol\":2107:2241  function getBalance() external view accountExists(msg.sender) returns (uint256) {... */\n    tag_9:\n        /* \"Bank.sol\":2178:2185  uint256 */\n      0x00\n        /* \"Bank.sol\":2157:2167  msg.sender */\n      caller\n        /* \"Bank.sol\":316:317  0 */\n      0x00\n        /* \"Bank.sol\":285:317  accounts[user].passwordHash != 0 */\n      dup1\n      shl\n        /* \"Bank.sol\":285:293  accounts */\n      0x00\n        /* \"Bank.sol\":285:299  accounts[user] */\n      dup1\n        /* \"Bank.sol\":294:298  user */\n      dup4\n        /* \"Bank.sol\":285:299  accounts[user] */\n      0xffffffffffffffffffffffffffffffffffffffff\n      and\n      0xffffffffffffffffffffffffffffffffffffffff\n      and\n      dup2\n      mstore\n      0x20\n      add\n      swap1\n      dup2\n      mstore\n      0x20\n      add\n      0x00\n      keccak256\n        /* \"Bank.sol\":285:312  accounts[user].passwordHash */\n      0x01\n      add\n      sload\n        /* \"Bank.sol\":285:317  accounts[user].passwordHash != 0 */\n      sub\n        /* \"Bank.sol\":277:338  require(accounts[user].passwordHash != 0, \"Conta nao existe\") */\n      tag_30\n      jumpi\n      mload(0x40)\n      0x08c379a000000000000000000000000000000000000000000000000000000000\n      dup2\n      mstore\n      0x04\n      add\n      tag_31\n      swap1\n      tag_32\n      jump\t// in\n    tag_31:\n      mload(0x40)\n      dup1\n      swap2\n      sub\n      swap1\n      revert\n    tag_30:\n        /* \"Bank.sol\":2205:2213  accounts */\n      0x00\n        /* \"Bank.sol\":2205:2225  accounts[msg.sender] */\n      dup1\n        /* \"Bank.sol\":2214:2224  msg.sender */\n      caller\n        /* \"Bank.sol\":2205:2225  accounts[msg.sender] */\n      0xffffffffffffffffffffffffffffffffffffffff\n      and\n      0xffffffffffffffffffffffffffffffffffffffff\n      and\n      dup2\n      mstore\n      0x20\n      add\n      swap1\n      dup2\n      mstore\n      0x20\n      add\n      0x00\n      keccak256\n        /* \"Bank.sol\":2205:2233  accounts[msg.sender].balance */\n      0x00\n      add\n      sload\n        /* \"Bank.sol\":2198:2233  return accounts[msg.sender].balance */\n      swap2\n      pop\n        /* \"Bank.sol\":2107:2241  function getBalance() external view accountExists(msg.sender) returns (uint256) {... */\n      pop\n      swap1\n      jump\t// out\n        /* \"Bank.sol\":653:939  function createAccount(string memory password) external {... */\n    tag_16:\n        /* \"Bank.sol\":765:766  0 */\n      0x00\n        /* \"Bank.sol\":728:766  accounts[msg.sender].passwordHash == 0 */\n      dup1\n      shl\n        /* \"Bank.sol\":728:736  accounts */\n      0x00\n        /* \"Bank.sol\":728:748  accounts[msg.sender] */\n      dup1\n        /* \"Bank.sol\":737:747  msg.sender */\n      caller\n        /* \"Bank.sol\":728:748  accounts[msg.sender] */\n      0xffffffffffffffffffffffffffffffffffffffff\n      and\n      0xffffffffffffffffffffffffffffffffffffffff\n      and\n      dup2\n      mstore\n      0x20\n      add\n      swap1\n      dup2\n      mstore\n      0x20\n      add\n      0x00\n      keccak256\n        /* \"Bank.sol\":728:761  accounts[msg.sender].passwordHash */\n      0x01\n      add\n      sload\n        /* \"Bank.sol\":728:766  accounts[msg.sender].passwordHash == 0 */\n      eq\n        /* \"Bank.sol\":720:786  require(accounts[msg.sender].passwordHash == 0, \"Conta ja existe\") */\n      tag_35\n      jumpi\n      mload(0x40)\n      0x08c379a000000000000000000000000000000000000000000000000000000000\n      dup2\n      mstore\n      0x04\n      add\n      tag_36\n      swap1\n      tag_37\n      jump\t// in\n    tag_36:\n      mload(0x40)\n      dup1\n      swap2\n      sub\n      swap1\n      revert\n    tag_35:\n        /* \"Bank.sol\":820:931  Account({... */\n      mload(0x40)\n      dup1\n      0x40\n      add\n      0x40\n      mstore\n      dup1\n        /* \"Bank.sol\":852:853  0 */\n      0x00\n        /* \"Bank.sol\":820:931  Account({... */\n      dup2\n      mstore\n      0x20\n      add\n        /* \"Bank.sol\":909:917  password */\n      dup3\n        /* \"Bank.sol\":892:918  abi.encodePacked(password) */\n      add(0x20, mload(0x40))\n      tag_38\n      swap2\n      swap1\n      tag_39\n      jump\t// in\n    tag_38:\n      mload(0x40)\n      0x20\n      dup2\n      dup4\n      sub\n      sub\n      dup2\n      mstore\n      swap1\n      0x40\n      mstore\n        /* \"Bank.sol\":882:919  keccak256(abi.encodePacked(password)) */\n      dup1\n      mload\n      swap1\n      0x20\n      add\n      keccak256\n        /* \"Bank.sol\":820:931  Account({... */\n      dup2\n      mstore\n      pop\n        /* \"Bank.sol\":797:805  accounts */\n      0x00\n        /* \"Bank.sol\":797:817  accounts[msg.sender] */\n      dup1\n        /* \"Bank.sol\":806:816  msg.sender */\n      caller\n        /* \"Bank.sol\":797:817  accounts[msg.sender] */\n      0xffffffffffffffffffffffffffffffffffffffff\n      and\n      0xffffffffffffffffffffffffffffffffffffffff\n      and\n      dup2\n      mstore\n      0x20\n      add\n      swap1\n      dup2\n      mstore\n      0x20\n      add\n      0x00\n      keccak256\n        /* \"Bank.sol\":797:931  accounts[msg.sender] = Account({... */\n      0x00\n      dup3\n      add\n      mload\n      dup2\n      0x00\n      add\n      sstore\n      0x20\n      dup3\n      add\n      mload\n      dup2\n      0x01\n      add\n      sstore\n      swap1\n      pop\n      pop\n        /* \"Bank.sol\":653:939  function createAccount(string memory password) external {... */\n      pop\n      jump\t// out\n        /* \"Bank.sol\":1182:1620  function transfer(... */\n    tag_21:\n        /* \"Bank.sol\":1309:1319  msg.sender */\n      caller\n        /* \"Bank.sol\":316:317  0 */\n      0x00\n        /* \"Bank.sol\":285:317  accounts[user].passwordHash != 0 */\n      dup1\n      shl\n        /* \"Bank.sol\":285:293  accounts */\n      0x00\n        /* \"Bank.sol\":285:299  accounts[user] */\n      dup1\n        /* \"Bank.sol\":294:298  user */\n      dup4\n        /* \"Bank.sol\":285:299  accounts[user] */\n      0xffffffffffffffffffffffffffffffffffffffff\n      and\n      0xffffffffffffffffffffffffffffffffffffffff\n      and\n      dup2\n      mstore\n      0x20\n      add\n      swap1\n      dup2\n      mstore\n      0x20\n      add\n      0x00\n      keccak256\n        /* \"Bank.sol\":285:312  accounts[user].passwordHash */\n      0x01\n      add\n      sload\n        /* \"Bank.sol\":285:317  accounts[user].passwordHash != 0 */\n      sub\n        /* \"Bank.sol\":277:338  require(accounts[user].passwordHash != 0, \"Conta nao existe\") */\n      tag_41\n      jumpi\n      mload(0x40)\n      0x08c379a000000000000000000000000000000000000000000000000000000000\n      dup2\n      mstore\n      0x04\n      add\n      tag_42\n      swap1\n      tag_32\n      jump\t// in\n    tag_42:\n      mload(0x40)\n      dup1\n      swap2\n      sub\n      swap1\n      revert\n    tag_41:\n        /* \"Bank.sol\":1337:1347  msg.sender */\n      caller\n        /* \"Bank.sol\":1349:1357  password */\n      dup3\n        /* \"Bank.sol\":520:528  password */\n      dup1\n        /* \"Bank.sol\":503:529  abi.encodePacked(password) */\n      add(0x20, mload(0x40))\n      tag_44\n      swap2\n      swap1\n      tag_39\n      jump\t// in\n    tag_44:\n      mload(0x40)\n      0x20\n      dup2\n      dup4\n      sub\n      sub\n      dup2\n      mstore\n      swap1\n      0x40\n      mstore\n        /* \"Bank.sol\":493:530  keccak256(abi.encodePacked(password)) */\n      dup1\n      mload\n      swap1\n      0x20\n      add\n      keccak256\n        /* \"Bank.sol\":462:470  accounts */\n      0x00\n        /* \"Bank.sol\":462:476  accounts[user] */\n      dup1\n        /* \"Bank.sol\":471:475  user */\n      dup5\n        /* \"Bank.sol\":462:476  accounts[user] */\n      0xffffffffffffffffffffffffffffffffffffffff\n      and\n      0xffffffffffffffffffffffffffffffffffffffff\n      and\n      dup2\n      mstore\n      0x20\n      add\n      swap1\n      dup2\n      mstore\n      0x20\n      add\n      0x00\n      keccak256\n        /* \"Bank.sol\":462:489  accounts[user].passwordHash */\n      0x01\n      add\n      sload\n        /* \"Bank.sol\":462:530  accounts[user].passwordHash == keccak256(abi.encodePacked(password)) */\n      eq\n        /* \"Bank.sol\":440:573  require(... */\n      tag_45\n      jumpi\n      mload(0x40)\n      0x08c379a000000000000000000000000000000000000000000000000000000000\n      dup2\n      mstore\n      0x04\n      add\n      tag_46\n      swap1\n      tag_47\n      jump\t// in\n    tag_46:\n      mload(0x40)\n      dup1\n      swap2\n      sub\n      swap1\n      revert\n    tag_45:\n        /* \"Bank.sol\":1407:1408  0 */\n      0x00\n        /* \"Bank.sol\":1378:1408  accounts[to].passwordHash != 0 */\n      dup1\n      shl\n        /* \"Bank.sol\":1378:1386  accounts */\n      0x00\n        /* \"Bank.sol\":1378:1390  accounts[to] */\n      dup1\n        /* \"Bank.sol\":1387:1389  to */\n      dup9\n        /* \"Bank.sol\":1378:1390  accounts[to] */\n      0xffffffffffffffffffffffffffffffffffffffff\n      and\n      0xffffffffffffffffffffffffffffffffffffffff\n      and\n      dup2\n      mstore\n      0x20\n      add\n      swap1\n      dup2\n      mstore\n      0x20\n      add\n      0x00\n      keccak256\n        /* \"Bank.sol\":1378:1403  accounts[to].passwordHash */\n      0x01\n      add\n      sload\n        /* \"Bank.sol\":1378:1408  accounts[to].passwordHash != 0 */\n      sub\n        /* \"Bank.sol\":1370:1440  require(accounts[to].passwordHash != 0, \"Conta de destino nao existe\") */\n      tag_49\n      jumpi\n      mload(0x40)\n      0x08c379a000000000000000000000000000000000000000000000000000000000\n      dup2\n      mstore\n      0x04\n      add\n      tag_50\n      swap1\n      tag_51\n      jump\t// in\n    tag_50:\n      mload(0x40)\n      dup1\n      swap2\n      sub\n      swap1\n      revert\n    tag_49:\n        /* \"Bank.sol\":1491:1497  amount */\n      dup5\n        /* \"Bank.sol\":1459:1467  accounts */\n      0x00\n        /* \"Bank.sol\":1459:1479  accounts[msg.sender] */\n      dup1\n        /* \"Bank.sol\":1468:1478  msg.sender */\n      caller\n        /* \"Bank.sol\":1459:1479  accounts[msg.sender] */\n      0xffffffffffffffffffffffffffffffffffffffff\n      and\n      0xffffffffffffffffffffffffffffffffffffffff\n      and\n      dup2\n      mstore\n      0x20\n      add\n      swap1\n      dup2\n      mstore\n      0x20\n      add\n      0x00\n      keccak256\n        /* \"Bank.sol\":1459:1487  accounts[msg.sender].balance */\n      0x00\n      add\n      sload\n        /* \"Bank.sol\":1459:1497  accounts[msg.sender].balance >= amount */\n      lt\n      iszero\n        /* \"Bank.sol\":1451:1520  require(accounts[msg.sender].balance >= amount, \"Saldo insuficiente\") */\n      tag_52\n      jumpi\n      mload(0x40)\n      0x08c379a000000000000000000000000000000000000000000000000000000000\n      dup2\n      mstore\n      0x04\n      add\n      tag_53\n      swap1\n      tag_54\n      jump\t// in\n    tag_53:\n      mload(0x40)\n      dup1\n      swap2\n      sub\n      swap1\n      revert\n    tag_52:\n        /* \"Bank.sol\":1565:1571  amount */\n      dup5\n        /* \"Bank.sol\":1533:1541  accounts */\n      0x00\n        /* \"Bank.sol\":1533:1553  accounts[msg.sender] */\n      dup1\n        /* \"Bank.sol\":1542:1552  msg.sender */\n      caller\n        /* \"Bank.sol\":1533:1553  accounts[msg.sender] */\n      0xffffffffffffffffffffffffffffffffffffffff\n      and\n      0xffffffffffffffffffffffffffffffffffffffff\n      and\n      dup2\n      mstore\n      0x20\n      add\n      swap1\n      dup2\n      mstore\n      0x20\n      add\n      0x00\n      keccak256\n        /* \"Bank.sol\":1533:1561  accounts[msg.sender].balance */\n      0x00\n      add\n      0x00\n        /* \"Bank.sol\":1533:1571  accounts[msg.sender].balance -= amount */\n      dup3\n      dup3\n      sload\n      tag_55\n      swap2\n      swap1\n      tag_56\n      jump\t// in\n    tag_55:\n      swap3\n      pop\n      pop\n      dup2\n      swap1\n      sstore\n      pop\n        /* \"Bank.sol\":1606:1612  amount */\n      dup5\n        /* \"Bank.sol\":1582:1590  accounts */\n      0x00\n        /* \"Bank.sol\":1582:1594  accounts[to] */\n      dup1\n        /* \"Bank.sol\":1591:1593  to */\n      dup9\n        /* \"Bank.sol\":1582:1594  accounts[to] */\n      0xffffffffffffffffffffffffffffffffffffffff\n      and\n      0xffffffffffffffffffffffffffffffffffffffff\n      and\n      dup2\n      mstore\n      0x20\n      add\n      swap1\n      dup2\n      mstore\n      0x20\n      add\n      0x00\n      keccak256\n        /* \"Bank.sol\":1582:1602  accounts[to].balance */\n      0x00\n      add\n      0x00\n        /* \"Bank.sol\":1582:1612  accounts[to].balance += amount */\n      dup3\n      dup3\n      sload\n      tag_57\n      swap2\n      swap1\n      tag_58\n      jump\t// in\n    tag_57:\n      swap3\n      pop\n      pop\n      dup2\n      swap1\n      sstore\n      pop\n        /* \"Bank.sol\":349:350  _ */\n      pop\n      pop\n        /* \"Bank.sol\":1182:1620  function transfer(... */\n      pop\n      pop\n      pop\n      pop\n      jump\t// out\n        /* \"Bank.sol\":997:1119  function deposit() external payable accountExists(msg.sender) {... */\n    tag_23:\n        /* \"Bank.sol\":1047:1057  msg.sender */\n      caller\n        /* \"Bank.sol\":316:317  0 */\n      0x00\n        /* \"Bank.sol\":285:317  accounts[user].passwordHash != 0 */\n      dup1\n      shl\n        /* \"Bank.sol\":285:293  accounts */\n      0x00\n        /* \"Bank.sol\":285:299  accounts[user] */\n      dup1\n        /* \"Bank.sol\":294:298  user */\n      dup4\n        /* \"Bank.sol\":285:299  accounts[user] */\n      0xffffffffffffffffffffffffffffffffffffffff\n      and\n      0xffffffffffffffffffffffffffffffffffffffff\n      and\n      dup2\n      mstore\n      0x20\n      add\n      swap1\n      dup2\n      mstore\n      0x20\n      add\n      0x00\n      keccak256\n        /* \"Bank.sol\":285:312  accounts[user].passwordHash */\n      0x01\n      add\n      sload\n        /* \"Bank.sol\":285:317  accounts[user].passwordHash != 0 */\n      sub\n        /* \"Bank.sol\":277:338  require(accounts[user].passwordHash != 0, \"Conta nao existe\") */\n      tag_60\n      jumpi\n      mload(0x40)\n      0x08c379a000000000000000000000000000000000000000000000000000000000\n      dup2\n      mstore\n      0x04\n      add\n      tag_61\n      swap1\n      tag_32\n      jump\t// in\n    tag_61:\n      mload(0x40)\n      dup1\n      swap2\n      sub\n      swap1\n      revert\n    tag_60:\n        /* \"Bank.sol\":1102:1111  msg.value */\n      callvalue\n        /* \"Bank.sol\":1070:1078  accounts */\n      0x00\n        /* \"Bank.sol\":1070:1090  accounts[msg.sender] */\n      dup1\n        /* \"Bank.sol\":1079:1089  msg.sender */\n      caller\n        /* \"Bank.sol\":1070:1090  accounts[msg.sender] */\n      0xffffffffffffffffffffffffffffffffffffffff\n      and\n      0xffffffffffffffffffffffffffffffffffffffff\n      and\n      dup2\n      mstore\n      0x20\n      add\n      swap1\n      dup2\n      mstore\n      0x20\n      add\n      0x00\n      keccak256\n        /* \"Bank.sol\":1070:1098  accounts[msg.sender].balance */\n      0x00\n      add\n      0x00\n        /* \"Bank.sol\":1070:1111  accounts[msg.sender].balance += msg.value */\n      dup3\n      dup3\n      sload\n      tag_63\n      swap2\n      swap1\n      tag_58\n      jump\t// in\n    tag_63:\n      swap3\n      pop\n      pop\n      dup2\n      swap1\n      sstore\n      pop\n        /* \"Bank.sol\":997:1119  function deposit() external payable accountExists(msg.sender) {... */\n      pop\n      jump\t// out\n        /* \"Bank.sol\":1665:2022  function withdraw(uint256 amount, string memory password)... */\n    tag_28:\n        /* \"Bank.sol\":1764:1774  msg.sender */\n      caller\n        /* \"Bank.sol\":316:317  0 */\n      0x00\n        /* \"Bank.sol\":285:317  accounts[user].passwordHash != 0 */\n      dup1\n      shl\n        /* \"Bank.sol\":285:293  accounts */\n      0x00\n        /* \"Bank.sol\":285:299  accounts[user] */\n      dup1\n        /* \"Bank.sol\":294:298  user */\n      dup4\n        /* \"Bank.sol\":285:299  accounts[user] */\n      0xffffffffffffffffffffffffffffffffffffffff\n      and\n      0xffffffffffffffffffffffffffffffffffffffff\n      and\n      dup2\n      mstore\n      0x20\n      add\n      swap1\n      dup2\n      mstore\n      0x20\n      add\n      0x00\n      keccak256\n        /* \"Bank.sol\":285:312  accounts[user].passwordHash */\n      0x01\n      add\n      sload\n        /* \"Bank.sol\":285:317  accounts[user].passwordHash != 0 */\n      sub\n        /* \"Bank.sol\":277:338  require(accounts[user].passwordHash != 0, \"Conta nao existe\") */\n      tag_65\n      jumpi\n      mload(0x40)\n      0x08c379a000000000000000000000000000000000000000000000000000000000\n      dup2\n      mstore\n      0x04\n      add\n      tag_66\n      swap1\n      tag_32\n      jump\t// in\n    tag_66:\n      mload(0x40)\n      dup1\n      swap2\n      sub\n      swap1\n      revert\n    tag_65:\n        /* \"Bank.sol\":1801:1811  msg.sender */\n      caller\n        /* \"Bank.sol\":1813:1821  password */\n      dup3\n        /* \"Bank.sol\":520:528  password */\n      dup1\n        /* \"Bank.sol\":503:529  abi.encodePacked(password) */\n      add(0x20, mload(0x40))\n      tag_68\n      swap2\n      swap1\n      tag_39\n      jump\t// in\n    tag_68:\n      mload(0x40)\n      0x20\n      dup2\n      dup4\n      sub\n      sub\n      dup2\n      mstore\n      swap1\n      0x40\n      mstore\n        /* \"Bank.sol\":493:530  keccak256(abi.encodePacked(password)) */\n      dup1\n      mload\n      swap1\n      0x20\n      add\n      keccak256\n        /* \"Bank.sol\":462:470  accounts */\n      0x00\n        /* \"Bank.sol\":462:476  accounts[user] */\n      dup1\n        /* \"Bank.sol\":471:475  user */\n      dup5\n        /* \"Bank.sol\":462:476  accounts[user] */\n      0xffffffffffffffffffffffffffffffffffffffff\n      and\n      0xffffffffffffffffffffffffffffffffffffffff\n      and\n      dup2\n      mstore\n      0x20\n      add\n      swap1\n      dup2\n      mstore\n      0x20\n      add\n      0x00\n      keccak256\n        /* \"Bank.sol\":462:489  accounts[user].passwordHash */\n      0x01\n      add\n      sload\n        /* \"Bank.sol\":462:530  accounts[user].passwordHash == keccak256(abi.encodePacked(password)) */\n      eq\n        /* \"Bank.sol\":440:573  require(... */\n      tag_69\n      jumpi\n      mload(0x40)\n      0x08c379a000000000000000000000000000000000000000000000000000000000\n      dup2\n      mstore\n      0x04\n      add\n      tag_70\n      swap1\n      tag_47\n      jump\t// in\n    tag_70:\n      mload(0x40)\n      dup1\n      swap2\n      sub\n      swap1\n      revert\n    tag_69:\n        /* \"Bank.sol\":1879:1885  amount */\n      dup5\n        /* \"Bank.sol\":1847:1855  accounts */\n      0x00\n        /* \"Bank.sol\":1847:1867  accounts[msg.sender] */\n      dup1\n        /* \"Bank.sol\":1856:1866  msg.sender */\n      caller\n        /* \"Bank.sol\":1847:1867  accounts[msg.sender] */\n      0xffffffffffffffffffffffffffffffffffffffff\n      and\n      0xffffffffffffffffffffffffffffffffffffffff\n      and\n      dup2\n      mstore\n      0x20\n      add\n      swap1\n      dup2\n      mstore\n      0x20\n      add\n      0x00\n      keccak256\n        /* \"Bank.sol\":1847:1875  accounts[msg.sender].balance */\n      0x00\n      add\n      sload\n        /* \"Bank.sol\":1847:1885  accounts[msg.sender].balance >= amount */\n      lt\n      iszero\n        /* \"Bank.sol\":1839:1908  require(accounts[msg.sender].balance >= amount, \"Saldo insuficiente\") */\n      tag_72\n      jumpi\n      mload(0x40)\n      0x08c379a000000000000000000000000000000000000000000000000000000000\n      dup2\n      mstore\n      0x04\n      add\n      tag_73\n      swap1\n      tag_54\n      jump\t// in\n    tag_73:\n      mload(0x40)\n      dup1\n      swap2\n      sub\n      swap1\n      revert\n    tag_72:\n        /* \"Bank.sol\":1961:1967  amount */\n      dup5\n        /* \"Bank.sol\":1929:1937  accounts */\n      0x00\n        /* \"Bank.sol\":1929:1949  accounts[msg.sender] */\n      dup1\n        /* \"Bank.sol\":1938:1948  msg.sender */\n      caller\n        /* \"Bank.sol\":1929:1949  accounts[msg.sender] */\n      0xffffffffffffffffffffffffffffffffffffffff\n      and\n      0xffffffffffffffffffffffffffffffffffffffff\n      and\n      dup2\n      mstore\n      0x20\n      add\n      swap1\n      dup2\n      mstore\n      0x20\n      add\n      0x00\n      keccak256\n        /* \"Bank.sol\":1929:1957  accounts[msg.sender].balance */\n      0x00\n      add\n      0x00\n        /* \"Bank.sol\":1929:1967  accounts[msg.sender].balance -= amount */\n      dup3\n      dup3\n      sload\n      tag_74\n      swap2\n      swap1\n      tag_56\n      jump\t// in\n    tag_74:\n      swap3\n      pop\n      pop\n      dup2\n      swap1\n      sstore\n      pop\n        /* \"Bank.sol\":1986:1996  msg.sender */\n      caller\n        /* \"Bank.sol\":1978:2006  payable(msg.sender).transfer */\n      0xffffffffffffffffffffffffffffffffffffffff\n      and\n        /* \"Bank.sol\":1978:2014  payable(msg.sender).transfer(amount) */\n      0x08fc\n        /* \"Bank.sol\":2007:2013  amount */\n      dup7\n        /* \"Bank.sol\":1978:2014  payable(msg.sender).transfer(amount) */\n      swap1\n      dup2\n      iszero\n      mul\n      swap1\n      mload(0x40)\n      0x00\n      mload(0x40)\n      dup1\n      dup4\n      sub\n      dup2\n      dup6\n      dup9\n      dup9\n      call\n      swap4\n      pop\n      pop\n      pop\n      pop\n      iszero\n      dup1\n      iszero\n      tag_76\n      jumpi\n      returndatasize\n      0x00\n      dup1\n      returndatacopy\n      revert(0x00, returndatasize)\n    tag_76:\n      pop\n        /* \"Bank.sol\":349:350  _ */\n      pop\n      pop\n        /* \"Bank.sol\":1665:2022  function withdraw(uint256 amount, string memory password)... */\n      pop\n      pop\n      pop\n      jump\t// out\n        /* \"#utility.yul\":7:84   */\n    tag_77:\n        /* \"#utility.yul\":44:51   */\n      0x00\n        /* \"#utility.yul\":73:78   */\n      dup2\n        /* \"#utility.yul\":62:78   */\n      swap1\n      pop\n        /* \"#utility.yul\":7:84   */\n      swap2\n      swap1\n      pop\n      jump\t// out\n        /* \"#utility.yul\":90:208   */\n    tag_78:\n        /* \"#utility.yul\":177:201   */\n      tag_117\n        /* \"#utility.yul\":195:200   */\n      dup2\n        /* \"#utility.yul\":177:201   */\n      tag_77\n      jump\t// in\n    tag_117:\n        /* \"#utility.yul\":172:175   */\n      dup3\n        /* \"#utility.yul\":165:202   */\n      mstore\n        /* \"#utility.yul\":90:208   */\n      pop\n      pop\n      jump\t// out\n        /* \"#utility.yul\":214:436   */\n    tag_11:\n        /* \"#utility.yul\":307:311   */\n      0x00\n        /* \"#utility.yul\":345:347   */\n      0x20\n        /* \"#utility.yul\":334:343   */\n      dup3\n        /* \"#utility.yul\":330:348   */\n      add\n        /* \"#utility.yul\":322:348   */\n      swap1\n      pop\n        /* \"#utility.yul\":358:429   */\n      tag_119\n        /* \"#utility.yul\":426:427   */\n      0x00\n        /* \"#utility.yul\":415:424   */\n      dup4\n        /* \"#utility.yul\":411:428   */\n      add\n        /* \"#utility.yul\":402:408   */\n      dup5\n        /* \"#utility.yul\":358:429   */\n      tag_78\n      jump\t// in\n    tag_119:\n        /* \"#utility.yul\":214:436   */\n      swap3\n      swap2\n      pop\n      pop\n      jump\t// out\n        /* \"#utility.yul\":442:517   */\n    tag_79:\n        /* \"#utility.yul\":475:481   */\n      0x00\n        /* \"#utility.yul\":508:510   */\n      0x40\n        /* \"#utility.yul\":502:511   */\n      mload\n        /* \"#utility.yul\":492:511   */\n      swap1\n      pop\n        /* \"#utility.yul\":442:517   */\n      swap1\n      jump\t// out\n        /* \"#utility.yul\":523:640   */\n    tag_80:\n        /* \"#utility.yul\":632:633   */\n      0x00\n        /* \"#utility.yul\":629:630   */\n      dup1\n        /* \"#utility.yul\":622:634   */\n      revert\n        /* \"#utility.yul\":646:763   */\n    tag_81:\n        /* \"#utility.yul\":755:756   */\n      0x00\n        /* \"#utility.yul\":752:753   */\n      dup1\n        /* \"#utility.yul\":745:757   */\n      revert\n        /* \"#utility.yul\":769:886   */\n    tag_82:\n        /* \"#utility.yul\":878:879   */\n      0x00\n        /* \"#utility.yul\":875:876   */\n      dup1\n        /* \"#utility.yul\":868:880   */\n      revert\n        /* \"#utility.yul\":892:1009   */\n    tag_83:\n        /* \"#utility.yul\":1001:1002   */\n      0x00\n        /* \"#utility.yul\":998:999   */\n      dup1\n        /* \"#utility.yul\":991:1003   */\n      revert\n        /* \"#utility.yul\":1015:1117   */\n    tag_84:\n        /* \"#utility.yul\":1056:1062   */\n      0x00\n        /* \"#utility.yul\":1107:1109   */\n      0x1f\n        /* \"#utility.yul\":1103:1110   */\n      not\n        /* \"#utility.yul\":1098:1100   */\n      0x1f\n        /* \"#utility.yul\":1091:1096   */\n      dup4\n        /* \"#utility.yul\":1087:1101   */\n      add\n        /* \"#utility.yul\":1083:1111   */\n      and\n        /* \"#utility.yul\":1073:1111   */\n      swap1\n      pop\n        /* \"#utility.yul\":1015:1117   */\n      swap2\n      swap1\n      pop\n      jump\t// out\n        /* \"#utility.yul\":1123:1303   */\n    tag_85:\n        /* \"#utility.yul\":1171:1248   */\n      0x4e487b7100000000000000000000000000000000000000000000000000000000\n        /* \"#utility.yul\":1168:1169   */\n      0x00\n        /* \"#utility.yul\":1161:1249   */\n      mstore\n        /* \"#utility.yul\":1268:1272   */\n      0x41\n        /* \"#utility.yul\":1265:1266   */\n      0x04\n        /* \"#utility.yul\":1258:1273   */\n      mstore\n        /* \"#utility.yul\":1292:1296   */\n      0x24\n        /* \"#utility.yul\":1289:1290   */\n      0x00\n        /* \"#utility.yul\":1282:1297   */\n      revert\n        /* \"#utility.yul\":1309:1590   */\n    tag_86:\n        /* \"#utility.yul\":1392:1419   */\n      tag_128\n        /* \"#utility.yul\":1414:1418   */\n      dup3\n        /* \"#utility.yul\":1392:1419   */\n      tag_84\n      jump\t// in\n    tag_128:\n        /* \"#utility.yul\":1384:1390   */\n      dup2\n        /* \"#utility.yul\":1380:1420   */\n      add\n        /* \"#utility.yul\":1522:1528   */\n      dup2\n        /* \"#utility.yul\":1510:1520   */\n      dup2\n        /* \"#utility.yul\":1507:1529   */\n      lt\n        /* \"#utility.yul\":1486:1504   */\n      0xffffffffffffffff\n        /* \"#utility.yul\":1474:1484   */\n      dup3\n        /* \"#utility.yul\":1471:1505   */\n      gt\n        /* \"#utility.yul\":1468:1530   */\n      or\n        /* \"#utility.yul\":1465:1553   */\n      iszero\n      tag_129\n      jumpi\n        /* \"#utility.yul\":1533:1551   */\n      tag_130\n      tag_85\n      jump\t// in\n    tag_130:\n        /* \"#utility.yul\":1465:1553   */\n    tag_129:\n        /* \"#utility.yul\":1573:1583   */\n      dup1\n        /* \"#utility.yul\":1569:1571   */\n      0x40\n        /* \"#utility.yul\":1562:1584   */\n      mstore\n        /* \"#utility.yul\":1352:1590   */\n      pop\n        /* \"#utility.yul\":1309:1590   */\n      pop\n      pop\n      jump\t// out\n        /* \"#utility.yul\":1596:1725   */\n    tag_87:\n        /* \"#utility.yul\":1630:1636   */\n      0x00\n        /* \"#utility.yul\":1657:1677   */\n      tag_132\n      tag_79\n      jump\t// in\n    tag_132:\n        /* \"#utility.yul\":1647:1677   */\n      swap1\n      pop\n        /* \"#utility.yul\":1686:1719   */\n      tag_133\n        /* \"#utility.yul\":1714:1718   */\n      dup3\n        /* \"#utility.yul\":1706:1712   */\n      dup3\n        /* \"#utility.yul\":1686:1719   */\n      tag_86\n      jump\t// in\n    tag_133:\n        /* \"#utility.yul\":1596:1725   */\n      swap2\n      swap1\n      pop\n      jump\t// out\n        /* \"#utility.yul\":1731:2039   */\n    tag_88:\n        /* \"#utility.yul\":1793:1797   */\n      0x00\n        /* \"#utility.yul\":1883:1901   */\n      0xffffffffffffffff\n        /* \"#utility.yul\":1875:1881   */\n      dup3\n        /* \"#utility.yul\":1872:1902   */\n      gt\n        /* \"#utility.yul\":1869:1925   */\n      iszero\n      tag_135\n      jumpi\n        /* \"#utility.yul\":1905:1923   */\n      tag_136\n      tag_85\n      jump\t// in\n    tag_136:\n        /* \"#utility.yul\":1869:1925   */\n    tag_135:\n        /* \"#utility.yul\":1943:1972   */\n      tag_137\n        /* \"#utility.yul\":1965:1971   */\n      dup3\n        /* \"#utility.yul\":1943:1972   */\n      tag_84\n      jump\t// in\n    tag_137:\n        /* \"#utility.yul\":1935:1972   */\n      swap1\n      pop\n        /* \"#utility.yul\":2027:2031   */\n      0x20\n        /* \"#utility.yul\":2021:2025   */\n      dup2\n        /* \"#utility.yul\":2017:2032   */\n      add\n        /* \"#utility.yul\":2009:2032   */\n      swap1\n      pop\n        /* \"#utility.yul\":1731:2039   */\n      swap2\n      swap1\n      pop\n      jump\t// out\n        /* \"#utility.yul\":2045:2193   */\n    tag_89:\n        /* \"#utility.yul\":2143:2149   */\n      dup3\n        /* \"#utility.yul\":2138:2141   */\n      dup2\n        /* \"#utility.yul\":2133:2136   */\n      dup4\n        /* \"#utility.yul\":2120:2150   */\n      calldatacopy\n        /* \"#utility.yul\":2184:2185   */\n      0x00\n        /* \"#utility.yul\":2175:2181   */\n      dup4\n        /* \"#utility.yul\":2170:2173   */\n      dup4\n        /* \"#utility.yul\":2166:2182   */\n      add\n        /* \"#utility.yul\":2159:2186   */\n      mstore\n        /* \"#utility.yul\":2045:2193   */\n      pop\n      pop\n      pop\n      jump\t// out\n        /* \"#utility.yul\":2199:2624   */\n    tag_90:\n        /* \"#utility.yul\":2277:2282   */\n      0x00\n        /* \"#utility.yul\":2302:2368   */\n      tag_140\n        /* \"#utility.yul\":2318:2367   */\n      tag_141\n        /* \"#utility.yul\":2360:2366   */\n      dup5\n        /* \"#utility.yul\":2318:2367   */\n      tag_88\n      jump\t// in\n    tag_141:\n        /* \"#utility.yul\":2302:2368   */\n      tag_87\n      jump\t// in\n    tag_140:\n        /* \"#utility.yul\":2293:2368   */\n      swap1\n      pop\n        /* \"#utility.yul\":2391:2397   */\n      dup3\n        /* \"#utility.yul\":2384:2389   */\n      dup2\n        /* \"#utility.yul\":2377:2398   */\n      mstore\n        /* \"#utility.yul\":2429:2433   */\n      0x20\n        /* \"#utility.yul\":2422:2427   */\n      dup2\n        /* \"#utility.yul\":2418:2434   */\n      add\n        /* \"#utility.yul\":2467:2470   */\n      dup5\n        /* \"#utility.yul\":2458:2464   */\n      dup5\n        /* \"#utility.yul\":2453:2456   */\n      dup5\n        /* \"#utility.yul\":2449:2465   */\n      add\n        /* \"#utility.yul\":2446:2471   */\n      gt\n        /* \"#utility.yul\":2443:2555   */\n      iszero\n      tag_142\n      jumpi\n        /* \"#utility.yul\":2474:2553   */\n      tag_143\n      tag_83\n      jump\t// in\n    tag_143:\n        /* \"#utility.yul\":2443:2555   */\n    tag_142:\n        /* \"#utility.yul\":2564:2618   */\n      tag_144\n        /* \"#utility.yul\":2611:2617   */\n      dup5\n        /* \"#utility.yul\":2606:2609   */\n      dup3\n        /* \"#utility.yul\":2601:2604   */\n      dup6\n        /* \"#utility.yul\":2564:2618   */\n      tag_89\n      jump\t// in\n    tag_144:\n        /* \"#utility.yul\":2283:2624   */\n      pop\n        /* \"#utility.yul\":2199:2624   */\n      swap4\n      swap3\n      pop\n      pop\n      pop\n      jump\t// out\n        /* \"#utility.yul\":2644:2984   */\n    tag_91:\n        /* \"#utility.yul\":2700:2705   */\n      0x00\n        /* \"#utility.yul\":2749:2752   */\n      dup3\n        /* \"#utility.yul\":2742:2746   */\n      0x1f\n        /* \"#utility.yul\":2734:2740   */\n      dup4\n        /* \"#utility.yul\":2730:2747   */\n      add\n        /* \"#utility.yul\":2726:2753   */\n      slt\n        /* \"#utility.yul\":2716:2838   */\n      tag_146\n      jumpi\n        /* \"#utility.yul\":2757:2836   */\n      tag_147\n      tag_82\n      jump\t// in\n    tag_147:\n        /* \"#utility.yul\":2716:2838   */\n    tag_146:\n        /* \"#utility.yul\":2874:2880   */\n      dup2\n        /* \"#utility.yul\":2861:2881   */\n      calldataload\n        /* \"#utility.yul\":2899:2978   */\n      tag_148\n        /* \"#utility.yul\":2974:2977   */\n      dup5\n        /* \"#utility.yul\":2966:2972   */\n      dup3\n        /* \"#utility.yul\":2959:2963   */\n      0x20\n        /* \"#utility.yul\":2951:2957   */\n      dup7\n        /* \"#utility.yul\":2947:2964   */\n      add\n        /* \"#utility.yul\":2899:2978   */\n      tag_90\n      jump\t// in\n    tag_148:\n        /* \"#utility.yul\":2890:2978   */\n      swap2\n      pop\n        /* \"#utility.yul\":2706:2984   */\n      pop\n        /* \"#utility.yul\":2644:2984   */\n      swap3\n      swap2\n      pop\n      pop\n      jump\t// out\n        /* \"#utility.yul\":2990:3499   */\n    tag_15:\n        /* \"#utility.yul\":3059:3065   */\n      0x00\n        /* \"#utility.yul\":3108:3110   */\n      0x20\n        /* \"#utility.yul\":3096:3105   */\n      dup3\n        /* \"#utility.yul\":3087:3094   */\n      dup5\n        /* \"#utility.yul\":3083:3106   */\n      sub\n        /* \"#utility.yul\":3079:3111   */\n      slt\n        /* \"#utility.yul\":3076:3195   */\n      iszero\n      tag_150\n      jumpi\n        /* \"#utility.yul\":3114:3193   */\n      tag_151\n      tag_80\n      jump\t// in\n    tag_151:\n        /* \"#utility.yul\":3076:3195   */\n    tag_150:\n        /* \"#utility.yul\":3262:3263   */\n      0x00\n        /* \"#utility.yul\":3251:3260   */\n      dup3\n        /* \"#utility.yul\":3247:3264   */\n      add\n        /* \"#utility.yul\":3234:3265   */\n      calldataload\n        /* \"#utility.yul\":3292:3310   */\n      0xffffffffffffffff\n        /* \"#utility.yul\":3284:3290   */\n      dup2\n        /* \"#utility.yul\":3281:3311   */\n      gt\n        /* \"#utility.yul\":3278:3395   */\n      iszero\n      tag_152\n      jumpi\n        /* \"#utility.yul\":3314:3393   */\n      tag_153\n      tag_81\n      jump\t// in\n    tag_153:\n        /* \"#utility.yul\":3278:3395   */\n    tag_152:\n        /* \"#utility.yul\":3419:3482   */\n      tag_154\n        /* \"#utility.yul\":3474:3481   */\n      dup5\n        /* \"#utility.yul\":3465:3471   */\n      dup3\n        /* \"#utility.yul\":3454:3463   */\n      dup6\n        /* \"#utility.yul\":3450:3472   */\n      add\n        /* \"#utility.yul\":3419:3482   */\n      tag_91\n      jump\t// in\n    tag_154:\n        /* \"#utility.yul\":3409:3482   */\n      swap2\n      pop\n        /* \"#utility.yul\":3205:3492   */\n      pop\n        /* \"#utility.yul\":2990:3499   */\n      swap3\n      swap2\n      pop\n      pop\n      jump\t// out\n        /* \"#utility.yul\":3505:3631   */\n    tag_92:\n        /* \"#utility.yul\":3542:3549   */\n      0x00\n        /* \"#utility.yul\":3582:3624   */\n      0xffffffffffffffffffffffffffffffffffffffff\n        /* \"#utility.yul\":3575:3580   */\n      dup3\n        /* \"#utility.yul\":3571:3625   */\n      and\n        /* \"#utility.yul\":3560:3625   */\n      swap1\n      pop\n        /* \"#utility.yul\":3505:3631   */\n      swap2\n      swap1\n      pop\n      jump\t// out\n        /* \"#utility.yul\":3637:3733   */\n    tag_93:\n        /* \"#utility.yul\":3674:3681   */\n      0x00\n        /* \"#utility.yul\":3703:3727   */\n      tag_157\n        /* \"#utility.yul\":3721:3726   */\n      dup3\n        /* \"#utility.yul\":3703:3727   */\n      tag_92\n      jump\t// in\n    tag_157:\n        /* \"#utility.yul\":3692:3727   */\n      swap1\n      pop\n        /* \"#utility.yul\":3637:3733   */\n      swap2\n      swap1\n      pop\n      jump\t// out\n        /* \"#utility.yul\":3739:3861   */\n    tag_94:\n        /* \"#utility.yul\":3812:3836   */\n      tag_159\n        /* \"#utility.yul\":3830:3835   */\n      dup2\n        /* \"#utility.yul\":3812:3836   */\n      tag_93\n      jump\t// in\n    tag_159:\n        /* \"#utility.yul\":3805:3810   */\n      dup2\n        /* \"#utility.yul\":3802:3837   */\n      eq\n        /* \"#utility.yul\":3792:3855   */\n      tag_160\n      jumpi\n        /* \"#utility.yul\":3851:3852   */\n      0x00\n        /* \"#utility.yul\":3848:3849   */\n      dup1\n        /* \"#utility.yul\":3841:3853   */\n      revert\n        /* \"#utility.yul\":3792:3855   */\n    tag_160:\n        /* \"#utility.yul\":3739:3861   */\n      pop\n      jump\t// out\n        /* \"#utility.yul\":3867:4006   */\n    tag_95:\n        /* \"#utility.yul\":3913:3918   */\n      0x00\n        /* \"#utility.yul\":3951:3957   */\n      dup2\n        /* \"#utility.yul\":3938:3958   */\n      calldataload\n        /* \"#utility.yul\":3929:3958   */\n      swap1\n      pop\n        /* \"#utility.yul\":3967:4000   */\n      tag_162\n        /* \"#utility.yul\":3994:3999   */\n      dup2\n        /* \"#utility.yul\":3967:4000   */\n      tag_94\n      jump\t// in\n    tag_162:\n        /* \"#utility.yul\":3867:4006   */\n      swap3\n      swap2\n      pop\n      pop\n      jump\t// out\n        /* \"#utility.yul\":4012:4134   */\n    tag_96:\n        /* \"#utility.yul\":4085:4109   */\n      tag_164\n        /* \"#utility.yul\":4103:4108   */\n      dup2\n        /* \"#utility.yul\":4085:4109   */\n      tag_77\n      jump\t// in\n    tag_164:\n        /* \"#utility.yul\":4078:4083   */\n      dup2\n        /* \"#utility.yul\":4075:4110   */\n      eq\n        /* \"#utility.yul\":4065:4128   */\n      tag_165\n      jumpi\n        /* \"#utility.yul\":4124:4125   */\n      0x00\n        /* \"#utility.yul\":4121:4122   */\n      dup1\n        /* \"#utility.yul\":4114:4126   */\n      revert\n        /* \"#utility.yul\":4065:4128   */\n    tag_165:\n        /* \"#utility.yul\":4012:4134   */\n      pop\n      jump\t// out\n        /* \"#utility.yul\":4140:4279   */\n    tag_97:\n        /* \"#utility.yul\":4186:4191   */\n      0x00\n        /* \"#utility.yul\":4224:4230   */\n      dup2\n        /* \"#utility.yul\":4211:4231   */\n      calldataload\n        /* \"#utility.yul\":4202:4231   */\n      swap1\n      pop\n        /* \"#utility.yul\":4240:4273   */\n      tag_167\n        /* \"#utility.yul\":4267:4272   */\n      dup2\n        /* \"#utility.yul\":4240:4273   */\n      tag_96\n      jump\t// in\n    tag_167:\n        /* \"#utility.yul\":4140:4279   */\n      swap3\n      swap2\n      pop\n      pop\n      jump\t// out\n        /* \"#utility.yul\":4285:5084   */\n    tag_20:\n        /* \"#utility.yul\":4372:4378   */\n      0x00\n        /* \"#utility.yul\":4380:4386   */\n      dup1\n        /* \"#utility.yul\":4388:4394   */\n      0x00\n        /* \"#utility.yul\":4437:4439   */\n      0x60\n        /* \"#utility.yul\":4425:4434   */\n      dup5\n        /* \"#utility.yul\":4416:4423   */\n      dup7\n        /* \"#utility.yul\":4412:4435   */\n      sub\n        /* \"#utility.yul\":4408:4440   */\n      slt\n        /* \"#utility.yul\":4405:4524   */\n      iszero\n      tag_169\n      jumpi\n        /* \"#utility.yul\":4443:4522   */\n      tag_170\n      tag_80\n      jump\t// in\n    tag_170:\n        /* \"#utility.yul\":4405:4524   */\n    tag_169:\n        /* \"#utility.yul\":4563:4564   */\n      0x00\n        /* \"#utility.yul\":4588:4641   */\n      tag_171\n        /* \"#utility.yul\":4633:4640   */\n      dup7\n        /* \"#utility.yul\":4624:4630   */\n      dup3\n        /* \"#utility.yul\":4613:4622   */\n      dup8\n        /* \"#utility.yul\":4609:4631   */\n      add\n        /* \"#utility.yul\":4588:4641   */\n      tag_95\n      jump\t// in\n    tag_171:\n        /* \"#utility.yul\":4578:4641   */\n      swap4\n      pop\n        /* \"#utility.yul\":4534:4651   */\n      pop\n        /* \"#utility.yul\":4690:4692   */\n      0x20\n        /* \"#utility.yul\":4716:4769   */\n      tag_172\n        /* \"#utility.yul\":4761:4768   */\n      dup7\n        /* \"#utility.yul\":4752:4758   */\n      dup3\n        /* \"#utility.yul\":4741:4750   */\n      dup8\n        /* \"#utility.yul\":4737:4759   */\n      add\n        /* \"#utility.yul\":4716:4769   */\n      tag_97\n      jump\t// in\n    tag_172:\n        /* \"#utility.yul\":4706:4769   */\n      swap3\n      pop\n        /* \"#utility.yul\":4661:4779   */\n      pop\n        /* \"#utility.yul\":4846:4848   */\n      0x40\n        /* \"#utility.yul\":4835:4844   */\n      dup5\n        /* \"#utility.yul\":4831:4849   */\n      add\n        /* \"#utility.yul\":4818:4850   */\n      calldataload\n        /* \"#utility.yul\":4877:4895   */\n      0xffffffffffffffff\n        /* \"#utility.yul\":4869:4875   */\n      dup2\n        /* \"#utility.yul\":4866:4896   */\n      gt\n        /* \"#utility.yul\":4863:4980   */\n      iszero\n      tag_173\n      jumpi\n        /* \"#utility.yul\":4899:4978   */\n      tag_174\n      tag_81\n      jump\t// in\n    tag_174:\n        /* \"#utility.yul\":4863:4980   */\n    tag_173:\n        /* \"#utility.yul\":5004:5067   */\n      tag_175\n        /* \"#utility.yul\":5059:5066   */\n      dup7\n        /* \"#utility.yul\":5050:5056   */\n      dup3\n        /* \"#utility.yul\":5039:5048   */\n      dup8\n        /* \"#utility.yul\":5035:5057   */\n      add\n        /* \"#utility.yul\":5004:5067   */\n      tag_91\n      jump\t// in\n    tag_175:\n        /* \"#utility.yul\":4994:5067   */\n      swap2\n      pop\n        /* \"#utility.yul\":4789:5077   */\n      pop\n        /* \"#utility.yul\":4285:5084   */\n      swap3\n      pop\n      swap3\n      pop\n      swap3\n      jump\t// out\n        /* \"#utility.yul\":5090:5744   */\n    tag_27:\n        /* \"#utility.yul\":5168:5174   */\n      0x00\n        /* \"#utility.yul\":5176:5182   */\n      dup1\n        /* \"#utility.yul\":5225:5227   */\n      0x40\n        /* \"#utility.yul\":5213:5222   */\n      dup4\n        /* \"#utility.yul\":5204:5211   */\n      dup6\n        /* \"#utility.yul\":5200:5223   */\n      sub\n        /* \"#utility.yul\":5196:5228   */\n      slt\n        /* \"#utility.yul\":5193:5312   */\n      iszero\n      tag_177\n      jumpi\n        /* \"#utility.yul\":5231:5310   */\n      tag_178\n      tag_80\n      jump\t// in\n    tag_178:\n        /* \"#utility.yul\":5193:5312   */\n    tag_177:\n        /* \"#utility.yul\":5351:5352   */\n      0x00\n        /* \"#utility.yul\":5376:5429   */\n      tag_179\n        /* \"#utility.yul\":5421:5428   */\n      dup6\n        /* \"#utility.yul\":5412:5418   */\n      dup3\n        /* \"#utility.yul\":5401:5410   */\n      dup7\n        /* \"#utility.yul\":5397:5419   */\n      add\n        /* \"#utility.yul\":5376:5429   */\n      tag_97\n      jump\t// in\n    tag_179:\n        /* \"#utility.yul\":5366:5429   */\n      swap3\n      pop\n        /* \"#utility.yul\":5322:5439   */\n      pop\n        /* \"#utility.yul\":5506:5508   */\n      0x20\n        /* \"#utility.yul\":5495:5504   */\n      dup4\n        /* \"#utility.yul\":5491:5509   */\n      add\n        /* \"#utility.yul\":5478:5510   */\n      calldataload\n        /* \"#utility.yul\":5537:5555   */\n      0xffffffffffffffff\n        /* \"#utility.yul\":5529:5535   */\n      dup2\n        /* \"#utility.yul\":5526:5556   */\n      gt\n        /* \"#utility.yul\":5523:5640   */\n      iszero\n      tag_180\n      jumpi\n        /* \"#utility.yul\":5559:5638   */\n      tag_181\n      tag_81\n      jump\t// in\n    tag_181:\n        /* \"#utility.yul\":5523:5640   */\n    tag_180:\n        /* \"#utility.yul\":5664:5727   */\n      tag_182\n        /* \"#utility.yul\":5719:5726   */\n      dup6\n        /* \"#utility.yul\":5710:5716   */\n      dup3\n        /* \"#utility.yul\":5699:5708   */\n      dup7\n        /* \"#utility.yul\":5695:5717   */\n      add\n        /* \"#utility.yul\":5664:5727   */\n      tag_91\n      jump\t// in\n    tag_182:\n        /* \"#utility.yul\":5654:5727   */\n      swap2\n      pop\n        /* \"#utility.yul\":5449:5737   */\n      pop\n        /* \"#utility.yul\":5090:5744   */\n      swap3\n      pop\n      swap3\n      swap1\n      pop\n      jump\t// out\n        /* \"#utility.yul\":5750:5919   */\n    tag_98:\n        /* \"#utility.yul\":5834:5845   */\n      0x00\n        /* \"#utility.yul\":5868:5874   */\n      dup3\n        /* \"#utility.yul\":5863:5866   */\n      dup3\n        /* \"#utility.yul\":5856:5875   */\n      mstore\n        /* \"#utility.yul\":5908:5912   */\n      0x20\n        /* \"#utility.yul\":5903:5906   */\n      dup3\n        /* \"#utility.yul\":5899:5913   */\n      add\n        /* \"#utility.yul\":5884:5913   */\n      swap1\n      pop\n        /* \"#utility.yul\":5750:5919   */\n      swap3\n      swap2\n      pop\n      pop\n      jump\t// out\n        /* \"#utility.yul\":5925:6091   */\n    tag_99:\n        /* \"#utility.yul\":6065:6083   */\n      0x436f6e7461206e616f2065786973746500000000000000000000000000000000\n        /* \"#utility.yul\":6061:6062   */\n      0x00\n        /* \"#utility.yul\":6053:6059   */\n      dup3\n        /* \"#utility.yul\":6049:6063   */\n      add\n        /* \"#utility.yul\":6042:6084   */\n      mstore\n        /* \"#utility.yul\":5925:6091   */\n      pop\n      jump\t// out\n        /* \"#utility.yul\":6097:6463   */\n    tag_100:\n        /* \"#utility.yul\":6239:6242   */\n      0x00\n        /* \"#utility.yul\":6260:6327   */\n      tag_186\n        /* \"#utility.yul\":6324:6326   */\n      0x10\n        /* \"#utility.yul\":6319:6322   */\n      dup4\n        /* \"#utility.yul\":6260:6327   */\n      tag_98\n      jump\t// in\n    tag_186:\n        /* \"#utility.yul\":6253:6327   */\n      swap2\n      pop\n        /* \"#utility.yul\":6336:6429   */\n      tag_187\n        /* \"#utility.yul\":6425:6428   */\n      dup3\n        /* \"#utility.yul\":6336:6429   */\n      tag_99\n      jump\t// in\n    tag_187:\n        /* \"#utility.yul\":6454:6456   */\n      0x20\n        /* \"#utility.yul\":6449:6452   */\n      dup3\n        /* \"#utility.yul\":6445:6457   */\n      add\n        /* \"#utility.yul\":6438:6457   */\n      swap1\n      pop\n        /* \"#utility.yul\":6097:6463   */\n      swap2\n      swap1\n      pop\n      jump\t// out\n        /* \"#utility.yul\":6469:6888   */\n    tag_32:\n        /* \"#utility.yul\":6635:6639   */\n      0x00\n        /* \"#utility.yul\":6673:6675   */\n      0x20\n        /* \"#utility.yul\":6662:6671   */\n      dup3\n        /* \"#utility.yul\":6658:6676   */\n      add\n        /* \"#utility.yul\":6650:6676   */\n      swap1\n      pop\n        /* \"#utility.yul\":6722:6731   */\n      dup2\n        /* \"#utility.yul\":6716:6720   */\n      dup2\n        /* \"#utility.yul\":6712:6732   */\n      sub\n        /* \"#utility.yul\":6708:6709   */\n      0x00\n        /* \"#utility.yul\":6697:6706   */\n      dup4\n        /* \"#utility.yul\":6693:6710   */\n      add\n        /* \"#utility.yul\":6686:6733   */\n      mstore\n        /* \"#utility.yul\":6750:6881   */\n      tag_189\n        /* \"#utility.yul\":6876:6880   */\n      dup2\n        /* \"#utility.yul\":6750:6881   */\n      tag_100\n      jump\t// in\n    tag_189:\n        /* \"#utility.yul\":6742:6881   */\n      swap1\n      pop\n        /* \"#utility.yul\":6469:6888   */\n      swap2\n      swap1\n      pop\n      jump\t// out\n        /* \"#utility.yul\":6894:7059   */\n    tag_101:\n        /* \"#utility.yul\":7034:7051   */\n      0x436f6e7461206a61206578697374650000000000000000000000000000000000\n        /* \"#utility.yul\":7030:7031   */\n      0x00\n        /* \"#utility.yul\":7022:7028   */\n      dup3\n        /* \"#utility.yul\":7018:7032   */\n      add\n        /* \"#utility.yul\":7011:7052   */\n      mstore\n        /* \"#utility.yul\":6894:7059   */\n      pop\n      jump\t// out\n        /* \"#utility.yul\":7065:7431   */\n    tag_102:\n        /* \"#utility.yul\":7207:7210   */\n      0x00\n        /* \"#utility.yul\":7228:7295   */\n      tag_192\n        /* \"#utility.yul\":7292:7294   */\n      0x0f\n        /* \"#utility.yul\":7287:7290   */\n      dup4\n        /* \"#utility.yul\":7228:7295   */\n      tag_98\n      jump\t// in\n    tag_192:\n        /* \"#utility.yul\":7221:7295   */\n      swap2\n      pop\n        /* \"#utility.yul\":7304:7397   */\n      tag_193\n        /* \"#utility.yul\":7393:7396   */\n      dup3\n        /* \"#utility.yul\":7304:7397   */\n      tag_101\n      jump\t// in\n    tag_193:\n        /* \"#utility.yul\":7422:7424   */\n      0x20\n        /* \"#utility.yul\":7417:7420   */\n      dup3\n        /* \"#utility.yul\":7413:7425   */\n      add\n        /* \"#utility.yul\":7406:7425   */\n      swap1\n      pop\n        /* \"#utility.yul\":7065:7431   */\n      swap2\n      swap1\n      pop\n      jump\t// out\n        /* \"#utility.yul\":7437:7856   */\n    tag_37:\n        /* \"#utility.yul\":7603:7607   */\n      0x00\n        /* \"#utility.yul\":7641:7643   */\n      0x20\n        /* \"#utility.yul\":7630:7639   */\n      dup3\n        /* \"#utility.yul\":7626:7644   */\n      add\n        /* \"#utility.yul\":7618:7644   */\n      swap1\n      pop\n        /* \"#utility.yul\":7690:7699   */\n      dup2\n        /* \"#utility.yul\":7684:7688   */\n      dup2\n        /* \"#utility.yul\":7680:7700   */\n      sub\n        /* \"#utility.yul\":7676:7677   */\n      0x00\n        /* \"#utility.yul\":7665:7674   */\n      dup4\n        /* \"#utility.yul\":7661:7678   */\n      add\n        /* \"#utility.yul\":7654:7701   */\n      mstore\n        /* \"#utility.yul\":7718:7849   */\n      tag_195\n        /* \"#utility.yul\":7844:7848   */\n      dup2\n        /* \"#utility.yul\":7718:7849   */\n      tag_102\n      jump\t// in\n    tag_195:\n        /* \"#utility.yul\":7710:7849   */\n      swap1\n      pop\n        /* \"#utility.yul\":7437:7856   */\n      swap2\n      swap1\n      pop\n      jump\t// out\n        /* \"#utility.yul\":7862:7961   */\n    tag_103:\n        /* \"#utility.yul\":7914:7920   */\n      0x00\n        /* \"#utility.yul\":7948:7953   */\n      dup2\n        /* \"#utility.yul\":7942:7954   */\n      mload\n        /* \"#utility.yul\":7932:7954   */\n      swap1\n      pop\n        /* \"#utility.yul\":7862:7961   */\n      swap2\n      swap1\n      pop\n      jump\t// out\n        /* \"#utility.yul\":7967:8115   */\n    tag_104:\n        /* \"#utility.yul\":8069:8080   */\n      0x00\n        /* \"#utility.yul\":8106:8109   */\n      dup2\n        /* \"#utility.yul\":8091:8109   */\n      swap1\n      pop\n        /* \"#utility.yul\":7967:8115   */\n      swap3\n      swap2\n      pop\n      pop\n      jump\t// out\n        /* \"#utility.yul\":8121:8260   */\n    tag_105:\n        /* \"#utility.yul\":8210:8216   */\n      dup3\n        /* \"#utility.yul\":8205:8208   */\n      dup2\n        /* \"#utility.yul\":8200:8203   */\n      dup4\n        /* \"#utility.yul\":8194:8217   */\n      mcopy\n        /* \"#utility.yul\":8251:8252   */\n      0x00\n        /* \"#utility.yul\":8242:8248   */\n      dup4\n        /* \"#utility.yul\":8237:8240   */\n      dup4\n        /* \"#utility.yul\":8233:8249   */\n      add\n        /* \"#utility.yul\":8226:8253   */\n      mstore\n        /* \"#utility.yul\":8121:8260   */\n      pop\n      pop\n      pop\n      jump\t// out\n        /* \"#utility.yul\":8266:8656   */\n    tag_106:\n        /* \"#utility.yul\":8372:8375   */\n      0x00\n        /* \"#utility.yul\":8400:8439   */\n      tag_200\n        /* \"#utility.yul\":8433:8438   */\n      dup3\n        /* \"#utility.yul\":8400:8439   */\n      tag_103\n      jump\t// in\n    tag_200:\n        /* \"#utility.yul\":8455:8544   */\n      tag_201\n        /* \"#utility.yul\":8537:8543   */\n      dup2\n        /* \"#utility.yul\":8532:8535   */\n      dup6\n        /* \"#utility.yul\":8455:8544   */\n      tag_104\n      jump\t// in\n    tag_201:\n        /* \"#utility.yul\":8448:8544   */\n      swap4\n      pop\n        /* \"#utility.yul\":8553:8618   */\n      tag_202\n        /* \"#utility.yul\":8611:8617   */\n      dup2\n        /* \"#utility.yul\":8606:8609   */\n      dup6\n        /* \"#utility.yul\":8599:8603   */\n      0x20\n        /* \"#utility.yul\":8592:8597   */\n      dup7\n        /* \"#utility.yul\":8588:8604   */\n      add\n        /* \"#utility.yul\":8553:8618   */\n      tag_105\n      jump\t// in\n    tag_202:\n        /* \"#utility.yul\":8643:8649   */\n      dup1\n        /* \"#utility.yul\":8638:8641   */\n      dup5\n        /* \"#utility.yul\":8634:8650   */\n      add\n        /* \"#utility.yul\":8627:8650   */\n      swap2\n      pop\n        /* \"#utility.yul\":8376:8656   */\n      pop\n        /* \"#utility.yul\":8266:8656   */\n      swap3\n      swap2\n      pop\n      pop\n      jump\t// out\n        /* \"#utility.yul\":8662:8937   */\n    tag_39:\n        /* \"#utility.yul\":8794:8797   */\n      0x00\n        /* \"#utility.yul\":8816:8911   */\n      tag_204\n        /* \"#utility.yul\":8907:8910   */\n      dup3\n        /* \"#utility.yul\":8898:8904   */\n      dup5\n        /* \"#utility.yul\":8816:8911   */\n      tag_106\n      jump\t// in\n    tag_204:\n        /* \"#utility.yul\":8809:8911   */\n      swap2\n      pop\n        /* \"#utility.yul\":8928:8931   */\n      dup2\n        /* \"#utility.yul\":8921:8931   */\n      swap1\n      pop\n        /* \"#utility.yul\":8662:8937   */\n      swap3\n      swap2\n      pop\n      pop\n      jump\t// out\n        /* \"#utility.yul\":8943:9108   */\n    tag_107:\n        /* \"#utility.yul\":9083:9100   */\n      0x53656e686120696e636f72726574610000000000000000000000000000000000\n        /* \"#utility.yul\":9079:9080   */\n      0x00\n        /* \"#utility.yul\":9071:9077   */\n      dup3\n        /* \"#utility.yul\":9067:9081   */\n      add\n        /* \"#utility.yul\":9060:9101   */\n      mstore\n        /* \"#utility.yul\":8943:9108   */\n      pop\n      jump\t// out\n        /* \"#utility.yul\":9114:9480   */\n    tag_108:\n        /* \"#utility.yul\":9256:9259   */\n      0x00\n        /* \"#utility.yul\":9277:9344   */\n      tag_207\n        /* \"#utility.yul\":9341:9343   */\n      0x0f\n        /* \"#utility.yul\":9336:9339   */\n      dup4\n        /* \"#utility.yul\":9277:9344   */\n      tag_98\n      jump\t// in\n    tag_207:\n        /* \"#utility.yul\":9270:9344   */\n      swap2\n      pop\n        /* \"#utility.yul\":9353:9446   */\n      tag_208\n        /* \"#utility.yul\":9442:9445   */\n      dup3\n        /* \"#utility.yul\":9353:9446   */\n      tag_107\n      jump\t// in\n    tag_208:\n        /* \"#utility.yul\":9471:9473   */\n      0x20\n        /* \"#utility.yul\":9466:9469   */\n      dup3\n        /* \"#utility.yul\":9462:9474   */\n      add\n        /* \"#utility.yul\":9455:9474   */\n      swap1\n      pop\n        /* \"#utility.yul\":9114:9480   */\n      swap2\n      swap1\n      pop\n      jump\t// out\n        /* \"#utility.yul\":9486:9905   */\n    tag_47:\n        /* \"#utility.yul\":9652:9656   */\n      0x00\n        /* \"#utility.yul\":9690:9692   */\n      0x20\n        /* \"#utility.yul\":9679:9688   */\n      dup3\n        /* \"#utility.yul\":9675:9693   */\n      add\n        /* \"#utility.yul\":9667:9693   */\n      swap1\n      pop\n        /* \"#utility.yul\":9739:9748   */\n      dup2\n        /* \"#utility.yul\":9733:9737   */\n      dup2\n        /* \"#utility.yul\":9729:9749   */\n      sub\n        /* \"#utility.yul\":9725:9726   */\n      0x00\n        /* \"#utility.yul\":9714:9723   */\n      dup4\n        /* \"#utility.yul\":9710:9727   */\n      add\n        /* \"#utility.yul\":9703:9750   */\n      mstore\n        /* \"#utility.yul\":9767:9898   */\n      tag_210\n        /* \"#utility.yul\":9893:9897   */\n      dup2\n        /* \"#utility.yul\":9767:9898   */\n      tag_108\n      jump\t// in\n    tag_210:\n        /* \"#utility.yul\":9759:9898   */\n      swap1\n      pop\n        /* \"#utility.yul\":9486:9905   */\n      swap2\n      swap1\n      pop\n      jump\t// out\n        /* \"#utility.yul\":9911:10088   */\n    tag_109:\n        /* \"#utility.yul\":10051:10080   */\n      0x436f6e74612064652064657374696e6f206e616f206578697374650000000000\n        /* \"#utility.yul\":10047:10048   */\n      0x00\n        /* \"#utility.yul\":10039:10045   */\n      dup3\n        /* \"#utility.yul\":10035:10049   */\n      add\n        /* \"#utility.yul\":10028:10081   */\n      mstore\n        /* \"#utility.yul\":9911:10088   */\n      pop\n      jump\t// out\n        /* \"#utility.yul\":10094:10460   */\n    tag_110:\n        /* \"#utility.yul\":10236:10239   */\n      0x00\n        /* \"#utility.yul\":10257:10324   */\n      tag_213\n        /* \"#utility.yul\":10321:10323   */\n      0x1b\n        /* \"#utility.yul\":10316:10319   */\n      dup4\n        /* \"#utility.yul\":10257:10324   */\n      tag_98\n      jump\t// in\n    tag_213:\n        /* \"#utility.yul\":10250:10324   */\n      swap2\n      pop\n        /* \"#utility.yul\":10333:10426   */\n      tag_214\n        /* \"#utility.yul\":10422:10425   */\n      dup3\n        /* \"#utility.yul\":10333:10426   */\n      tag_109\n      jump\t// in\n    tag_214:\n        /* \"#utility.yul\":10451:10453   */\n      0x20\n        /* \"#utility.yul\":10446:10449   */\n      dup3\n        /* \"#utility.yul\":10442:10454   */\n      add\n        /* \"#utility.yul\":10435:10454   */\n      swap1\n      pop\n        /* \"#utility.yul\":10094:10460   */\n      swap2\n      swap1\n      pop\n      jump\t// out\n        /* \"#utility.yul\":10466:10885   */\n    tag_51:\n        /* \"#utility.yul\":10632:10636   */\n      0x00\n        /* \"#utility.yul\":10670:10672   */\n      0x20\n        /* \"#utility.yul\":10659:10668   */\n      dup3\n        /* \"#utility.yul\":10655:10673   */\n      add\n        /* \"#utility.yul\":10647:10673   */\n      swap1\n      pop\n        /* \"#utility.yul\":10719:10728   */\n      dup2\n        /* \"#utility.yul\":10713:10717   */\n      dup2\n        /* \"#utility.yul\":10709:10729   */\n      sub\n        /* \"#utility.yul\":10705:10706   */\n      0x00\n        /* \"#utility.yul\":10694:10703   */\n      dup4\n        /* \"#utility.yul\":10690:10707   */\n      add\n        /* \"#utility.yul\":10683:10730   */\n      mstore\n        /* \"#utility.yul\":10747:10878   */\n      tag_216\n        /* \"#utility.yul\":10873:10877   */\n      dup2\n        /* \"#utility.yul\":10747:10878   */\n      tag_110\n      jump\t// in\n    tag_216:\n        /* \"#utility.yul\":10739:10878   */\n      swap1\n      pop\n        /* \"#utility.yul\":10466:10885   */\n      swap2\n      swap1\n      pop\n      jump\t// out\n        /* \"#utility.yul\":10891:11059   */\n    tag_111:\n        /* \"#utility.yul\":11031:11051   */\n      0x53616c646f20696e737566696369656e74650000000000000000000000000000\n        /* \"#utility.yul\":11027:11028   */\n      0x00\n        /* \"#utility.yul\":11019:11025   */\n      dup3\n        /* \"#utility.yul\":11015:11029   */\n      add\n        /* \"#utility.yul\":11008:11052   */\n      mstore\n        /* \"#utility.yul\":10891:11059   */\n      pop\n      jump\t// out\n        /* \"#utility.yul\":11065:11431   */\n    tag_112:\n        /* \"#utility.yul\":11207:11210   */\n      0x00\n        /* \"#utility.yul\":11228:11295   */\n      tag_219\n        /* \"#utility.yul\":11292:11294   */\n      0x12\n        /* \"#utility.yul\":11287:11290   */\n      dup4\n        /* \"#utility.yul\":11228:11295   */\n      tag_98\n      jump\t// in\n    tag_219:\n        /* \"#utility.yul\":11221:11295   */\n      swap2\n      pop\n        /* \"#utility.yul\":11304:11397   */\n      tag_220\n        /* \"#utility.yul\":11393:11396   */\n      dup3\n        /* \"#utility.yul\":11304:11397   */\n      tag_111\n      jump\t// in\n    tag_220:\n        /* \"#utility.yul\":11422:11424   */\n      0x20\n        /* \"#utility.yul\":11417:11420   */\n      dup3\n        /* \"#utility.yul\":11413:11425   */\n      add\n        /* \"#utility.yul\":11406:11425   */\n      swap1\n      pop\n        /* \"#utility.yul\":11065:11431   */\n      swap2\n      swap1\n      pop\n      jump\t// out\n        /* \"#utility.yul\":11437:11856   */\n    tag_54:\n        /* \"#utility.yul\":11603:11607   */\n      0x00\n        /* \"#utility.yul\":11641:11643   */\n      0x20\n        /* \"#utility.yul\":11630:11639   */\n      dup3\n        /* \"#utility.yul\":11626:11644   */\n      add\n        /* \"#utility.yul\":11618:11644   */\n      swap1\n      pop\n        /* \"#utility.yul\":11690:11699   */\n      dup2\n        /* \"#utility.yul\":11684:11688   */\n      dup2\n        /* \"#utility.yul\":11680:11700   */\n      sub\n        /* \"#utility.yul\":11676:11677   */\n      0x00\n        /* \"#utility.yul\":11665:11674   */\n      dup4\n        /* \"#utility.yul\":11661:11678   */\n      add\n        /* \"#utility.yul\":11654:11701   */\n      mstore\n        /* \"#utility.yul\":11718:11849   */\n      tag_222\n        /* \"#utility.yul\":11844:11848   */\n      dup2\n        /* \"#utility.yul\":11718:11849   */\n      tag_112\n      jump\t// in\n    tag_222:\n        /* \"#utility.yul\":11710:11849   */\n      swap1\n      pop\n        /* \"#utility.yul\":11437:11856   */\n      swap2\n      swap1\n      pop\n      jump\t// out\n        /* \"#utility.yul\":11862:12042   */\n    tag_113:\n        /* \"#utility.yul\":11910:11987   */\n      0x4e487b7100000000000000000000000000000000000000000000000000000000\n        /* \"#utility.yul\":11907:11908   */\n      0x00\n        /* \"#utility.yul\":11900:11988   */\n      mstore\n        /* \"#utility.yul\":12007:12011   */\n      0x11\n        /* \"#utility.yul\":12004:12005   */\n      0x04\n        /* \"#utility.yul\":11997:12012   */\n      mstore\n        /* \"#utility.yul\":12031:12035   */\n      0x24\n        /* \"#utility.yul\":12028:12029   */\n      0x00\n        /* \"#utility.yul\":12021:12036   */\n      revert\n        /* \"#utility.yul\":12048:12242   */\n    tag_56:\n        /* \"#utility.yul\":12088:12092   */\n      0x00\n        /* \"#utility.yul\":12108:12128   */\n      tag_225\n        /* \"#utility.yul\":12126:12127   */\n      dup3\n        /* \"#utility.yul\":12108:12128   */\n      tag_77\n      jump\t// in\n    tag_225:\n        /* \"#utility.yul\":12103:12128   */\n      swap2\n      pop\n        /* \"#utility.yul\":12142:12162   */\n      tag_226\n        /* \"#utility.yul\":12160:12161   */\n      dup4\n        /* \"#utility.yul\":12142:12162   */\n      tag_77\n      jump\t// in\n    tag_226:\n        /* \"#utility.yul\":12137:12162   */\n      swap3\n      pop\n        /* \"#utility.yul\":12186:12187   */\n      dup3\n        /* \"#utility.yul\":12183:12184   */\n      dup3\n        /* \"#utility.yul\":12179:12188   */\n      sub\n        /* \"#utility.yul\":12171:12188   */\n      swap1\n      pop\n        /* \"#utility.yul\":12210:12211   */\n      dup2\n        /* \"#utility.yul\":12204:12208   */\n      dup2\n        /* \"#utility.yul\":12201:12212   */\n      gt\n        /* \"#utility.yul\":12198:12235   */\n      iszero\n      tag_227\n      jumpi\n        /* \"#utility.yul\":12215:12233   */\n      tag_228\n      tag_113\n      jump\t// in\n    tag_228:\n        /* \"#utility.yul\":12198:12235   */\n    tag_227:\n        /* \"#utility.yul\":12048:12242   */\n      swap3\n      swap2\n      pop\n      pop\n      jump\t// out\n        /* \"#utility.yul\":12248:12439   */\n    tag_58:\n        /* \"#utility.yul\":12288:12291   */\n      0x00\n        /* \"#utility.yul\":12307:12327   */\n      tag_230\n        /* \"#utility.yul\":12325:12326   */\n      dup3\n        /* \"#utility.yul\":12307:12327   */\n      tag_77\n      jump\t// in\n    tag_230:\n        /* \"#utility.yul\":12302:12327   */\n      swap2\n      pop\n        /* \"#utility.yul\":12341:12361   */\n      tag_231\n        /* \"#utility.yul\":12359:12360   */\n      dup4\n        /* \"#utility.yul\":12341:12361   */\n      tag_77\n      jump\t// in\n    tag_231:\n        /* \"#utility.yul\":12336:12361   */\n      swap3\n      pop\n        /* \"#utility.yul\":12384:12385   */\n      dup3\n        /* \"#utility.yul\":12381:12382   */\n      dup3\n        /* \"#utility.yul\":12377:12386   */\n      add\n        /* \"#utility.yul\":12370:12386   */\n      swap1\n      pop\n        /* \"#utility.yul\":12405:12408   */\n      dup1\n        /* \"#utility.yul\":12402:12403   */\n      dup3\n        /* \"#utility.yul\":12399:12409   */\n      gt\n        /* \"#utility.yul\":12396:12432   */\n      iszero\n      tag_232\n      jumpi\n        /* \"#utility.yul\":12412:12430   */\n      tag_233\n      tag_113\n      jump\t// in\n    tag_233:\n        /* \"#utility.yul\":12396:12432   */\n    tag_232:\n        /* \"#utility.yul\":12248:12439   */\n      swap3\n      swap2\n      pop\n      pop\n      jump\t// out\n\n    auxdata: 0xa2646970667358221220a368106ff81a884f44a64755cbc338007d09b8de68ff7db3f9f6deb198cc775b64736f6c634300081a0033\n}\n",
				"bytecode": {
					"linkReferences": {},
					"object": "6080604052348015600e575f80fd5b50610f368061001c5f395ff3fe608060405260043610610049575f3560e01c806312065fe01461004d578063298daf5b1461007757806356b8c7241461009f578063d0e30db0146100c7578063dc048cf2146100d1575b5f80fd5b348015610058575f80fd5b506100616100f9565b60405161006e91906108f6565b60405180910390f35b348015610082575f80fd5b5061009d60048036038101906100989190610a5c565b6101c3565b005b3480156100aa575f80fd5b506100c560048036038101906100c09190610b27565b6102d5565b005b6100cf6105b6565b005b3480156100dc575f80fd5b506100f760048036038101906100f29190610b93565b610691565b005b5f335f801b5f808373ffffffffffffffffffffffffffffffffffffffff1673ffffffffffffffffffffffffffffffffffffffff1681526020019081526020015f20600101540361017e576040517f08c379a000000000000000000000000000000000000000000000000000000000815260040161017590610c47565b60405180910390fd5b5f803373ffffffffffffffffffffffffffffffffffffffff1673ffffffffffffffffffffffffffffffffffffffff1681526020019081526020015f205f015491505090565b5f801b5f803373ffffffffffffffffffffffffffffffffffffffff1673ffffffffffffffffffffffffffffffffffffffff1681526020019081526020015f206001015414610246576040517f08c379a000000000000000000000000000000000000000000000000000000000815260040161023d90610caf565b60405180910390fd5b60405180604001604052805f8152602001826040516020016102689190610d1f565b604051602081830303815290604052805190602001208152505f803373ffffffffffffffffffffffffffffffffffffffff1673ffffffffffffffffffffffffffffffffffffffff1681526020019081526020015f205f820151815f01556020820151816001015590505050565b335f801b5f808373ffffffffffffffffffffffffffffffffffffffff1673ffffffffffffffffffffffffffffffffffffffff1681526020019081526020015f206001015403610359576040517f08c379a000000000000000000000000000000000000000000000000000000000815260040161035090610c47565b60405180910390fd5b33828060405160200161036c9190610d1f565b604051602081830303815290604052805190602001205f808473ffffffffffffffffffffffffffffffffffffffff1673ffffffffffffffffffffffffffffffffffffffff1681526020019081526020015f206001015414610402576040517f08c379a00000000000000000000000000000000000000000000000000000000081526004016103f990610d7f565b60405180910390fd5b5f801b5f808873ffffffffffffffffffffffffffffffffffffffff1673ffffffffffffffffffffffffffffffffffffffff1681526020019081526020015f206001015403610485576040517f08c379a000000000000000000000000000000000000000000000000000000000815260040161047c90610de7565b60405180910390fd5b845f803373ffffffffffffffffffffffffffffffffffffffff1673ffffffffffffffffffffffffffffffffffffffff1681526020019081526020015f205f01541015610506576040517f08c379a00000000000000000000000000000000000000000000000000000000081526004016104fd90610e4f565b60405180910390fd5b845f803373ffffffffffffffffffffffffffffffffffffffff1673ffffffffffffffffffffffffffffffffffffffff1681526020019081526020015f205f015f8282546105539190610e9a565b92505081905550845f808873ffffffffffffffffffffffffffffffffffffffff1673ffffffffffffffffffffffffffffffffffffffff1681526020019081526020015f205f015f8282546105a79190610ecd565b92505081905550505050505050565b335f801b5f808373ffffffffffffffffffffffffffffffffffffffff1673ffffffffffffffffffffffffffffffffffffffff1681526020019081526020015f20600101540361063a576040517f08c379a000000000000000000000000000000000000000000000000000000000815260040161063190610c47565b60405180910390fd5b345f803373ffffffffffffffffffffffffffffffffffffffff1673ffffffffffffffffffffffffffffffffffffffff1681526020019081526020015f205f015f8282546106879190610ecd565b9250508190555050565b335f801b5f808373ffffffffffffffffffffffffffffffffffffffff1673ffffffffffffffffffffffffffffffffffffffff1681526020019081526020015f206001015403610715576040517f08c379a000000000000000000000000000000000000000000000000000000000815260040161070c90610c47565b60405180910390fd5b3382806040516020016107289190610d1f565b604051602081830303815290604052805190602001205f808473ffffffffffffffffffffffffffffffffffffffff1673ffffffffffffffffffffffffffffffffffffffff1681526020019081526020015f2060010154146107be576040517f08c379a00000000000000000000000000000000000000000000000000000000081526004016107b590610d7f565b60405180910390fd5b845f803373ffffffffffffffffffffffffffffffffffffffff1673ffffffffffffffffffffffffffffffffffffffff1681526020019081526020015f205f0154101561083f576040517f08c379a000000000000000000000000000000000000000000000000000000000815260040161083690610e4f565b60405180910390fd5b845f803373ffffffffffffffffffffffffffffffffffffffff1673ffffffffffffffffffffffffffffffffffffffff1681526020019081526020015f205f015f82825461088c9190610e9a565b925050819055503373ffffffffffffffffffffffffffffffffffffffff166108fc8690811502906040515f60405180830381858888f193505050501580156108d6573d5f803e3d5ffd5b505050505050565b5f819050919050565b6108f0816108de565b82525050565b5f6020820190506109095f8301846108e7565b92915050565b5f604051905090565b5f80fd5b5f80fd5b5f80fd5b5f80fd5b5f601f19601f8301169050919050565b7f4e487b71000000000000000000000000000000000000000000000000000000005f52604160045260245ffd5b61096e82610928565b810181811067ffffffffffffffff8211171561098d5761098c610938565b5b80604052505050565b5f61099f61090f565b90506109ab8282610965565b919050565b5f67ffffffffffffffff8211156109ca576109c9610938565b5b6109d382610928565b9050602081019050919050565b828183375f83830152505050565b5f610a006109fb846109b0565b610996565b905082815260208101848484011115610a1c57610a1b610924565b5b610a278482856109e0565b509392505050565b5f82601f830112610a4357610a42610920565b5b8135610a538482602086016109ee565b91505092915050565b5f60208284031215610a7157610a70610918565b5b5f82013567ffffffffffffffff811115610a8e57610a8d61091c565b5b610a9a84828501610a2f565b91505092915050565b5f73ffffffffffffffffffffffffffffffffffffffff82169050919050565b5f610acc82610aa3565b9050919050565b610adc81610ac2565b8114610ae6575f80fd5b50565b5f81359050610af781610ad3565b92915050565b610b06816108de565b8114610b10575f80fd5b50565b5f81359050610b2181610afd565b92915050565b5f805f60608486031215610b3e57610b3d610918565b5b5f610b4b86828701610ae9565b9350506020610b5c86828701610b13565b925050604084013567ffffffffffffffff811115610b7d57610b7c61091c565b5b610b8986828701610a2f565b9150509250925092565b5f8060408385031215610ba957610ba8610918565b5b5f610bb685828601610b13565b925050602083013567ffffffffffffffff811115610bd757610bd661091c565b5b610be385828601610a2f565b9150509250929050565b5f82825260208201905092915050565b7f436f6e7461206e616f20657869737465000000000000000000000000000000005f82015250565b5f610c31601083610bed565b9150610c3c82610bfd565b602082019050919050565b5f6020820190508181035f830152610c5e81610c25565b9050919050565b7f436f6e7461206a612065786973746500000000000000000000000000000000005f82015250565b5f610c99600f83610bed565b9150610ca482610c65565b602082019050919050565b5f6020820190508181035f830152610cc681610c8d565b9050919050565b5f81519050919050565b5f81905092915050565b8281835e5f83830152505050565b5f610cf982610ccd565b610d038185610cd7565b9350610d13818560208601610ce1565b80840191505092915050565b5f610d2a8284610cef565b915081905092915050565b7f53656e686120696e636f727265746100000000000000000000000000000000005f82015250565b5f610d69600f83610bed565b9150610d7482610d35565b602082019050919050565b5f6020820190508181035f830152610d9681610d5d565b9050919050565b7f436f6e74612064652064657374696e6f206e616f2065786973746500000000005f82015250565b5f610dd1601b83610bed565b9150610ddc82610d9d565b602082019050919050565b5f6020820190508181035f830152610dfe81610dc5565b9050919050565b7f53616c646f20696e737566696369656e746500000000000000000000000000005f82015250565b5f610e39601283610bed565b9150610e4482610e05565b602082019050919050565b5f6020820190508181035f830152610e6681610e2d565b9050919050565b7f4e487b71000000000000000000000000000000000000000000000000000000005f52601160045260245ffd5b5f610ea4826108de565b9150610eaf836108de565b9250828203905081811115610ec757610ec6610e6d565b5b92915050565b5f610ed7826108de565b9150610ee2836108de565b9250828201905080821115610efa57610ef9610e6d565b5b9291505056fea2646970667358221220a368106ff81a884f44a64755cbc338007d09b8de68ff7db3f9f6deb198cc775b64736f6c634300081a0033",
					"opcodes": "PUSH1 0x80 PUSH1 0x40 MSTORE CALLVALUE DUP1 ISZERO PUSH1 0xE JUMPI PUSH0 DUP1 REVERT JUMPDEST POP PUSH2 0xF36 DUP1 PUSH2 0x1C PUSH0 CODECOPY PUSH0 RETURN INVALID PUSH1 0x80 PUSH1 0x40 MSTORE PUSH1 0x4 CALLDATASIZE LT PUSH2 0x49 JUMPI PUSH0 CALLDATALOAD PUSH1 0xE0 SHR DUP1 PUSH4 0x12065FE0 EQ PUSH2 0x4D JUMPI DUP1 PUSH4 0x298DAF5B EQ PUSH2 0x77 JUMPI DUP1 PUSH4 0x56B8C724 EQ PUSH2 0x9F JUMPI DUP1 PUSH4 0xD0E30DB0 EQ PUSH2 0xC7 JUMPI DUP1 PUSH4 0xDC048CF2 EQ PUSH2 0xD1 JUMPI JUMPDEST PUSH0 DUP1 REVERT JUMPDEST CALLVALUE DUP1 ISZERO PUSH2 0x58 JUMPI PUSH0 DUP1 REVERT JUMPDEST POP PUSH2 0x61 PUSH2 0xF9 JUMP JUMPDEST PUSH1 0x40 MLOAD PUSH2 0x6E SWAP2 SWAP1 PUSH2 0x8F6 JUMP JUMPDEST PUSH1 0x40 MLOAD DUP1 SWAP2 SUB SWAP1 RETURN JUMPDEST CALLVALUE DUP1 ISZERO PUSH2 0x82 JUMPI PUSH0 DUP1 REVERT JUMPDEST POP PUSH2 0x9D PUSH1 0x4 DUP1 CALLDATASIZE SUB DUP2 ADD SWAP1 PUSH2 0x98 SWAP2 SWAP1 PUSH2 0xA5C JUMP JUMPDEST PUSH2 0x1C3 JUMP JUMPDEST STOP JUMPDEST CALLVALUE DUP1 ISZERO PUSH2 0xAA JUMPI PUSH0 DUP1 REVERT JUMPDEST POP PUSH2 0xC5 PUSH1 0x4 DUP1 CALLDATASIZE SUB DUP2 ADD SWAP1 PUSH2 0xC0 SWAP2 SWAP1 PUSH2 0xB27 JUMP JUMPDEST PUSH2 0x2D5 JUMP JUMPDEST STOP JUMPDEST PUSH2 0xCF PUSH2 0x5B6 JUMP JUMPDEST STOP JUMPDEST CALLVALUE DUP1 ISZERO PUSH2 0xDC JUMPI PUSH0 DUP1 REVERT JUMPDEST POP PUSH2 0xF7 PUSH1 0x4 DUP1 CALLDATASIZE SUB DUP2 ADD SWAP1 PUSH2 0xF2 SWAP2 SWAP1 PUSH2 0xB93 JUMP JUMPDEST PUSH2 0x691 JUMP JUMPDEST STOP JUMPDEST PUSH0 CALLER PUSH0 DUP1 SHL PUSH0 DUP1 DUP4 PUSH20 0xFFFFFFFFFFFFFFFFFFFFFFFFFFFFFFFFFFFFFFFF AND PUSH20 0xFFFFFFFFFFFFFFFFFFFFFFFFFFFFFFFFFFFFFFFF AND DUP2 MSTORE PUSH1 0x20 ADD SWAP1 DUP2 MSTORE PUSH1 0x20 ADD PUSH0 KECCAK256 PUSH1 0x1 ADD SLOAD SUB PUSH2 0x17E JUMPI PUSH1 0x40 MLOAD PUSH32 0x8C379A000000000000000000000000000000000000000000000000000000000 DUP2 MSTORE PUSH1 0x4 ADD PUSH2 0x175 SWAP1 PUSH2 0xC47 JUMP JUMPDEST PUSH1 0x40 MLOAD DUP1 SWAP2 SUB SWAP1 REVERT JUMPDEST PUSH0 DUP1 CALLER PUSH20 0xFFFFFFFFFFFFFFFFFFFFFFFFFFFFFFFFFFFFFFFF AND PUSH20 0xFFFFFFFFFFFFFFFFFFFFFFFFFFFFFFFFFFFFFFFF AND DUP2 MSTORE PUSH1 0x20 ADD SWAP1 DUP2 MSTORE PUSH1 0x20 ADD PUSH0 KECCAK256 PUSH0 ADD SLOAD SWAP2 POP POP SWAP1 JUMP JUMPDEST PUSH0 DUP1 SHL PUSH0 DUP1 CALLER PUSH20 0xFFFFFFFFFFFFFFFFFFFFFFFFFFFFFFFFFFFFFFFF AND PUSH20 0xFFFFFFFFFFFFFFFFFFFFFFFFFFFFFFFFFFFFFFFF AND DUP2 MSTORE PUSH1 0x20 ADD SWAP1 DUP2 MSTORE PUSH1 0x20 ADD PUSH0 KECCAK256 PUSH1 0x1 ADD SLOAD EQ PUSH2 0x246 JUMPI PUSH1 0x40 MLOAD PUSH32 0x8C379A000000000000000000000000000000000000000000000000000000000 DUP2 MSTORE PUSH1 0x4 ADD PUSH2 0x23D SWAP1 PUSH2 0xCAF JUMP JUMPDEST PUSH1 0x40 MLOAD DUP1 SWAP2 SUB SWAP1 REVERT JUMPDEST PUSH1 0x40 MLOAD DUP1 PUSH1 0x40 ADD PUSH1 0x40 MSTORE DUP1 PUSH0 DUP2 MSTORE PUSH1 0x20 ADD DUP3 PUSH1 0x40 MLOAD PUSH1 0x20 ADD PUSH2 0x268 SWAP2 SWAP1 PUSH2 0xD1F JUMP JUMPDEST PUSH1 0x40 MLOAD PUSH1 0x20 DUP2 DUP4 SUB SUB DUP2 MSTORE SWAP1 PUSH1 0x40 MSTORE DUP1 MLOAD SWAP1 PUSH1 0x20 ADD KECCAK256 DUP2 MSTORE POP PUSH0 DUP1 CALLER PUSH20 0xFFFFFFFFFFFFFFFFFFFFFFFFFFFFFFFFFFFFFFFF AND PUSH20 0xFFFFFFFFFFFFFFFFFFFFFFFFFFFFFFFFFFFFFFFF AND DUP2 MSTORE PUSH1 0x20 ADD SWAP1 DUP2 MSTORE PUSH1 0x20 ADD PUSH0 KECCAK256 PUSH0 DUP3 ADD MLOAD DUP2 PUSH0 ADD SSTORE PUSH1 0x20 DUP3 ADD MLOAD DUP2 PUSH1 0x1 ADD SSTORE SWAP1 POP POP POP JUMP JUMPDEST CALLER PUSH0 DUP1 SHL PUSH0 DUP1 DUP4 PUSH20 0xFFFFFFFFFFFFFFFFFFFFFFFFFFFFFFFFFFFFFFFF AND PUSH20 0xFFFFFFFFFFFFFFFFFFFFFFFFFFFFFFFFFFFFFFFF AND DUP2 MSTORE PUSH1 0x20 ADD SWAP1 DUP2 MSTORE PUSH1 0x20 ADD PUSH0 KECCAK256 PUSH1 0x1 ADD SLOAD SUB PUSH2 0x359 JUMPI PUSH1 0x40 MLOAD PUSH32 0x8C379A000000000000000000000000000000000000000000000000000000000 DUP2 MSTORE PUSH1 0x4 ADD PUSH2 0x350 SWAP1 PUSH2 0xC47 JUMP JUMPDEST PUSH1 0x40 MLOAD DUP1 SWAP2 SUB SWAP1 REVERT JUMPDEST CALLER DUP3 DUP1 PUSH1 0x40 MLOAD PUSH1 0x20 ADD PUSH2 0x36C SWAP2 SWAP1 PUSH2 0xD1F JUMP JUMPDEST PUSH1 0x40 MLOAD PUSH1 0x20 DUP2 DUP4 SUB SUB DUP2 MSTORE SWAP1 PUSH1 0x40 MSTORE DUP1 MLOAD SWAP1 PUSH1 0x20 ADD KECCAK256 PUSH0 DUP1 DUP5 PUSH20 0xFFFFFFFFFFFFFFFFFFFFFFFFFFFFFFFFFFFFFFFF AND PUSH20 0xFFFFFFFFFFFFFFFFFFFFFFFFFFFFFFFFFFFFFFFF AND DUP2 MSTORE PUSH1 0x20 ADD SWAP1 DUP2 MSTORE PUSH1 0x20 ADD PUSH0 KECCAK256 PUSH1 0x1 ADD SLOAD EQ PUSH2 0x402 JUMPI PUSH1 0x40 MLOAD PUSH32 0x8C379A000000000000000000000000000000000000000000000000000000000 DUP2 MSTORE PUSH1 0x4 ADD PUSH2 0x3F9 SWAP1 PUSH2 0xD7F JUMP JUMPDEST PUSH1 0x40 MLOAD DUP1 SWAP2 SUB SWAP1 REVERT JUMPDEST PUSH0 DUP1 SHL PUSH0 DUP1 DUP9 PUSH20 0xFFFFFFFFFFFFFFFFFFFFFFFFFFFFFFFFFFFFFFFF AND PUSH20 0xFFFFFFFFFFFFFFFFFFFFFFFFFFFFFFFFFFFFFFFF AND DUP2 MSTORE PUSH1 0x20 ADD SWAP1 DUP2 MSTORE PUSH1 0x20 ADD PUSH0 KECCAK256 PUSH1 0x1 ADD SLOAD SUB PUSH2 0x485 JUMPI PUSH1 0x40 MLOAD PUSH32 0x8C379A000000000000000000000000000000000000000000000000000000000 DUP2 MSTORE PUSH1 0x4 ADD PUSH2 0x47C SWAP1 PUSH2 0xDE7 JUMP JUMPDEST PUSH1 0x40 MLOAD DUP1 SWAP2 SUB SWAP1 REVERT JUMPDEST DUP5 PUSH0 DUP1 CALLER PUSH20 0xFFFFFFFFFFFFFFFFFFFFFFFFFFFFFFFFFFFFFFFF AND PUSH20 0xFFFFFFFFFFFFFFFFFFFFFFFFFFFFFFFFFFFFFFFF AND DUP2 MSTORE PUSH1 0x20 ADD SWAP1 DUP2 MSTORE PUSH1 0x20 ADD PUSH0 KECCAK256 PUSH0 ADD SLOAD LT ISZERO PUSH2 0x506 JUMPI PUSH1 0x40 MLOAD PUSH32 0x8C379A000000000000000000000000000000000000000000000000000000000 DUP2 MSTORE PUSH1 0x4 ADD PUSH2 0x4FD SWAP1 PUSH2 0xE4F JUMP JUMPDEST PUSH1 0x40 MLOAD DUP1 SWAP2 SUB SWAP1 REVERT JUMPDEST DUP5 PUSH0 DUP1 CALLER PUSH20 0xFFFFFFFFFFFFFFFFFFFFFFFFFFFFFFFFFFFFFFFF AND PUSH20 0xFFFFFFFFFFFFFFFFFFFFFFFFFFFFFFFFFFFFFFFF AND DUP2 MSTORE PUSH1 0x20 ADD SWAP1 DUP2 MSTORE PUSH1 0x20 ADD PUSH0 KECCAK256 PUSH0 ADD PUSH0 DUP3 DUP3 SLOAD PUSH2 0x553 SWAP2 SWAP1 PUSH2 0xE9A JUMP JUMPDEST SWAP3 POP POP DUP2 SWAP1 SSTORE POP DUP5 PUSH0 DUP1 DUP9 PUSH20 0xFFFFFFFFFFFFFFFFFFFFFFFFFFFFFFFFFFFFFFFF AND PUSH20 0xFFFFFFFFFFFFFFFFFFFFFFFFFFFFFFFFFFFFFFFF AND DUP2 MSTORE PUSH1 0x20 ADD SWAP1 DUP2 MSTORE PUSH1 0x20 ADD PUSH0 KECCAK256 PUSH0 ADD PUSH0 DUP3 DUP3 SLOAD PUSH2 0x5A7 SWAP2 SWAP1 PUSH2 0xECD JUMP JUMPDEST SWAP3 POP POP DUP2 SWAP1 SSTORE POP POP POP POP POP POP POP JUMP JUMPDEST CALLER PUSH0 DUP1 SHL PUSH0 DUP1 DUP4 PUSH20 0xFFFFFFFFFFFFFFFFFFFFFFFFFFFFFFFFFFFFFFFF AND PUSH20 0xFFFFFFFFFFFFFFFFFFFFFFFFFFFFFFFFFFFFFFFF AND DUP2 MSTORE PUSH1 0x20 ADD SWAP1 DUP2 MSTORE PUSH1 0x20 ADD PUSH0 KECCAK256 PUSH1 0x1 ADD SLOAD SUB PUSH2 0x63A JUMPI PUSH1 0x40 MLOAD PUSH32 0x8C379A000000000000000000000000000000000000000000000000000000000 DUP2 MSTORE PUSH1 0x4 ADD PUSH2 0x631 SWAP1 PUSH2 0xC47 JUMP JUMPDEST PUSH1 0x40 MLOAD DUP1 SWAP2 SUB SWAP1 REVERT JUMPDEST CALLVALUE PUSH0 DUP1 CALLER PUSH20 0xFFFFFFFFFFFFFFFFFFFFFFFFFFFFFFFFFFFFFFFF AND PUSH20 0xFFFFFFFFFFFFFFFFFFFFFFFFFFFFFFFFFFFFFFFF AND DUP2 MSTORE PUSH1 0x20 ADD SWAP1 DUP2 MSTORE PUSH1 0x20 ADD PUSH0 KECCAK256 PUSH0 ADD PUSH0 DUP3 DUP3 SLOAD PUSH2 0x687 SWAP2 SWAP1 PUSH2 0xECD JUMP JUMPDEST SWAP3 POP POP DUP2 SWAP1 SSTORE POP POP JUMP JUMPDEST CALLER PUSH0 DUP1 SHL PUSH0 DUP1 DUP4 PUSH20 0xFFFFFFFFFFFFFFFFFFFFFFFFFFFFFFFFFFFFFFFF AND PUSH20 0xFFFFFFFFFFFFFFFFFFFFFFFFFFFFFFFFFFFFFFFF AND DUP2 MSTORE PUSH1 0x20 ADD SWAP1 DUP2 MSTORE PUSH1 0x20 ADD PUSH0 KECCAK256 PUSH1 0x1 ADD SLOAD SUB PUSH2 0x715 JUMPI PUSH1 0x40 MLOAD PUSH32 0x8C379A000000000000000000000000000000000000000000000000000000000 DUP2 MSTORE PUSH1 0x4 ADD PUSH2 0x70C SWAP1 PUSH2 0xC47 JUMP JUMPDEST PUSH1 0x40 MLOAD DUP1 SWAP2 SUB SWAP1 REVERT JUMPDEST CALLER DUP3 DUP1 PUSH1 0x40 MLOAD PUSH1 0x20 ADD PUSH2 0x728 SWAP2 SWAP1 PUSH2 0xD1F JUMP JUMPDEST PUSH1 0x40 MLOAD PUSH1 0x20 DUP2 DUP4 SUB SUB DUP2 MSTORE SWAP1 PUSH1 0x40 MSTORE DUP1 MLOAD SWAP1 PUSH1 0x20 ADD KECCAK256 PUSH0 DUP1 DUP5 PUSH20 0xFFFFFFFFFFFFFFFFFFFFFFFFFFFFFFFFFFFFFFFF AND PUSH20 0xFFFFFFFFFFFFFFFFFFFFFFFFFFFFFFFFFFFFFFFF AND DUP2 MSTORE PUSH1 0x20 ADD SWAP1 DUP2 MSTORE PUSH1 0x20 ADD PUSH0 KECCAK256 PUSH1 0x1 ADD SLOAD EQ PUSH2 0x7BE JUMPI PUSH1 0x40 MLOAD PUSH32 0x8C379A000000000000000000000000000000000000000000000000000000000 DUP2 MSTORE PUSH1 0x4 ADD PUSH2 0x7B5 SWAP1 PUSH2 0xD7F JUMP JUMPDEST PUSH1 0x40 MLOAD DUP1 SWAP2 SUB SWAP1 REVERT JUMPDEST DUP5 PUSH0 DUP1 CALLER PUSH20 0xFFFFFFFFFFFFFFFFFFFFFFFFFFFFFFFFFFFFFFFF AND PUSH20 0xFFFFFFFFFFFFFFFFFFFFFFFFFFFFFFFFFFFFFFFF AND DUP2 MSTORE PUSH1 0x20 ADD SWAP1 DUP2 MSTORE PUSH1 0x20 ADD PUSH0 KECCAK256 PUSH0 ADD SLOAD LT ISZERO PUSH2 0x83F JUMPI PUSH1 0x40 MLOAD PUSH32 0x8C379A000000000000000000000000000000000000000000000000000000000 DUP2 MSTORE PUSH1 0x4 ADD PUSH2 0x836 SWAP1 PUSH2 0xE4F JUMP JUMPDEST PUSH1 0x40 MLOAD DUP1 SWAP2 SUB SWAP1 REVERT JUMPDEST DUP5 PUSH0 DUP1 CALLER PUSH20 0xFFFFFFFFFFFFFFFFFFFFFFFFFFFFFFFFFFFFFFFF AND PUSH20 0xFFFFFFFFFFFFFFFFFFFFFFFFFFFFFFFFFFFFFFFF AND DUP2 MSTORE PUSH1 0x20 ADD SWAP1 DUP2 MSTORE PUSH1 0x20 ADD PUSH0 KECCAK256 PUSH0 ADD PUSH0 DUP3 DUP3 SLOAD PUSH2 0x88C SWAP2 SWAP1 PUSH2 0xE9A JUMP JUMPDEST SWAP3 POP POP DUP2 SWAP1 SSTORE POP CALLER PUSH20 0xFFFFFFFFFFFFFFFFFFFFFFFFFFFFFFFFFFFFFFFF AND PUSH2 0x8FC DUP7 SWAP1 DUP2 ISZERO MUL SWAP1 PUSH1 0x40 MLOAD PUSH0 PUSH1 0x40 MLOAD DUP1 DUP4 SUB DUP2 DUP6 DUP9 DUP9 CALL SWAP4 POP POP POP POP ISZERO DUP1 ISZERO PUSH2 0x8D6 JUMPI RETURNDATASIZE PUSH0 DUP1 RETURNDATACOPY RETURNDATASIZE PUSH0 REVERT JUMPDEST POP POP POP POP POP POP JUMP JUMPDEST PUSH0 DUP2 SWAP1 POP SWAP2 SWAP1 POP JUMP JUMPDEST PUSH2 0x8F0 DUP2 PUSH2 0x8DE JUMP JUMPDEST DUP3 MSTORE POP POP JUMP JUMPDEST PUSH0 PUSH1 0x20 DUP3 ADD SWAP1 POP PUSH2 0x909 PUSH0 DUP4 ADD DUP5 PUSH2 0x8E7 JUMP JUMPDEST SWAP3 SWAP2 POP POP JUMP JUMPDEST PUSH0 PUSH1 0x40 MLOAD SWAP1 POP SWAP1 JUMP JUMPDEST PUSH0 DUP1 REVERT JUMPDEST PUSH0 DUP1 REVERT JUMPDEST PUSH0 DUP1 REVERT JUMPDEST PUSH0 DUP1 REVERT JUMPDEST PUSH0 PUSH1 0x1F NOT PUSH1 0x1F DUP4 ADD AND SWAP1 POP SWAP2 SWAP1 POP JUMP JUMPDEST PUSH32 0x4E487B7100000000000000000000000000000000000000000000000000000000 PUSH0 MSTORE PUSH1 0x41 PUSH1 0x4 MSTORE PUSH1 0x24 PUSH0 REVERT JUMPDEST PUSH2 0x96E DUP3 PUSH2 0x928 JUMP JUMPDEST DUP2 ADD DUP2 DUP2 LT PUSH8 0xFFFFFFFFFFFFFFFF DUP3 GT OR ISZERO PUSH2 0x98D JUMPI PUSH2 0x98C PUSH2 0x938 JUMP JUMPDEST JUMPDEST DUP1 PUSH1 0x40 MSTORE POP POP POP JUMP JUMPDEST PUSH0 PUSH2 0x99F PUSH2 0x90F JUMP JUMPDEST SWAP1 POP PUSH2 0x9AB DUP3 DUP3 PUSH2 0x965 JUMP JUMPDEST SWAP2 SWAP1 POP JUMP JUMPDEST PUSH0 PUSH8 0xFFFFFFFFFFFFFFFF DUP3 GT ISZERO PUSH2 0x9CA JUMPI PUSH2 0x9C9 PUSH2 0x938 JUMP JUMPDEST JUMPDEST PUSH2 0x9D3 DUP3 PUSH2 0x928 JUMP JUMPDEST SWAP1 POP PUSH1 0x20 DUP2 ADD SWAP1 POP SWAP2 SWAP1 POP JUMP JUMPDEST DUP3 DUP2 DUP4 CALLDATACOPY PUSH0 DUP4 DUP4 ADD MSTORE POP POP POP JUMP JUMPDEST PUSH0 PUSH2 0xA00 PUSH2 0x9FB DUP5 PUSH2 0x9B0 JUMP JUMPDEST PUSH2 0x996 JUMP JUMPDEST SWAP1 POP DUP3 DUP2 MSTORE PUSH1 0x20 DUP2 ADD DUP5 DUP5 DUP5 ADD GT ISZERO PUSH2 0xA1C JUMPI PUSH2 0xA1B PUSH2 0x924 JUMP JUMPDEST JUMPDEST PUSH2 0xA27 DUP5 DUP3 DUP6 PUSH2 0x9E0 JUMP JUMPDEST POP SWAP4 SWAP3 POP POP POP JUMP JUMPDEST PUSH0 DUP3 PUSH1 0x1F DUP4 ADD SLT PUSH2 0xA43 JUMPI PUSH2 0xA42 PUSH2 0x920 JUMP JUMPDEST JUMPDEST DUP2 CALLDATALOAD PUSH2 0xA53 DUP5 DUP3 PUSH1 0x20 DUP7 ADD PUSH2 0x9EE JUMP JUMPDEST SWAP2 POP POP SWAP3 SWAP2 POP POP JUMP JUMPDEST PUSH0 PUSH1 0x20 DUP3 DUP5 SUB SLT ISZERO PUSH2 0xA71 JUMPI PUSH2 0xA70 PUSH2 0x918 JUMP JUMPDEST JUMPDEST PUSH0 DUP3 ADD CALLDATALOAD PUSH8 0xFFFFFFFFFFFFFFFF DUP2 GT ISZERO PUSH2 0xA8E JUMPI PUSH2 0xA8D PUSH2 0x91C JUMP JUMPDEST JUMPDEST PUSH2 0xA9A DUP5 DUP3 DUP6 ADD PUSH2 0xA2F JUMP JUMPDEST SWAP2 POP POP SWAP3 SWAP2 POP POP JUMP JUMPDEST PUSH0 PUSH20 0xFFFFFFFFFFFFFFFFFFFFFFFFFFFFFFFFFFFFFFFF DUP3 AND SWAP1 POP SWAP2 SWAP1 POP JUMP JUMPDEST PUSH0 PUSH2 0xACC DUP3 PUSH2 0xAA3 JUMP JUMPDEST SWAP1 POP SWAP2 SWAP1 POP JUMP JUMPDEST PUSH2 0xADC DUP2 PUSH2 0xAC2 JUMP JUMPDEST DUP2 EQ PUSH2 0xAE6 JUMPI PUSH0 DUP1 REVERT JUMPDEST POP JUMP JUMPDEST PUSH0 DUP2 CALLDATALOAD SWAP1 POP PUSH2 0xAF7 DUP2 PUSH2 0xAD3 JUMP JUMPDEST SWAP3 SWAP2 POP POP JUMP JUMPDEST PUSH2 0xB06 DUP2 PUSH2 0x8DE JUMP JUMPDEST DUP2 EQ PUSH2 0xB10 JUMPI PUSH0 DUP1 REVERT JUMPDEST POP JUMP JUMPDEST PUSH0 DUP2 CALLDATALOAD SWAP1 POP PUSH2 0xB21 DUP2 PUSH2 0xAFD JUMP JUMPDEST SWAP3 SWAP2 POP POP JUMP JUMPDEST PUSH0 DUP1 PUSH0 PUSH1 0x60 DUP5 DUP7 SUB SLT ISZERO PUSH2 0xB3E JUMPI PUSH2 0xB3D PUSH2 0x918 JUMP JUMPDEST JUMPDEST PUSH0 PUSH2 0xB4B DUP7 DUP3 DUP8 ADD PUSH2 0xAE9 JUMP JUMPDEST SWAP4 POP POP PUSH1 0x20 PUSH2 0xB5C DUP7 DUP3 DUP8 ADD PUSH2 0xB13 JUMP JUMPDEST SWAP3 POP POP PUSH1 0x40 DUP5 ADD CALLDATALOAD PUSH8 0xFFFFFFFFFFFFFFFF DUP2 GT ISZERO PUSH2 0xB7D JUMPI PUSH2 0xB7C PUSH2 0x91C JUMP JUMPDEST JUMPDEST PUSH2 0xB89 DUP7 DUP3 DUP8 ADD PUSH2 0xA2F JUMP JUMPDEST SWAP2 POP POP SWAP3 POP SWAP3 POP SWAP3 JUMP JUMPDEST PUSH0 DUP1 PUSH1 0x40 DUP4 DUP6 SUB SLT ISZERO PUSH2 0xBA9 JUMPI PUSH2 0xBA8 PUSH2 0x918 JUMP JUMPDEST JUMPDEST PUSH0 PUSH2 0xBB6 DUP6 DUP3 DUP7 ADD PUSH2 0xB13 JUMP JUMPDEST SWAP3 POP POP PUSH1 0x20 DUP4 ADD CALLDATALOAD PUSH8 0xFFFFFFFFFFFFFFFF DUP2 GT ISZERO PUSH2 0xBD7 JUMPI PUSH2 0xBD6 PUSH2 0x91C JUMP JUMPDEST JUMPDEST PUSH2 0xBE3 DUP6 DUP3 DUP7 ADD PUSH2 0xA2F JUMP JUMPDEST SWAP2 POP POP SWAP3 POP SWAP3 SWAP1 POP JUMP JUMPDEST PUSH0 DUP3 DUP3 MSTORE PUSH1 0x20 DUP3 ADD SWAP1 POP SWAP3 SWAP2 POP POP JUMP JUMPDEST PUSH32 0x436F6E7461206E616F2065786973746500000000000000000000000000000000 PUSH0 DUP3 ADD MSTORE POP JUMP JUMPDEST PUSH0 PUSH2 0xC31 PUSH1 0x10 DUP4 PUSH2 0xBED JUMP JUMPDEST SWAP2 POP PUSH2 0xC3C DUP3 PUSH2 0xBFD JUMP JUMPDEST PUSH1 0x20 DUP3 ADD SWAP1 POP SWAP2 SWAP1 POP JUMP JUMPDEST PUSH0 PUSH1 0x20 DUP3 ADD SWAP1 POP DUP2 DUP2 SUB PUSH0 DUP4 ADD MSTORE PUSH2 0xC5E DUP2 PUSH2 0xC25 JUMP JUMPDEST SWAP1 POP SWAP2 SWAP1 POP JUMP JUMPDEST PUSH32 0x436F6E7461206A61206578697374650000000000000000000000000000000000 PUSH0 DUP3 ADD MSTORE POP JUMP JUMPDEST PUSH0 PUSH2 0xC99 PUSH1 0xF DUP4 PUSH2 0xBED JUMP JUMPDEST SWAP2 POP PUSH2 0xCA4 DUP3 PUSH2 0xC65 JUMP JUMPDEST PUSH1 0x20 DUP3 ADD SWAP1 POP SWAP2 SWAP1 POP JUMP JUMPDEST PUSH0 PUSH1 0x20 DUP3 ADD SWAP1 POP DUP2 DUP2 SUB PUSH0 DUP4 ADD MSTORE PUSH2 0xCC6 DUP2 PUSH2 0xC8D JUMP JUMPDEST SWAP1 POP SWAP2 SWAP1 POP JUMP JUMPDEST PUSH0 DUP2 MLOAD SWAP1 POP SWAP2 SWAP1 POP JUMP JUMPDEST PUSH0 DUP2 SWAP1 POP SWAP3 SWAP2 POP POP JUMP JUMPDEST DUP3 DUP2 DUP4 MCOPY PUSH0 DUP4 DUP4 ADD MSTORE POP POP POP JUMP JUMPDEST PUSH0 PUSH2 0xCF9 DUP3 PUSH2 0xCCD JUMP JUMPDEST PUSH2 0xD03 DUP2 DUP6 PUSH2 0xCD7 JUMP JUMPDEST SWAP4 POP PUSH2 0xD13 DUP2 DUP6 PUSH1 0x20 DUP7 ADD PUSH2 0xCE1 JUMP JUMPDEST DUP1 DUP5 ADD SWAP2 POP POP SWAP3 SWAP2 POP POP JUMP JUMPDEST PUSH0 PUSH2 0xD2A DUP3 DUP5 PUSH2 0xCEF JUMP JUMPDEST SWAP2 POP DUP2 SWAP1 POP SWAP3 SWAP2 POP POP JUMP JUMPDEST PUSH32 0x53656E686120696E636F72726574610000000000000000000000000000000000 PUSH0 DUP3 ADD MSTORE POP JUMP JUMPDEST PUSH0 PUSH2 0xD69 PUSH1 0xF DUP4 PUSH2 0xBED JUMP JUMPDEST SWAP2 POP PUSH2 0xD74 DUP3 PUSH2 0xD35 JUMP JUMPDEST PUSH1 0x20 DUP3 ADD SWAP1 POP SWAP2 SWAP1 POP JUMP JUMPDEST PUSH0 PUSH1 0x20 DUP3 ADD SWAP1 POP DUP2 DUP2 SUB PUSH0 DUP4 ADD MSTORE PUSH2 0xD96 DUP2 PUSH2 0xD5D JUMP JUMPDEST SWAP1 POP SWAP2 SWAP1 POP JUMP JUMPDEST PUSH32 0x436F6E74612064652064657374696E6F206E616F206578697374650000000000 PUSH0 DUP3 ADD MSTORE POP JUMP JUMPDEST PUSH0 PUSH2 0xDD1 PUSH1 0x1B DUP4 PUSH2 0xBED JUMP JUMPDEST SWAP2 POP PUSH2 0xDDC DUP3 PUSH2 0xD9D JUMP JUMPDEST PUSH1 0x20 DUP3 ADD SWAP1 POP SWAP2 SWAP1 POP JUMP JUMPDEST PUSH0 PUSH1 0x20 DUP3 ADD SWAP1 POP DUP2 DUP2 SUB PUSH0 DUP4 ADD MSTORE PUSH2 0xDFE DUP2 PUSH2 0xDC5 JUMP JUMPDEST SWAP1 POP SWAP2 SWAP1 POP JUMP JUMPDEST PUSH32 0x53616C646F20696E737566696369656E74650000000000000000000000000000 PUSH0 DUP3 ADD MSTORE POP JUMP JUMPDEST PUSH0 PUSH2 0xE39 PUSH1 0x12 DUP4 PUSH2 0xBED JUMP JUMPDEST SWAP2 POP PUSH2 0xE44 DUP3 PUSH2 0xE05 JUMP JUMPDEST PUSH1 0x20 DUP3 ADD SWAP1 POP SWAP2 SWAP1 POP JUMP JUMPDEST PUSH0 PUSH1 0x20 DUP3 ADD SWAP1 POP DUP2 DUP2 SUB PUSH0 DUP4 ADD MSTORE PUSH2 0xE66 DUP2 PUSH2 0xE2D JUMP JUMPDEST SWAP1 POP SWAP2 SWAP1 POP JUMP JUMPDEST PUSH32 0x4E487B7100000000000000000000000000000000000000000000000000000000 PUSH0 MSTORE PUSH1 0x11 PUSH1 0x4 MSTORE PUSH1 0x24 PUSH0 REVERT JUMPDEST PUSH0 PUSH2 0xEA4 DUP3 PUSH2 0x8DE JUMP JUMPDEST SWAP2 POP PUSH2 0xEAF DUP4 PUSH2 0x8DE JUMP JUMPDEST SWAP3 POP DUP3 DUP3 SUB SWAP1 POP DUP2 DUP2 GT ISZERO PUSH2 0xEC7 JUMPI PUSH2 0xEC6 PUSH2 0xE6D JUMP JUMPDEST JUMPDEST SWAP3 SWAP2 POP POP JUMP JUMPDEST PUSH0 PUSH2 0xED7 DUP3 PUSH2 0x8DE JUMP JUMPDEST SWAP2 POP PUSH2 0xEE2 DUP4 PUSH2 0x8DE JUMP JUMPDEST SWAP3 POP DUP3 DUP3 ADD SWAP1 POP DUP1 DUP3 GT ISZERO PUSH2 0xEFA JUMPI PUSH2 0xEF9 PUSH2 0xE6D JUMP JUMPDEST JUMPDEST SWAP3 SWAP2 POP POP JUMP INVALID LOG2 PUSH5 0x6970667358 0x22 SLT KECCAK256 LOG3 PUSH9 0x106FF81A884F44A647 SSTORE 0xCB 0xC3 CODESIZE STOP PUSH30 0x9B8DE68FF7DB3F9F6DEB198CC775B64736F6C634300081A003300000000 "
				},
				"gasEstimates": {
					"creation": {
						"codeDepositCost": "778800",
						"executionCost": "810",
						"totalCost": "779610"
					},
					"external": {
						"createAccount(string)": "infinite",
						"deposit()": "infinite",
						"getBalance()": "4728",
						"transfer(address,uint256,string)": "infinite",
						"withdraw(uint256,string)": "infinite"
					}
				},
				"methodIdentifiers": {
					"createAccount(string)": "298daf5b",
					"deposit()": "d0e30db0",
					"getBalance()": "12065fe0",
					"transfer(address,uint256,string)": "56b8c724",
					"withdraw(uint256,string)": "dc048cf2"
				}
			},
			"storageLayout": {
				"storage": [
					{
						"astId": 11,
						"contract": "Bank.sol:SimpleBank",
						"label": "accounts",
						"offset": 0,
						"slot": "0",
						"type": "t_mapping(t_address,t_struct(Account)6_storage)"
					}
				],
				"types": {
					"t_address": {
						"encoding": "inplace",
						"label": "address",
						"numberOfBytes": "20"
					},
					"t_bytes32": {
						"encoding": "inplace",
						"label": "bytes32",
						"numberOfBytes": "32"
					},
					"t_mapping(t_address,t_struct(Account)6_storage)": {
						"encoding": "mapping",
						"key": "t_address",
						"label": "mapping(address => struct SimpleBank.Account)",
						"numberOfBytes": "32",
						"value": "t_struct(Account)6_storage"
					},
					"t_struct(Account)6_storage": {
						"encoding": "inplace",
						"label": "struct SimpleBank.Account",
						"members": [
							{
								"astId": 3,
								"contract": "Bank.sol:SimpleBank",
								"label": "balance",
								"offset": 0,
								"slot": "0",
								"type": "t_uint256"
							},
							{
								"astId": 5,
								"contract": "Bank.sol:SimpleBank",
								"label": "passwordHash",
								"offset": 0,
								"slot": "1",
								"type": "t_bytes32"
							}
						],
						"numberOfBytes": "64"
					},
					"t_uint256": {
						"encoding": "inplace",
						"label": "uint256",
						"numberOfBytes": "32"
					}
				}
			},
			"userdoc": {
				"kind": "user",
				"methods": {},
				"version": 1
			}
		}
	}
}