{
	"VaultFinal.sol": {
		"PublicVault": {
			"abi": [
				{
					"inputs": [],
					"stateMutability": "nonpayable",
					"type": "constructor"
				},
				{
					"anonymous": false,
					"inputs": [
						{
							"indexed": true,
							"internalType": "address",
							"name": "depositor",
							"type": "address"
						},
						{
							"indexed": false,
							"internalType": "uint256",
							"name": "amount",
							"type": "uint256"
						}
					],
					"name": "DepositMade",
					"type": "event"
				},
				{
					"anonymous": false,
					"inputs": [
						{
							"indexed": true,
							"internalType": "address",
							"name": "owner",
							"type": "address"
						},
						{
							"indexed": false,
							"internalType": "uint256",
							"name": "amount",
							"type": "uint256"
						}
					],
					"name": "DepositReclaimed",
					"type": "event"
				},
				{
					"anonymous": false,
					"inputs": [
						{
							"indexed": true,
							"internalType": "address",
							"name": "withdrawer",
							"type": "address"
						},
						{
							"indexed": false,
							"internalType": "uint256",
							"name": "amount",
							"type": "uint256"
						}
					],
					"name": "Withdrawal",
					"type": "event"
				},
				{
					"inputs": [
						{
							"internalType": "bytes32",
							"name": "password",
							"type": "bytes32"
						}
					],
					"name": "deposit",
					"outputs": [],
					"stateMutability": "payable",
					"type": "function"
				},
				{
					"inputs": [],
					"name": "owner",
					"outputs": [
						{
							"internalType": "address",
							"name": "",
							"type": "address"
						}
					],
					"stateMutability": "view",
					"type": "function"
				},
				{
					"inputs": [],
					"name": "reclaimDeposit",
					"outputs": [],
					"stateMutability": "nonpayable",
					"type": "function"
				},
				{
					"inputs": [
						{
							"internalType": "bytes32",
							"name": "newPasswordHash",
							"type": "bytes32"
						}
					],
					"name": "resetPassword",
					"outputs": [],
					"stateMutability": "nonpayable",
					"type": "function"
				},
				{
					"inputs": [],
					"name": "showBalance",
					"outputs": [
						{
							"internalType": "uint256",
							"name": "",
							"type": "uint256"
						}
					],
					"stateMutability": "view",
					"type": "function"
				},
				{
					"inputs": [],
					"name": "showHashedPassword",
					"outputs": [
						{
							"internalType": "bytes32",
							"name": "",
							"type": "bytes32"
						}
					],
					"stateMutability": "view",
					"type": "function"
				},
				{
					"inputs": [
						{
							"internalType": "string",
							"name": "password",
							"type": "string"
						}
					],
					"name": "withdraw",
					"outputs": [],
					"stateMutability": "nonpayable",
					"type": "function"
				}
			],
			"devdoc": {
				"kind": "dev",
				"methods": {},
				"version": 1
			},
			"evm": {
				"assembly": "    /* \"VaultFinal.sol\":61:2010  contract PublicVault {... */\n  mstore(0x40, 0x80)\n    /* \"VaultFinal.sol\":740:791  constructor() {... */\n  callvalue\n  dup1\n  iszero\n  tag_1\n  jumpi\n  0x00\n  dup1\n  revert\ntag_1:\n  pop\n    /* \"VaultFinal.sol\":773:783  msg.sender */\n  caller\n    /* \"VaultFinal.sol\":765:770  owner */\n  0x01\n  0x00\n    /* \"VaultFinal.sol\":765:783  owner = msg.sender */\n  0x0100\n  exp\n  dup2\n  sload\n  dup2\n  0xffffffffffffffffffffffffffffffffffffffff\n  mul\n  not\n  and\n  swap1\n  dup4\n  0xffffffffffffffffffffffffffffffffffffffff\n  and\n  mul\n  or\n  swap1\n  sstore\n  pop\n    /* \"VaultFinal.sol\":61:2010  contract PublicVault {... */\n  dataSize(sub_0)\n  dup1\n  dataOffset(sub_0)\n  0x00\n  codecopy\n  0x00\n  return\nstop\n\nsub_0: assembly {\n        /* \"VaultFinal.sol\":61:2010  contract PublicVault {... */\n      mstore(0x40, 0x80)\n      jumpi(tag_1, lt(calldatasize, 0x04))\n      shr(0xe0, calldataload(0x00))\n      dup1\n      0x81b2d07b\n      gt\n      tag_9\n      jumpi\n      dup1\n      0x81b2d07b\n      eq\n      tag_5\n      jumpi\n      dup1\n      0x8da5cb5b\n      eq\n      tag_6\n      jumpi\n      dup1\n      0xb214faa5\n      eq\n      tag_7\n      jumpi\n      dup1\n      0xcaf6492e\n      eq\n      tag_8\n      jumpi\n      jump(tag_1)\n    tag_9:\n      dup1\n      0x1a42ba0c\n      eq\n      tag_2\n      jumpi\n      dup1\n      0x1f3ff68d\n      eq\n      tag_3\n      jumpi\n      dup1\n      0x31fb67c2\n      eq\n      tag_4\n      jumpi\n    tag_1:\n      0x00\n      dup1\n      revert\n        /* \"VaultFinal.sol\":1908:2007  function showHashedPassword() view external returns (bytes32){... */\n    tag_2:\n      callvalue\n      dup1\n      iszero\n      tag_10\n      jumpi\n      0x00\n      dup1\n      revert\n    tag_10:\n      pop\n      tag_11\n      tag_12\n      jump\t// in\n    tag_11:\n      mload(0x40)\n      tag_13\n      swap2\n      swap1\n      tag_14\n      jump\t// in\n    tag_13:\n      mload(0x40)\n      dup1\n      swap2\n      sub\n      swap1\n      return\n        /* \"VaultFinal.sol\":1537:1790  function reclaimDeposit() external depositExists() onlyOwner() {... */\n    tag_3:\n      callvalue\n      dup1\n      iszero\n      tag_15\n      jumpi\n      0x00\n      dup1\n      revert\n    tag_15:\n      pop\n      tag_16\n      tag_17\n      jump\t// in\n    tag_16:\n      stop\n        /* \"VaultFinal.sol\":1167:1529  function withdraw(string memory password) external depositExists() {... */\n    tag_4:\n      callvalue\n      dup1\n      iszero\n      tag_18\n      jumpi\n      0x00\n      dup1\n      revert\n    tag_18:\n      pop\n      tag_19\n      0x04\n      dup1\n      calldatasize\n      sub\n      dup2\n      add\n      swap1\n      tag_20\n      swap2\n      swap1\n      tag_21\n      jump\t// in\n    tag_20:\n      tag_22\n      jump\t// in\n    tag_19:\n      stop\n        /* \"VaultFinal.sol\":1798:1900  function showBalance() view external returns(uint256){... */\n    tag_5:\n      callvalue\n      dup1\n      iszero\n      tag_23\n      jumpi\n      0x00\n      dup1\n      revert\n    tag_23:\n      pop\n      tag_24\n      tag_25\n      jump\t// in\n    tag_24:\n      mload(0x40)\n      tag_26\n      swap2\n      swap1\n      tag_27\n      jump\t// in\n    tag_26:\n      mload(0x40)\n      dup1\n      swap2\n      sub\n      swap1\n      return\n        /* \"VaultFinal.sol\":118:138  address public owner */\n    tag_6:\n      callvalue\n      dup1\n      iszero\n      tag_28\n      jumpi\n      0x00\n      dup1\n      revert\n    tag_28:\n      pop\n      tag_29\n      tag_30\n      jump\t// in\n    tag_29:\n      mload(0x40)\n      tag_31\n      swap2\n      swap1\n      tag_32\n      jump\t// in\n    tag_31:\n      mload(0x40)\n      dup1\n      swap2\n      sub\n      swap1\n      return\n        /* \"VaultFinal.sol\":799:1035  function deposit(bytes32 password) external payable onlyOwner() {... */\n    tag_7:\n      tag_33\n      0x04\n      dup1\n      calldatasize\n      sub\n      dup2\n      add\n      swap1\n      tag_34\n      swap2\n      swap1\n      tag_35\n      jump\t// in\n    tag_34:\n      tag_36\n      jump\t// in\n    tag_33:\n      stop\n        /* \"VaultFinal.sol\":1043:1159  function resetPassword(bytes32 newPasswordHash) external onlyOwner {... */\n    tag_8:\n      callvalue\n      dup1\n      iszero\n      tag_37\n      jumpi\n      0x00\n      dup1\n      revert\n    tag_37:\n      pop\n      tag_38\n      0x04\n      dup1\n      calldatasize\n      sub\n      dup2\n      add\n      swap1\n      tag_39\n      swap2\n      swap1\n      tag_35\n      jump\t// in\n    tag_39:\n      tag_40\n      jump\t// in\n    tag_38:\n      stop\n        /* \"VaultFinal.sol\":1908:2007  function showHashedPassword() view external returns (bytes32){... */\n    tag_12:\n        /* \"VaultFinal.sol\":1961:1968  bytes32 */\n      0x00\n        /* \"VaultFinal.sol\":1987:1999  passwordHash */\n      dup1\n      sload\n        /* \"VaultFinal.sol\":1980:1999  return passwordHash */\n      swap1\n      pop\n        /* \"VaultFinal.sol\":1908:2007  function showHashedPassword() view external returns (bytes32){... */\n      swap1\n      jump\t// out\n        /* \"VaultFinal.sol\":1537:1790  function reclaimDeposit() external depositExists() onlyOwner() {... */\n    tag_17:\n        /* \"VaultFinal.sol\":687:688  0 */\n      0x00\n        /* \"VaultFinal.sol\":663:684  address(this).balance */\n      selfbalance\n        /* \"VaultFinal.sol\":663:688  address(this).balance > 0 */\n      gt\n        /* \"VaultFinal.sol\":655:712  require(address(this).balance > 0, \"Deposito nao existe\") */\n      tag_43\n      jumpi\n      mload(0x40)\n      0x08c379a000000000000000000000000000000000000000000000000000000000\n      dup2\n      mstore\n      0x04\n      add\n      tag_44\n      swap1\n      tag_45\n      jump\t// in\n    tag_44:\n      mload(0x40)\n      dup1\n      swap2\n      sub\n      swap1\n      revert\n    tag_43:\n        /* \"VaultFinal.sol\":491:496  owner */\n      0x01\n      0x00\n      swap1\n      sload\n      swap1\n      0x0100\n      exp\n      swap1\n      div\n      0xffffffffffffffffffffffffffffffffffffffff\n      and\n        /* \"VaultFinal.sol\":477:496  msg.sender == owner */\n      0xffffffffffffffffffffffffffffffffffffffff\n      and\n        /* \"VaultFinal.sol\":477:487  msg.sender */\n      caller\n        /* \"VaultFinal.sol\":477:496  msg.sender == owner */\n      0xffffffffffffffffffffffffffffffffffffffff\n      and\n      eq\n        /* \"VaultFinal.sol\":469:542  require(msg.sender == owner, \"Apenas o dono pode executar esta operacao\") */\n      tag_47\n      jumpi\n      mload(0x40)\n      0x08c379a000000000000000000000000000000000000000000000000000000000\n      dup2\n      mstore\n      0x04\n      add\n      tag_48\n      swap1\n      tag_49\n      jump\t// in\n    tag_48:\n      mload(0x40)\n      dup1\n      swap2\n      sub\n      swap1\n      revert\n    tag_47:\n        /* \"VaultFinal.sol\":1634:1635  0 */\n      0x00\n        /* \"VaultFinal.sol\":1626:1636  bytes32(0) */\n      dup1\n      shl\n        /* \"VaultFinal.sol\":1611:1623  passwordHash */\n      0x00\n        /* \"VaultFinal.sol\":1611:1636  passwordHash = bytes32(0) */\n      dup2\n      swap1\n      sstore\n      pop\n        /* \"VaultFinal.sol\":1647:1662  uint256 balance */\n      0x00\n        /* \"VaultFinal.sol\":1665:1686  address(this).balance */\n      selfbalance\n        /* \"VaultFinal.sol\":1647:1686  uint256 balance = address(this).balance */\n      swap1\n      pop\n        /* \"VaultFinal.sol\":1705:1710  owner */\n      0x01\n      0x00\n      swap1\n      sload\n      swap1\n      0x0100\n      exp\n      swap1\n      div\n      0xffffffffffffffffffffffffffffffffffffffff\n      and\n        /* \"VaultFinal.sol\":1697:1720  payable(owner).transfer */\n      0xffffffffffffffffffffffffffffffffffffffff\n      and\n        /* \"VaultFinal.sol\":1697:1729  payable(owner).transfer(balance) */\n      0x08fc\n        /* \"VaultFinal.sol\":1721:1728  balance */\n      dup3\n        /* \"VaultFinal.sol\":1697:1729  payable(owner).transfer(balance) */\n      swap1\n      dup2\n      iszero\n      mul\n      swap1\n      mload(0x40)\n      0x00\n      mload(0x40)\n      dup1\n      dup4\n      sub\n      dup2\n      dup6\n      dup9\n      dup9\n      call\n      swap4\n      pop\n      pop\n      pop\n      pop\n      iszero\n      dup1\n      iszero\n      tag_52\n      jumpi\n      returndatasize\n      0x00\n      dup1\n      returndatacopy\n      revert(0x00, returndatasize)\n    tag_52:\n      pop\n        /* \"VaultFinal.sol\":1762:1772  msg.sender */\n      caller\n        /* \"VaultFinal.sol\":1745:1782  DepositReclaimed(msg.sender, balance) */\n      0xffffffffffffffffffffffffffffffffffffffff\n      and\n      0x7be0cf12131690e539b6205edef2a3f931615e4273bc6310355344c5af30506b\n        /* \"VaultFinal.sol\":1774:1781  balance */\n      dup3\n        /* \"VaultFinal.sol\":1745:1782  DepositReclaimed(msg.sender, balance) */\n      mload(0x40)\n      tag_53\n      swap2\n      swap1\n      tag_27\n      jump\t// in\n    tag_53:\n      mload(0x40)\n      dup1\n      swap2\n      sub\n      swap1\n      log2\n        /* \"VaultFinal.sol\":1600:1790  {... */\n      pop\n        /* \"VaultFinal.sol\":1537:1790  function reclaimDeposit() external depositExists() onlyOwner() {... */\n      jump\t// out\n        /* \"VaultFinal.sol\":1167:1529  function withdraw(string memory password) external depositExists() {... */\n    tag_22:\n        /* \"VaultFinal.sol\":687:688  0 */\n      0x00\n        /* \"VaultFinal.sol\":663:684  address(this).balance */\n      selfbalance\n        /* \"VaultFinal.sol\":663:688  address(this).balance > 0 */\n      gt\n        /* \"VaultFinal.sol\":655:712  require(address(this).balance > 0, \"Deposito nao existe\") */\n      tag_55\n      jumpi\n      mload(0x40)\n      0x08c379a000000000000000000000000000000000000000000000000000000000\n      dup2\n      mstore\n      0x04\n      add\n      tag_56\n      swap1\n      tag_45\n      jump\t// in\n    tag_56:\n      mload(0x40)\n      dup1\n      swap2\n      sub\n      swap1\n      revert\n    tag_55:\n        /* \"VaultFinal.sol\":1296:1304  password */\n      dup1\n        /* \"VaultFinal.sol\":1279:1305  abi.encodePacked(password) */\n      add(0x20, mload(0x40))\n      tag_58\n      swap2\n      swap1\n      tag_59\n      jump\t// in\n    tag_58:\n      mload(0x40)\n      0x20\n      dup2\n      dup4\n      sub\n      sub\n      dup2\n      mstore\n      swap1\n      0x40\n      mstore\n        /* \"VaultFinal.sol\":1269:1306  keccak256(abi.encodePacked(password)) */\n      dup1\n      mload\n      swap1\n      0x20\n      add\n      keccak256\n        /* \"VaultFinal.sol\":1253:1265  passwordHash */\n      sload(0x00)\n        /* \"VaultFinal.sol\":1253:1306  passwordHash == keccak256(abi.encodePacked(password)) */\n      eq\n        /* \"VaultFinal.sol\":1245:1326  require(passwordHash == keccak256(abi.encodePacked(password)), \"Senha incorreta\") */\n      tag_60\n      jumpi\n      mload(0x40)\n      0x08c379a000000000000000000000000000000000000000000000000000000000\n      dup2\n      mstore\n      0x04\n      add\n      tag_61\n      swap1\n      tag_62\n      jump\t// in\n    tag_61:\n      mload(0x40)\n      dup1\n      swap2\n      sub\n      swap1\n      revert\n    tag_60:\n        /* \"VaultFinal.sol\":1360:1361  0 */\n      0x00\n        /* \"VaultFinal.sol\":1352:1362  bytes32(0) */\n      dup1\n      shl\n        /* \"VaultFinal.sol\":1337:1349  passwordHash */\n      0x00\n        /* \"VaultFinal.sol\":1337:1362  passwordHash = bytes32(0) */\n      dup2\n      swap1\n      sstore\n      pop\n        /* \"VaultFinal.sol\":1373:1388  uint256 balance */\n      0x00\n        /* \"VaultFinal.sol\":1391:1412  address(this).balance */\n      selfbalance\n        /* \"VaultFinal.sol\":1373:1412  uint256 balance = address(this).balance */\n      swap1\n      pop\n        /* \"VaultFinal.sol\":1431:1441  msg.sender */\n      caller\n        /* \"VaultFinal.sol\":1423:1451  payable(msg.sender).transfer */\n      0xffffffffffffffffffffffffffffffffffffffff\n      and\n        /* \"VaultFinal.sol\":1423:1474  payable(msg.sender).transfer(address(this).balance) */\n      0x08fc\n        /* \"VaultFinal.sol\":1452:1473  address(this).balance */\n      selfbalance\n        /* \"VaultFinal.sol\":1423:1474  payable(msg.sender).transfer(address(this).balance) */\n      swap1\n      dup2\n      iszero\n      mul\n      swap1\n      mload(0x40)\n      0x00\n      mload(0x40)\n      dup1\n      dup4\n      sub\n      dup2\n      dup6\n      dup9\n      dup9\n      call\n      swap4\n      pop\n      pop\n      pop\n      pop\n      iszero\n      dup1\n      iszero\n      tag_64\n      jumpi\n      returndatasize\n      0x00\n      dup1\n      returndatacopy\n      revert(0x00, returndatasize)\n    tag_64:\n      pop\n        /* \"VaultFinal.sol\":1501:1511  msg.sender */\n      caller\n        /* \"VaultFinal.sol\":1490:1521  Withdrawal(msg.sender, balance) */\n      0xffffffffffffffffffffffffffffffffffffffff\n      and\n      0x7fcf532c15f0a6db0bd6d0e038bea71d30d808c7d98cb3bf7268a95bf5081b65\n        /* \"VaultFinal.sol\":1513:1520  balance */\n      dup3\n        /* \"VaultFinal.sol\":1490:1521  Withdrawal(msg.sender, balance) */\n      mload(0x40)\n      tag_65\n      swap2\n      swap1\n      tag_27\n      jump\t// in\n    tag_65:\n      mload(0x40)\n      dup1\n      swap2\n      sub\n      swap1\n      log2\n        /* \"VaultFinal.sol\":1234:1529  {... */\n      pop\n        /* \"VaultFinal.sol\":1167:1529  function withdraw(string memory password) external depositExists() {... */\n      pop\n      jump\t// out\n        /* \"VaultFinal.sol\":1798:1900  function showBalance() view external returns(uint256){... */\n    tag_25:\n        /* \"VaultFinal.sol\":1843:1850  uint256 */\n      0x00\n        /* \"VaultFinal.sol\":1869:1890  address(this).balance */\n      selfbalance\n        /* \"VaultFinal.sol\":1862:1891  return(address(this).balance) */\n      swap1\n      pop\n        /* \"VaultFinal.sol\":1798:1900  function showBalance() view external returns(uint256){... */\n      swap1\n      jump\t// out\n        /* \"VaultFinal.sol\":118:138  address public owner */\n    tag_30:\n      0x01\n      0x00\n      swap1\n      sload\n      swap1\n      0x0100\n      exp\n      swap1\n      div\n      0xffffffffffffffffffffffffffffffffffffffff\n      and\n      dup2\n      jump\t// out\n        /* \"VaultFinal.sol\":799:1035  function deposit(bytes32 password) external payable onlyOwner() {... */\n    tag_36:\n        /* \"VaultFinal.sol\":491:496  owner */\n      0x01\n      0x00\n      swap1\n      sload\n      swap1\n      0x0100\n      exp\n      swap1\n      div\n      0xffffffffffffffffffffffffffffffffffffffff\n      and\n        /* \"VaultFinal.sol\":477:496  msg.sender == owner */\n      0xffffffffffffffffffffffffffffffffffffffff\n      and\n        /* \"VaultFinal.sol\":477:487  msg.sender */\n      caller\n        /* \"VaultFinal.sol\":477:496  msg.sender == owner */\n      0xffffffffffffffffffffffffffffffffffffffff\n      and\n      eq\n        /* \"VaultFinal.sol\":469:542  require(msg.sender == owner, \"Apenas o dono pode executar esta operacao\") */\n      tag_68\n      jumpi\n      mload(0x40)\n      0x08c379a000000000000000000000000000000000000000000000000000000000\n      dup2\n      mstore\n      0x04\n      add\n      tag_69\n      swap1\n      tag_49\n      jump\t// in\n    tag_69:\n      mload(0x40)\n      dup1\n      swap2\n      sub\n      swap1\n      revert\n    tag_68:\n        /* \"VaultFinal.sol\":894:895  0 */\n      0x00\n        /* \"VaultFinal.sol\":882:891  msg.value */\n      callvalue\n        /* \"VaultFinal.sol\":882:895  msg.value > 0 */\n      gt\n        /* \"VaultFinal.sol\":874:943  require(msg.value > 0, \"O valor do deposito deve ser maior que zero\") */\n      tag_71\n      jumpi\n      mload(0x40)\n      0x08c379a000000000000000000000000000000000000000000000000000000000\n      dup2\n      mstore\n      0x04\n      add\n      tag_72\n      swap1\n      tag_73\n      jump\t// in\n    tag_72:\n      mload(0x40)\n      dup1\n      swap2\n      sub\n      swap1\n      revert\n    tag_71:\n        /* \"VaultFinal.sol\":969:977  password */\n      dup1\n        /* \"VaultFinal.sol\":954:966  passwordHash */\n      0x00\n        /* \"VaultFinal.sol\":954:977  passwordHash = password */\n      dup2\n      swap1\n      sstore\n      pop\n        /* \"VaultFinal.sol\":1005:1015  msg.sender */\n      caller\n        /* \"VaultFinal.sol\":993:1027  DepositMade(msg.sender, msg.value) */\n      0xffffffffffffffffffffffffffffffffffffffff\n      and\n      0xd15c9547ea5c06670c0010ce19bc32d54682a4b3801ece7f3ab0c3f17106b4bb\n        /* \"VaultFinal.sol\":1017:1026  msg.value */\n      callvalue\n        /* \"VaultFinal.sol\":993:1027  DepositMade(msg.sender, msg.value) */\n      mload(0x40)\n      tag_74\n      swap2\n      swap1\n      tag_27\n      jump\t// in\n    tag_74:\n      mload(0x40)\n      dup1\n      swap2\n      sub\n      swap1\n      log2\n        /* \"VaultFinal.sol\":799:1035  function deposit(bytes32 password) external payable onlyOwner() {... */\n      pop\n      jump\t// out\n        /* \"VaultFinal.sol\":1043:1159  function resetPassword(bytes32 newPasswordHash) external onlyOwner {... */\n    tag_40:\n        /* \"VaultFinal.sol\":491:496  owner */\n      0x01\n      0x00\n      swap1\n      sload\n      swap1\n      0x0100\n      exp\n      swap1\n      div\n      0xffffffffffffffffffffffffffffffffffffffff\n      and\n        /* \"VaultFinal.sol\":477:496  msg.sender == owner */\n      0xffffffffffffffffffffffffffffffffffffffff\n      and\n        /* \"VaultFinal.sol\":477:487  msg.sender */\n      caller\n        /* \"VaultFinal.sol\":477:496  msg.sender == owner */\n      0xffffffffffffffffffffffffffffffffffffffff\n      and\n      eq\n        /* \"VaultFinal.sol\":469:542  require(msg.sender == owner, \"Apenas o dono pode executar esta operacao\") */\n      tag_76\n      jumpi\n      mload(0x40)\n      0x08c379a000000000000000000000000000000000000000000000000000000000\n      dup2\n      mstore\n      0x04\n      add\n      tag_77\n      swap1\n      tag_49\n      jump\t// in\n    tag_77:\n      mload(0x40)\n      dup1\n      swap2\n      sub\n      swap1\n      revert\n    tag_76:\n        /* \"VaultFinal.sol\":1136:1151  newPasswordHash */\n      dup1\n        /* \"VaultFinal.sol\":1121:1133  passwordHash */\n      0x00\n        /* \"VaultFinal.sol\":1121:1151  passwordHash = newPasswordHash */\n      dup2\n      swap1\n      sstore\n      pop\n        /* \"VaultFinal.sol\":1043:1159  function resetPassword(bytes32 newPasswordHash) external onlyOwner {... */\n      pop\n      jump\t// out\n        /* \"#utility.yul\":7:84   */\n    tag_79:\n        /* \"#utility.yul\":44:51   */\n      0x00\n        /* \"#utility.yul\":73:78   */\n      dup2\n        /* \"#utility.yul\":62:78   */\n      swap1\n      pop\n        /* \"#utility.yul\":7:84   */\n      swap2\n      swap1\n      pop\n      jump\t// out\n        /* \"#utility.yul\":90:208   */\n    tag_80:\n        /* \"#utility.yul\":177:201   */\n      tag_117\n        /* \"#utility.yul\":195:200   */\n      dup2\n        /* \"#utility.yul\":177:201   */\n      tag_79\n      jump\t// in\n    tag_117:\n        /* \"#utility.yul\":172:175   */\n      dup3\n        /* \"#utility.yul\":165:202   */\n      mstore\n        /* \"#utility.yul\":90:208   */\n      pop\n      pop\n      jump\t// out\n        /* \"#utility.yul\":214:436   */\n    tag_14:\n        /* \"#utility.yul\":307:311   */\n      0x00\n        /* \"#utility.yul\":345:347   */\n      0x20\n        /* \"#utility.yul\":334:343   */\n      dup3\n        /* \"#utility.yul\":330:348   */\n      add\n        /* \"#utility.yul\":322:348   */\n      swap1\n      pop\n        /* \"#utility.yul\":358:429   */\n      tag_119\n        /* \"#utility.yul\":426:427   */\n      0x00\n        /* \"#utility.yul\":415:424   */\n      dup4\n        /* \"#utility.yul\":411:428   */\n      add\n        /* \"#utility.yul\":402:408   */\n      dup5\n        /* \"#utility.yul\":358:429   */\n      tag_80\n      jump\t// in\n    tag_119:\n        /* \"#utility.yul\":214:436   */\n      swap3\n      swap2\n      pop\n      pop\n      jump\t// out\n        /* \"#utility.yul\":442:517   */\n    tag_81:\n        /* \"#utility.yul\":475:481   */\n      0x00\n        /* \"#utility.yul\":508:510   */\n      0x40\n        /* \"#utility.yul\":502:511   */\n      mload\n        /* \"#utility.yul\":492:511   */\n      swap1\n      pop\n        /* \"#utility.yul\":442:517   */\n      swap1\n      jump\t// out\n        /* \"#utility.yul\":523:640   */\n    tag_82:\n        /* \"#utility.yul\":632:633   */\n      0x00\n        /* \"#utility.yul\":629:630   */\n      dup1\n        /* \"#utility.yul\":622:634   */\n      revert\n        /* \"#utility.yul\":646:763   */\n    tag_83:\n        /* \"#utility.yul\":755:756   */\n      0x00\n        /* \"#utility.yul\":752:753   */\n      dup1\n        /* \"#utility.yul\":745:757   */\n      revert\n        /* \"#utility.yul\":769:886   */\n    tag_84:\n        /* \"#utility.yul\":878:879   */\n      0x00\n        /* \"#utility.yul\":875:876   */\n      dup1\n        /* \"#utility.yul\":868:880   */\n      revert\n        /* \"#utility.yul\":892:1009   */\n    tag_85:\n        /* \"#utility.yul\":1001:1002   */\n      0x00\n        /* \"#utility.yul\":998:999   */\n      dup1\n        /* \"#utility.yul\":991:1003   */\n      revert\n        /* \"#utility.yul\":1015:1117   */\n    tag_86:\n        /* \"#utility.yul\":1056:1062   */\n      0x00\n        /* \"#utility.yul\":1107:1109   */\n      0x1f\n        /* \"#utility.yul\":1103:1110   */\n      not\n        /* \"#utility.yul\":1098:1100   */\n      0x1f\n        /* \"#utility.yul\":1091:1096   */\n      dup4\n        /* \"#utility.yul\":1087:1101   */\n      add\n        /* \"#utility.yul\":1083:1111   */\n      and\n        /* \"#utility.yul\":1073:1111   */\n      swap1\n      pop\n        /* \"#utility.yul\":1015:1117   */\n      swap2\n      swap1\n      pop\n      jump\t// out\n        /* \"#utility.yul\":1123:1303   */\n    tag_87:\n        /* \"#utility.yul\":1171:1248   */\n      0x4e487b7100000000000000000000000000000000000000000000000000000000\n        /* \"#utility.yul\":1168:1169   */\n      0x00\n        /* \"#utility.yul\":1161:1249   */\n      mstore\n        /* \"#utility.yul\":1268:1272   */\n      0x41\n        /* \"#utility.yul\":1265:1266   */\n      0x04\n        /* \"#utility.yul\":1258:1273   */\n      mstore\n        /* \"#utility.yul\":1292:1296   */\n      0x24\n        /* \"#utility.yul\":1289:1290   */\n      0x00\n        /* \"#utility.yul\":1282:1297   */\n      revert\n        /* \"#utility.yul\":1309:1590   */\n    tag_88:\n        /* \"#utility.yul\":1392:1419   */\n      tag_128\n        /* \"#utility.yul\":1414:1418   */\n      dup3\n        /* \"#utility.yul\":1392:1419   */\n      tag_86\n      jump\t// in\n    tag_128:\n        /* \"#utility.yul\":1384:1390   */\n      dup2\n        /* \"#utility.yul\":1380:1420   */\n      add\n        /* \"#utility.yul\":1522:1528   */\n      dup2\n        /* \"#utility.yul\":1510:1520   */\n      dup2\n        /* \"#utility.yul\":1507:1529   */\n      lt\n        /* \"#utility.yul\":1486:1504   */\n      0xffffffffffffffff\n        /* \"#utility.yul\":1474:1484   */\n      dup3\n        /* \"#utility.yul\":1471:1505   */\n      gt\n        /* \"#utility.yul\":1468:1530   */\n      or\n        /* \"#utility.yul\":1465:1553   */\n      iszero\n      tag_129\n      jumpi\n        /* \"#utility.yul\":1533:1551   */\n      tag_130\n      tag_87\n      jump\t// in\n    tag_130:\n        /* \"#utility.yul\":1465:1553   */\n    tag_129:\n        /* \"#utility.yul\":1573:1583   */\n      dup1\n        /* \"#utility.yul\":1569:1571   */\n      0x40\n        /* \"#utility.yul\":1562:1584   */\n      mstore\n        /* \"#utility.yul\":1352:1590   */\n      pop\n        /* \"#utility.yul\":1309:1590   */\n      pop\n      pop\n      jump\t// out\n        /* \"#utility.yul\":1596:1725   */\n    tag_89:\n        /* \"#utility.yul\":1630:1636   */\n      0x00\n        /* \"#utility.yul\":1657:1677   */\n      tag_132\n      tag_81\n      jump\t// in\n    tag_132:\n        /* \"#utility.yul\":1647:1677   */\n      swap1\n      pop\n        /* \"#utility.yul\":1686:1719   */\n      tag_133\n        /* \"#utility.yul\":1714:1718   */\n      dup3\n        /* \"#utility.yul\":1706:1712   */\n      dup3\n        /* \"#utility.yul\":1686:1719   */\n      tag_88\n      jump\t// in\n    tag_133:\n        /* \"#utility.yul\":1596:1725   */\n      swap2\n      swap1\n      pop\n      jump\t// out\n        /* \"#utility.yul\":1731:2039   */\n    tag_90:\n        /* \"#utility.yul\":1793:1797   */\n      0x00\n        /* \"#utility.yul\":1883:1901   */\n      0xffffffffffffffff\n        /* \"#utility.yul\":1875:1881   */\n      dup3\n        /* \"#utility.yul\":1872:1902   */\n      gt\n        /* \"#utility.yul\":1869:1925   */\n      iszero\n      tag_135\n      jumpi\n        /* \"#utility.yul\":1905:1923   */\n      tag_136\n      tag_87\n      jump\t// in\n    tag_136:\n        /* \"#utility.yul\":1869:1925   */\n    tag_135:\n        /* \"#utility.yul\":1943:1972   */\n      tag_137\n        /* \"#utility.yul\":1965:1971   */\n      dup3\n        /* \"#utility.yul\":1943:1972   */\n      tag_86\n      jump\t// in\n    tag_137:\n        /* \"#utility.yul\":1935:1972   */\n      swap1\n      pop\n        /* \"#utility.yul\":2027:2031   */\n      0x20\n        /* \"#utility.yul\":2021:2025   */\n      dup2\n        /* \"#utility.yul\":2017:2032   */\n      add\n        /* \"#utility.yul\":2009:2032   */\n      swap1\n      pop\n        /* \"#utility.yul\":1731:2039   */\n      swap2\n      swap1\n      pop\n      jump\t// out\n        /* \"#utility.yul\":2045:2193   */\n    tag_91:\n        /* \"#utility.yul\":2143:2149   */\n      dup3\n        /* \"#utility.yul\":2138:2141   */\n      dup2\n        /* \"#utility.yul\":2133:2136   */\n      dup4\n        /* \"#utility.yul\":2120:2150   */\n      calldatacopy\n        /* \"#utility.yul\":2184:2185   */\n      0x00\n        /* \"#utility.yul\":2175:2181   */\n      dup4\n        /* \"#utility.yul\":2170:2173   */\n      dup4\n        /* \"#utility.yul\":2166:2182   */\n      add\n        /* \"#utility.yul\":2159:2186   */\n      mstore\n        /* \"#utility.yul\":2045:2193   */\n      pop\n      pop\n      pop\n      jump\t// out\n        /* \"#utility.yul\":2199:2624   */\n    tag_92:\n        /* \"#utility.yul\":2277:2282   */\n      0x00\n        /* \"#utility.yul\":2302:2368   */\n      tag_140\n        /* \"#utility.yul\":2318:2367   */\n      tag_141\n        /* \"#utility.yul\":2360:2366   */\n      dup5\n        /* \"#utility.yul\":2318:2367   */\n      tag_90\n      jump\t// in\n    tag_141:\n        /* \"#utility.yul\":2302:2368   */\n      tag_89\n      jump\t// in\n    tag_140:\n        /* \"#utility.yul\":2293:2368   */\n      swap1\n      pop\n        /* \"#utility.yul\":2391:2397   */\n      dup3\n        /* \"#utility.yul\":2384:2389   */\n      dup2\n        /* \"#utility.yul\":2377:2398   */\n      mstore\n        /* \"#utility.yul\":2429:2433   */\n      0x20\n        /* \"#utility.yul\":2422:2427   */\n      dup2\n        /* \"#utility.yul\":2418:2434   */\n      add\n        /* \"#utility.yul\":2467:2470   */\n      dup5\n        /* \"#utility.yul\":2458:2464   */\n      dup5\n        /* \"#utility.yul\":2453:2456   */\n      dup5\n        /* \"#utility.yul\":2449:2465   */\n      add\n        /* \"#utility.yul\":2446:2471   */\n      gt\n        /* \"#utility.yul\":2443:2555   */\n      iszero\n      tag_142\n      jumpi\n        /* \"#utility.yul\":2474:2553   */\n      tag_143\n      tag_85\n      jump\t// in\n    tag_143:\n        /* \"#utility.yul\":2443:2555   */\n    tag_142:\n        /* \"#utility.yul\":2564:2618   */\n      tag_144\n        /* \"#utility.yul\":2611:2617   */\n      dup5\n        /* \"#utility.yul\":2606:2609   */\n      dup3\n        /* \"#utility.yul\":2601:2604   */\n      dup6\n        /* \"#utility.yul\":2564:2618   */\n      tag_91\n      jump\t// in\n    tag_144:\n        /* \"#utility.yul\":2283:2624   */\n      pop\n        /* \"#utility.yul\":2199:2624   */\n      swap4\n      swap3\n      pop\n      pop\n      pop\n      jump\t// out\n        /* \"#utility.yul\":2644:2984   */\n    tag_93:\n        /* \"#utility.yul\":2700:2705   */\n      0x00\n        /* \"#utility.yul\":2749:2752   */\n      dup3\n        /* \"#utility.yul\":2742:2746   */\n      0x1f\n        /* \"#utility.yul\":2734:2740   */\n      dup4\n        /* \"#utility.yul\":2730:2747   */\n      add\n        /* \"#utility.yul\":2726:2753   */\n      slt\n        /* \"#utility.yul\":2716:2838   */\n      tag_146\n      jumpi\n        /* \"#utility.yul\":2757:2836   */\n      tag_147\n      tag_84\n      jump\t// in\n    tag_147:\n        /* \"#utility.yul\":2716:2838   */\n    tag_146:\n        /* \"#utility.yul\":2874:2880   */\n      dup2\n        /* \"#utility.yul\":2861:2881   */\n      calldataload\n        /* \"#utility.yul\":2899:2978   */\n      tag_148\n        /* \"#utility.yul\":2974:2977   */\n      dup5\n        /* \"#utility.yul\":2966:2972   */\n      dup3\n        /* \"#utility.yul\":2959:2963   */\n      0x20\n        /* \"#utility.yul\":2951:2957   */\n      dup7\n        /* \"#utility.yul\":2947:2964   */\n      add\n        /* \"#utility.yul\":2899:2978   */\n      tag_92\n      jump\t// in\n    tag_148:\n        /* \"#utility.yul\":2890:2978   */\n      swap2\n      pop\n        /* \"#utility.yul\":2706:2984   */\n      pop\n        /* \"#utility.yul\":2644:2984   */\n      swap3\n      swap2\n      pop\n      pop\n      jump\t// out\n        /* \"#utility.yul\":2990:3499   */\n    tag_21:\n        /* \"#utility.yul\":3059:3065   */\n      0x00\n        /* \"#utility.yul\":3108:3110   */\n      0x20\n        /* \"#utility.yul\":3096:3105   */\n      dup3\n        /* \"#utility.yul\":3087:3094   */\n      dup5\n        /* \"#utility.yul\":3083:3106   */\n      sub\n        /* \"#utility.yul\":3079:3111   */\n      slt\n        /* \"#utility.yul\":3076:3195   */\n      iszero\n      tag_150\n      jumpi\n        /* \"#utility.yul\":3114:3193   */\n      tag_151\n      tag_82\n      jump\t// in\n    tag_151:\n        /* \"#utility.yul\":3076:3195   */\n    tag_150:\n        /* \"#utility.yul\":3262:3263   */\n      0x00\n        /* \"#utility.yul\":3251:3260   */\n      dup3\n        /* \"#utility.yul\":3247:3264   */\n      add\n        /* \"#utility.yul\":3234:3265   */\n      calldataload\n        /* \"#utility.yul\":3292:3310   */\n      0xffffffffffffffff\n        /* \"#utility.yul\":3284:3290   */\n      dup2\n        /* \"#utility.yul\":3281:3311   */\n      gt\n        /* \"#utility.yul\":3278:3395   */\n      iszero\n      tag_152\n      jumpi\n        /* \"#utility.yul\":3314:3393   */\n      tag_153\n      tag_83\n      jump\t// in\n    tag_153:\n        /* \"#utility.yul\":3278:3395   */\n    tag_152:\n        /* \"#utility.yul\":3419:3482   */\n      tag_154\n        /* \"#utility.yul\":3474:3481   */\n      dup5\n        /* \"#utility.yul\":3465:3471   */\n      dup3\n        /* \"#utility.yul\":3454:3463   */\n      dup6\n        /* \"#utility.yul\":3450:3472   */\n      add\n        /* \"#utility.yul\":3419:3482   */\n      tag_93\n      jump\t// in\n    tag_154:\n        /* \"#utility.yul\":3409:3482   */\n      swap2\n      pop\n        /* \"#utility.yul\":3205:3492   */\n      pop\n        /* \"#utility.yul\":2990:3499   */\n      swap3\n      swap2\n      pop\n      pop\n      jump\t// out\n        /* \"#utility.yul\":3505:3582   */\n    tag_94:\n        /* \"#utility.yul\":3542:3549   */\n      0x00\n        /* \"#utility.yul\":3571:3576   */\n      dup2\n        /* \"#utility.yul\":3560:3576   */\n      swap1\n      pop\n        /* \"#utility.yul\":3505:3582   */\n      swap2\n      swap1\n      pop\n      jump\t// out\n        /* \"#utility.yul\":3588:3706   */\n    tag_95:\n        /* \"#utility.yul\":3675:3699   */\n      tag_157\n        /* \"#utility.yul\":3693:3698   */\n      dup2\n        /* \"#utility.yul\":3675:3699   */\n      tag_94\n      jump\t// in\n    tag_157:\n        /* \"#utility.yul\":3670:3673   */\n      dup3\n        /* \"#utility.yul\":3663:3700   */\n      mstore\n        /* \"#utility.yul\":3588:3706   */\n      pop\n      pop\n      jump\t// out\n        /* \"#utility.yul\":3712:3934   */\n    tag_27:\n        /* \"#utility.yul\":3805:3809   */\n      0x00\n        /* \"#utility.yul\":3843:3845   */\n      0x20\n        /* \"#utility.yul\":3832:3841   */\n      dup3\n        /* \"#utility.yul\":3828:3846   */\n      add\n        /* \"#utility.yul\":3820:3846   */\n      swap1\n      pop\n        /* \"#utility.yul\":3856:3927   */\n      tag_159\n        /* \"#utility.yul\":3924:3925   */\n      0x00\n        /* \"#utility.yul\":3913:3922   */\n      dup4\n        /* \"#utility.yul\":3909:3926   */\n      add\n        /* \"#utility.yul\":3900:3906   */\n      dup5\n        /* \"#utility.yul\":3856:3927   */\n      tag_95\n      jump\t// in\n    tag_159:\n        /* \"#utility.yul\":3712:3934   */\n      swap3\n      swap2\n      pop\n      pop\n      jump\t// out\n        /* \"#utility.yul\":3940:4066   */\n    tag_96:\n        /* \"#utility.yul\":3977:3984   */\n      0x00\n        /* \"#utility.yul\":4017:4059   */\n      0xffffffffffffffffffffffffffffffffffffffff\n        /* \"#utility.yul\":4010:4015   */\n      dup3\n        /* \"#utility.yul\":4006:4060   */\n      and\n        /* \"#utility.yul\":3995:4060   */\n      swap1\n      pop\n        /* \"#utility.yul\":3940:4066   */\n      swap2\n      swap1\n      pop\n      jump\t// out\n        /* \"#utility.yul\":4072:4168   */\n    tag_97:\n        /* \"#utility.yul\":4109:4116   */\n      0x00\n        /* \"#utility.yul\":4138:4162   */\n      tag_162\n        /* \"#utility.yul\":4156:4161   */\n      dup3\n        /* \"#utility.yul\":4138:4162   */\n      tag_96\n      jump\t// in\n    tag_162:\n        /* \"#utility.yul\":4127:4162   */\n      swap1\n      pop\n        /* \"#utility.yul\":4072:4168   */\n      swap2\n      swap1\n      pop\n      jump\t// out\n        /* \"#utility.yul\":4174:4292   */\n    tag_98:\n        /* \"#utility.yul\":4261:4285   */\n      tag_164\n        /* \"#utility.yul\":4279:4284   */\n      dup2\n        /* \"#utility.yul\":4261:4285   */\n      tag_97\n      jump\t// in\n    tag_164:\n        /* \"#utility.yul\":4256:4259   */\n      dup3\n        /* \"#utility.yul\":4249:4286   */\n      mstore\n        /* \"#utility.yul\":4174:4292   */\n      pop\n      pop\n      jump\t// out\n        /* \"#utility.yul\":4298:4520   */\n    tag_32:\n        /* \"#utility.yul\":4391:4395   */\n      0x00\n        /* \"#utility.yul\":4429:4431   */\n      0x20\n        /* \"#utility.yul\":4418:4427   */\n      dup3\n        /* \"#utility.yul\":4414:4432   */\n      add\n        /* \"#utility.yul\":4406:4432   */\n      swap1\n      pop\n        /* \"#utility.yul\":4442:4513   */\n      tag_166\n        /* \"#utility.yul\":4510:4511   */\n      0x00\n        /* \"#utility.yul\":4499:4508   */\n      dup4\n        /* \"#utility.yul\":4495:4512   */\n      add\n        /* \"#utility.yul\":4486:4492   */\n      dup5\n        /* \"#utility.yul\":4442:4513   */\n      tag_98\n      jump\t// in\n    tag_166:\n        /* \"#utility.yul\":4298:4520   */\n      swap3\n      swap2\n      pop\n      pop\n      jump\t// out\n        /* \"#utility.yul\":4526:4648   */\n    tag_99:\n        /* \"#utility.yul\":4599:4623   */\n      tag_168\n        /* \"#utility.yul\":4617:4622   */\n      dup2\n        /* \"#utility.yul\":4599:4623   */\n      tag_79\n      jump\t// in\n    tag_168:\n        /* \"#utility.yul\":4592:4597   */\n      dup2\n        /* \"#utility.yul\":4589:4624   */\n      eq\n        /* \"#utility.yul\":4579:4642   */\n      tag_169\n      jumpi\n        /* \"#utility.yul\":4638:4639   */\n      0x00\n        /* \"#utility.yul\":4635:4636   */\n      dup1\n        /* \"#utility.yul\":4628:4640   */\n      revert\n        /* \"#utility.yul\":4579:4642   */\n    tag_169:\n        /* \"#utility.yul\":4526:4648   */\n      pop\n      jump\t// out\n        /* \"#utility.yul\":4654:4793   */\n    tag_100:\n        /* \"#utility.yul\":4700:4705   */\n      0x00\n        /* \"#utility.yul\":4738:4744   */\n      dup2\n        /* \"#utility.yul\":4725:4745   */\n      calldataload\n        /* \"#utility.yul\":4716:4745   */\n      swap1\n      pop\n        /* \"#utility.yul\":4754:4787   */\n      tag_171\n        /* \"#utility.yul\":4781:4786   */\n      dup2\n        /* \"#utility.yul\":4754:4787   */\n      tag_99\n      jump\t// in\n    tag_171:\n        /* \"#utility.yul\":4654:4793   */\n      swap3\n      swap2\n      pop\n      pop\n      jump\t// out\n        /* \"#utility.yul\":4799:5128   */\n    tag_35:\n        /* \"#utility.yul\":4858:4864   */\n      0x00\n        /* \"#utility.yul\":4907:4909   */\n      0x20\n        /* \"#utility.yul\":4895:4904   */\n      dup3\n        /* \"#utility.yul\":4886:4893   */\n      dup5\n        /* \"#utility.yul\":4882:4905   */\n      sub\n        /* \"#utility.yul\":4878:4910   */\n      slt\n        /* \"#utility.yul\":4875:4994   */\n      iszero\n      tag_173\n      jumpi\n        /* \"#utility.yul\":4913:4992   */\n      tag_174\n      tag_82\n      jump\t// in\n    tag_174:\n        /* \"#utility.yul\":4875:4994   */\n    tag_173:\n        /* \"#utility.yul\":5033:5034   */\n      0x00\n        /* \"#utility.yul\":5058:5111   */\n      tag_175\n        /* \"#utility.yul\":5103:5110   */\n      dup5\n        /* \"#utility.yul\":5094:5100   */\n      dup3\n        /* \"#utility.yul\":5083:5092   */\n      dup6\n        /* \"#utility.yul\":5079:5101   */\n      add\n        /* \"#utility.yul\":5058:5111   */\n      tag_100\n      jump\t// in\n    tag_175:\n        /* \"#utility.yul\":5048:5111   */\n      swap2\n      pop\n        /* \"#utility.yul\":5004:5121   */\n      pop\n        /* \"#utility.yul\":4799:5128   */\n      swap3\n      swap2\n      pop\n      pop\n      jump\t// out\n        /* \"#utility.yul\":5134:5303   */\n    tag_101:\n        /* \"#utility.yul\":5218:5229   */\n      0x00\n        /* \"#utility.yul\":5252:5258   */\n      dup3\n        /* \"#utility.yul\":5247:5250   */\n      dup3\n        /* \"#utility.yul\":5240:5259   */\n      mstore\n        /* \"#utility.yul\":5292:5296   */\n      0x20\n        /* \"#utility.yul\":5287:5290   */\n      dup3\n        /* \"#utility.yul\":5283:5297   */\n      add\n        /* \"#utility.yul\":5268:5297   */\n      swap1\n      pop\n        /* \"#utility.yul\":5134:5303   */\n      swap3\n      swap2\n      pop\n      pop\n      jump\t// out\n        /* \"#utility.yul\":5309:5478   */\n    tag_102:\n        /* \"#utility.yul\":5449:5470   */\n      0x4465706f7369746f206e616f2065786973746500000000000000000000000000\n        /* \"#utility.yul\":5445:5446   */\n      0x00\n        /* \"#utility.yul\":5437:5443   */\n      dup3\n        /* \"#utility.yul\":5433:5447   */\n      add\n        /* \"#utility.yul\":5426:5471   */\n      mstore\n        /* \"#utility.yul\":5309:5478   */\n      pop\n      jump\t// out\n        /* \"#utility.yul\":5484:5850   */\n    tag_103:\n        /* \"#utility.yul\":5626:5629   */\n      0x00\n        /* \"#utility.yul\":5647:5714   */\n      tag_179\n        /* \"#utility.yul\":5711:5713   */\n      0x13\n        /* \"#utility.yul\":5706:5709   */\n      dup4\n        /* \"#utility.yul\":5647:5714   */\n      tag_101\n      jump\t// in\n    tag_179:\n        /* \"#utility.yul\":5640:5714   */\n      swap2\n      pop\n        /* \"#utility.yul\":5723:5816   */\n      tag_180\n        /* \"#utility.yul\":5812:5815   */\n      dup3\n        /* \"#utility.yul\":5723:5816   */\n      tag_102\n      jump\t// in\n    tag_180:\n        /* \"#utility.yul\":5841:5843   */\n      0x20\n        /* \"#utility.yul\":5836:5839   */\n      dup3\n        /* \"#utility.yul\":5832:5844   */\n      add\n        /* \"#utility.yul\":5825:5844   */\n      swap1\n      pop\n        /* \"#utility.yul\":5484:5850   */\n      swap2\n      swap1\n      pop\n      jump\t// out\n        /* \"#utility.yul\":5856:6275   */\n    tag_45:\n        /* \"#utility.yul\":6022:6026   */\n      0x00\n        /* \"#utility.yul\":6060:6062   */\n      0x20\n        /* \"#utility.yul\":6049:6058   */\n      dup3\n        /* \"#utility.yul\":6045:6063   */\n      add\n        /* \"#utility.yul\":6037:6063   */\n      swap1\n      pop\n        /* \"#utility.yul\":6109:6118   */\n      dup2\n        /* \"#utility.yul\":6103:6107   */\n      dup2\n        /* \"#utility.yul\":6099:6119   */\n      sub\n        /* \"#utility.yul\":6095:6096   */\n      0x00\n        /* \"#utility.yul\":6084:6093   */\n      dup4\n        /* \"#utility.yul\":6080:6097   */\n      add\n        /* \"#utility.yul\":6073:6120   */\n      mstore\n        /* \"#utility.yul\":6137:6268   */\n      tag_182\n        /* \"#utility.yul\":6263:6267   */\n      dup2\n        /* \"#utility.yul\":6137:6268   */\n      tag_103\n      jump\t// in\n    tag_182:\n        /* \"#utility.yul\":6129:6268   */\n      swap1\n      pop\n        /* \"#utility.yul\":5856:6275   */\n      swap2\n      swap1\n      pop\n      jump\t// out\n        /* \"#utility.yul\":6281:6509   */\n    tag_104:\n        /* \"#utility.yul\":6421:6455   */\n      0x4170656e6173206f20646f6e6f20706f64652065786563757461722065737461\n        /* \"#utility.yul\":6417:6418   */\n      0x00\n        /* \"#utility.yul\":6409:6415   */\n      dup3\n        /* \"#utility.yul\":6405:6419   */\n      add\n        /* \"#utility.yul\":6398:6456   */\n      mstore\n        /* \"#utility.yul\":6490:6501   */\n      0x206f7065726163616f0000000000000000000000000000000000000000000000\n        /* \"#utility.yul\":6485:6487   */\n      0x20\n        /* \"#utility.yul\":6477:6483   */\n      dup3\n        /* \"#utility.yul\":6473:6488   */\n      add\n        /* \"#utility.yul\":6466:6502   */\n      mstore\n        /* \"#utility.yul\":6281:6509   */\n      pop\n      jump\t// out\n        /* \"#utility.yul\":6515:6881   */\n    tag_105:\n        /* \"#utility.yul\":6657:6660   */\n      0x00\n        /* \"#utility.yul\":6678:6745   */\n      tag_185\n        /* \"#utility.yul\":6742:6744   */\n      0x29\n        /* \"#utility.yul\":6737:6740   */\n      dup4\n        /* \"#utility.yul\":6678:6745   */\n      tag_101\n      jump\t// in\n    tag_185:\n        /* \"#utility.yul\":6671:6745   */\n      swap2\n      pop\n        /* \"#utility.yul\":6754:6847   */\n      tag_186\n        /* \"#utility.yul\":6843:6846   */\n      dup3\n        /* \"#utility.yul\":6754:6847   */\n      tag_104\n      jump\t// in\n    tag_186:\n        /* \"#utility.yul\":6872:6874   */\n      0x40\n        /* \"#utility.yul\":6867:6870   */\n      dup3\n        /* \"#utility.yul\":6863:6875   */\n      add\n        /* \"#utility.yul\":6856:6875   */\n      swap1\n      pop\n        /* \"#utility.yul\":6515:6881   */\n      swap2\n      swap1\n      pop\n      jump\t// out\n        /* \"#utility.yul\":6887:7306   */\n    tag_49:\n        /* \"#utility.yul\":7053:7057   */\n      0x00\n        /* \"#utility.yul\":7091:7093   */\n      0x20\n        /* \"#utility.yul\":7080:7089   */\n      dup3\n        /* \"#utility.yul\":7076:7094   */\n      add\n        /* \"#utility.yul\":7068:7094   */\n      swap1\n      pop\n        /* \"#utility.yul\":7140:7149   */\n      dup2\n        /* \"#utility.yul\":7134:7138   */\n      dup2\n        /* \"#utility.yul\":7130:7150   */\n      sub\n        /* \"#utility.yul\":7126:7127   */\n      0x00\n        /* \"#utility.yul\":7115:7124   */\n      dup4\n        /* \"#utility.yul\":7111:7128   */\n      add\n        /* \"#utility.yul\":7104:7151   */\n      mstore\n        /* \"#utility.yul\":7168:7299   */\n      tag_188\n        /* \"#utility.yul\":7294:7298   */\n      dup2\n        /* \"#utility.yul\":7168:7299   */\n      tag_105\n      jump\t// in\n    tag_188:\n        /* \"#utility.yul\":7160:7299   */\n      swap1\n      pop\n        /* \"#utility.yul\":6887:7306   */\n      swap2\n      swap1\n      pop\n      jump\t// out\n        /* \"#utility.yul\":7312:7411   */\n    tag_106:\n        /* \"#utility.yul\":7364:7370   */\n      0x00\n        /* \"#utility.yul\":7398:7403   */\n      dup2\n        /* \"#utility.yul\":7392:7404   */\n      mload\n        /* \"#utility.yul\":7382:7404   */\n      swap1\n      pop\n        /* \"#utility.yul\":7312:7411   */\n      swap2\n      swap1\n      pop\n      jump\t// out\n        /* \"#utility.yul\":7417:7565   */\n    tag_107:\n        /* \"#utility.yul\":7519:7530   */\n      0x00\n        /* \"#utility.yul\":7556:7559   */\n      dup2\n        /* \"#utility.yul\":7541:7559   */\n      swap1\n      pop\n        /* \"#utility.yul\":7417:7565   */\n      swap3\n      swap2\n      pop\n      pop\n      jump\t// out\n        /* \"#utility.yul\":7571:7710   */\n    tag_108:\n        /* \"#utility.yul\":7660:7666   */\n      dup3\n        /* \"#utility.yul\":7655:7658   */\n      dup2\n        /* \"#utility.yul\":7650:7653   */\n      dup4\n        /* \"#utility.yul\":7644:7667   */\n      mcopy\n        /* \"#utility.yul\":7701:7702   */\n      0x00\n        /* \"#utility.yul\":7692:7698   */\n      dup4\n        /* \"#utility.yul\":7687:7690   */\n      dup4\n        /* \"#utility.yul\":7683:7699   */\n      add\n        /* \"#utility.yul\":7676:7703   */\n      mstore\n        /* \"#utility.yul\":7571:7710   */\n      pop\n      pop\n      pop\n      jump\t// out\n        /* \"#utility.yul\":7716:8106   */\n    tag_109:\n        /* \"#utility.yul\":7822:7825   */\n      0x00\n        /* \"#utility.yul\":7850:7889   */\n      tag_193\n        /* \"#utility.yul\":7883:7888   */\n      dup3\n        /* \"#utility.yul\":7850:7889   */\n      tag_106\n      jump\t// in\n    tag_193:\n        /* \"#utility.yul\":7905:7994   */\n      tag_194\n        /* \"#utility.yul\":7987:7993   */\n      dup2\n        /* \"#utility.yul\":7982:7985   */\n      dup6\n        /* \"#utility.yul\":7905:7994   */\n      tag_107\n      jump\t// in\n    tag_194:\n        /* \"#utility.yul\":7898:7994   */\n      swap4\n      pop\n        /* \"#utility.yul\":8003:8068   */\n      tag_195\n        /* \"#utility.yul\":8061:8067   */\n      dup2\n        /* \"#utility.yul\":8056:8059   */\n      dup6\n        /* \"#utility.yul\":8049:8053   */\n      0x20\n        /* \"#utility.yul\":8042:8047   */\n      dup7\n        /* \"#utility.yul\":8038:8054   */\n      add\n        /* \"#utility.yul\":8003:8068   */\n      tag_108\n      jump\t// in\n    tag_195:\n        /* \"#utility.yul\":8093:8099   */\n      dup1\n        /* \"#utility.yul\":8088:8091   */\n      dup5\n        /* \"#utility.yul\":8084:8100   */\n      add\n        /* \"#utility.yul\":8077:8100   */\n      swap2\n      pop\n        /* \"#utility.yul\":7826:8106   */\n      pop\n        /* \"#utility.yul\":7716:8106   */\n      swap3\n      swap2\n      pop\n      pop\n      jump\t// out\n        /* \"#utility.yul\":8112:8387   */\n    tag_59:\n        /* \"#utility.yul\":8244:8247   */\n      0x00\n        /* \"#utility.yul\":8266:8361   */\n      tag_197\n        /* \"#utility.yul\":8357:8360   */\n      dup3\n        /* \"#utility.yul\":8348:8354   */\n      dup5\n        /* \"#utility.yul\":8266:8361   */\n      tag_109\n      jump\t// in\n    tag_197:\n        /* \"#utility.yul\":8259:8361   */\n      swap2\n      pop\n        /* \"#utility.yul\":8378:8381   */\n      dup2\n        /* \"#utility.yul\":8371:8381   */\n      swap1\n      pop\n        /* \"#utility.yul\":8112:8387   */\n      swap3\n      swap2\n      pop\n      pop\n      jump\t// out\n        /* \"#utility.yul\":8393:8558   */\n    tag_110:\n        /* \"#utility.yul\":8533:8550   */\n      0x53656e686120696e636f72726574610000000000000000000000000000000000\n        /* \"#utility.yul\":8529:8530   */\n      0x00\n        /* \"#utility.yul\":8521:8527   */\n      dup3\n        /* \"#utility.yul\":8517:8531   */\n      add\n        /* \"#utility.yul\":8510:8551   */\n      mstore\n        /* \"#utility.yul\":8393:8558   */\n      pop\n      jump\t// out\n        /* \"#utility.yul\":8564:8930   */\n    tag_111:\n        /* \"#utility.yul\":8706:8709   */\n      0x00\n        /* \"#utility.yul\":8727:8794   */\n      tag_200\n        /* \"#utility.yul\":8791:8793   */\n      0x0f\n        /* \"#utility.yul\":8786:8789   */\n      dup4\n        /* \"#utility.yul\":8727:8794   */\n      tag_101\n      jump\t// in\n    tag_200:\n        /* \"#utility.yul\":8720:8794   */\n      swap2\n      pop\n        /* \"#utility.yul\":8803:8896   */\n      tag_201\n        /* \"#utility.yul\":8892:8895   */\n      dup3\n        /* \"#utility.yul\":8803:8896   */\n      tag_110\n      jump\t// in\n    tag_201:\n        /* \"#utility.yul\":8921:8923   */\n      0x20\n        /* \"#utility.yul\":8916:8919   */\n      dup3\n        /* \"#utility.yul\":8912:8924   */\n      add\n        /* \"#utility.yul\":8905:8924   */\n      swap1\n      pop\n        /* \"#utility.yul\":8564:8930   */\n      swap2\n      swap1\n      pop\n      jump\t// out\n        /* \"#utility.yul\":8936:9355   */\n    tag_62:\n        /* \"#utility.yul\":9102:9106   */\n      0x00\n        /* \"#utility.yul\":9140:9142   */\n      0x20\n        /* \"#utility.yul\":9129:9138   */\n      dup3\n        /* \"#utility.yul\":9125:9143   */\n      add\n        /* \"#utility.yul\":9117:9143   */\n      swap1\n      pop\n        /* \"#utility.yul\":9189:9198   */\n      dup2\n        /* \"#utility.yul\":9183:9187   */\n      dup2\n        /* \"#utility.yul\":9179:9199   */\n      sub\n        /* \"#utility.yul\":9175:9176   */\n      0x00\n        /* \"#utility.yul\":9164:9173   */\n      dup4\n        /* \"#utility.yul\":9160:9177   */\n      add\n        /* \"#utility.yul\":9153:9200   */\n      mstore\n        /* \"#utility.yul\":9217:9348   */\n      tag_203\n        /* \"#utility.yul\":9343:9347   */\n      dup2\n        /* \"#utility.yul\":9217:9348   */\n      tag_111\n      jump\t// in\n    tag_203:\n        /* \"#utility.yul\":9209:9348   */\n      swap1\n      pop\n        /* \"#utility.yul\":8936:9355   */\n      swap2\n      swap1\n      pop\n      jump\t// out\n        /* \"#utility.yul\":9361:9591   */\n    tag_112:\n        /* \"#utility.yul\":9501:9535   */\n      0x4f2076616c6f7220646f206465706f7369746f206465766520736572206d6169\n        /* \"#utility.yul\":9497:9498   */\n      0x00\n        /* \"#utility.yul\":9489:9495   */\n      dup3\n        /* \"#utility.yul\":9485:9499   */\n      add\n        /* \"#utility.yul\":9478:9536   */\n      mstore\n        /* \"#utility.yul\":9570:9583   */\n      0x6f7220717565207a65726f000000000000000000000000000000000000000000\n        /* \"#utility.yul\":9565:9567   */\n      0x20\n        /* \"#utility.yul\":9557:9563   */\n      dup3\n        /* \"#utility.yul\":9553:9568   */\n      add\n        /* \"#utility.yul\":9546:9584   */\n      mstore\n        /* \"#utility.yul\":9361:9591   */\n      pop\n      jump\t// out\n        /* \"#utility.yul\":9597:9963   */\n    tag_113:\n        /* \"#utility.yul\":9739:9742   */\n      0x00\n        /* \"#utility.yul\":9760:9827   */\n      tag_206\n        /* \"#utility.yul\":9824:9826   */\n      0x2b\n        /* \"#utility.yul\":9819:9822   */\n      dup4\n        /* \"#utility.yul\":9760:9827   */\n      tag_101\n      jump\t// in\n    tag_206:\n        /* \"#utility.yul\":9753:9827   */\n      swap2\n      pop\n        /* \"#utility.yul\":9836:9929   */\n      tag_207\n        /* \"#utility.yul\":9925:9928   */\n      dup3\n        /* \"#utility.yul\":9836:9929   */\n      tag_112\n      jump\t// in\n    tag_207:\n        /* \"#utility.yul\":9954:9956   */\n      0x40\n        /* \"#utility.yul\":9949:9952   */\n      dup3\n        /* \"#utility.yul\":9945:9957   */\n      add\n        /* \"#utility.yul\":9938:9957   */\n      swap1\n      pop\n        /* \"#utility.yul\":9597:9963   */\n      swap2\n      swap1\n      pop\n      jump\t// out\n        /* \"#utility.yul\":9969:10388   */\n    tag_73:\n        /* \"#utility.yul\":10135:10139   */\n      0x00\n        /* \"#utility.yul\":10173:10175   */\n      0x20\n        /* \"#utility.yul\":10162:10171   */\n      dup3\n        /* \"#utility.yul\":10158:10176   */\n      add\n        /* \"#utility.yul\":10150:10176   */\n      swap1\n      pop\n        /* \"#utility.yul\":10222:10231   */\n      dup2\n        /* \"#utility.yul\":10216:10220   */\n      dup2\n        /* \"#utility.yul\":10212:10232   */\n      sub\n        /* \"#utility.yul\":10208:10209   */\n      0x00\n        /* \"#utility.yul\":10197:10206   */\n      dup4\n        /* \"#utility.yul\":10193:10210   */\n      add\n        /* \"#utility.yul\":10186:10233   */\n      mstore\n        /* \"#utility.yul\":10250:10381   */\n      tag_209\n        /* \"#utility.yul\":10376:10380   */\n      dup2\n        /* \"#utility.yul\":10250:10381   */\n      tag_113\n      jump\t// in\n    tag_209:\n        /* \"#utility.yul\":10242:10381   */\n      swap1\n      pop\n        /* \"#utility.yul\":9969:10388   */\n      swap2\n      swap1\n      pop\n      jump\t// out\n\n    auxdata: 0xa2646970667358221220fec6f6f427880ab3977a78909987de7a353714c7e96d1ac0de95c51a54d32e4b64736f6c634300081a0033\n}\n",
				"bytecode": {
					"linkReferences": {},
					"object": "6080604052348015600e575f80fd5b503360015f6101000a81548173ffffffffffffffffffffffffffffffffffffffff021916908373ffffffffffffffffffffffffffffffffffffffff160217905550610b848061005c5f395ff3fe60806040526004361061006f575f3560e01c806381b2d07b1161004d57806381b2d07b146100db5780638da5cb5b14610105578063b214faa51461012f578063caf6492e1461014b5761006f565b80631a42ba0c146100735780631f3ff68d1461009d57806331fb67c2146100b3575b5f80fd5b34801561007e575f80fd5b50610087610173565b604051610094919061065f565b60405180910390f35b3480156100a8575f80fd5b506100b161017b565b005b3480156100be575f80fd5b506100d960048036038101906100d491906107c5565b61030e565b005b3480156100e6575f80fd5b506100ef61045b565b6040516100fc9190610824565b60405180910390f35b348015610110575f80fd5b50610119610462565b604051610126919061087c565b60405180910390f35b610149600480360381019061014491906108bf565b610487565b005b348015610156575f80fd5b50610171600480360381019061016c91906108bf565b6105af565b005b5f8054905090565b5f47116101bd576040517f08c379a00000000000000000000000000000000000000000000000000000000081526004016101b490610944565b60405180910390fd5b60015f9054906101000a900473ffffffffffffffffffffffffffffffffffffffff1673ffffffffffffffffffffffffffffffffffffffff163373ffffffffffffffffffffffffffffffffffffffff161461024c576040517f08c379a0000000000000000000000000000000000000000000000000000000008152600401610243906109d2565b60405180910390fd5b5f801b5f819055505f47905060015f9054906101000a900473ffffffffffffffffffffffffffffffffffffffff1673ffffffffffffffffffffffffffffffffffffffff166108fc8290811502906040515f60405180830381858888f193505050501580156102bc573d5f803e3d5ffd5b503373ffffffffffffffffffffffffffffffffffffffff167f7be0cf12131690e539b6205edef2a3f931615e4273bc6310355344c5af30506b826040516103039190610824565b60405180910390a250565b5f4711610350576040517f08c379a000000000000000000000000000000000000000000000000000000000815260040161034790610944565b60405180910390fd5b806040516020016103619190610a42565b604051602081830303815290604052805190602001205f54146103b9576040517f08c379a00000000000000000000000000000000000000000000000000000000081526004016103b090610aa2565b60405180910390fd5b5f801b5f819055505f4790503373ffffffffffffffffffffffffffffffffffffffff166108fc4790811502906040515f60405180830381858888f19350505050158015610408573d5f803e3d5ffd5b503373ffffffffffffffffffffffffffffffffffffffff167f7fcf532c15f0a6db0bd6d0e038bea71d30d808c7d98cb3bf7268a95bf5081b658260405161044f9190610824565b60405180910390a25050565b5f47905090565b60015f9054906101000a900473ffffffffffffffffffffffffffffffffffffffff1681565b60015f9054906101000a900473ffffffffffffffffffffffffffffffffffffffff1673ffffffffffffffffffffffffffffffffffffffff163373ffffffffffffffffffffffffffffffffffffffff1614610516576040517f08c379a000000000000000000000000000000000000000000000000000000000815260040161050d906109d2565b60405180910390fd5b5f3411610558576040517f08c379a000000000000000000000000000000000000000000000000000000000815260040161054f90610b30565b60405180910390fd5b805f819055503373ffffffffffffffffffffffffffffffffffffffff167fd15c9547ea5c06670c0010ce19bc32d54682a4b3801ece7f3ab0c3f17106b4bb346040516105a49190610824565b60405180910390a250565b60015f9054906101000a900473ffffffffffffffffffffffffffffffffffffffff1673ffffffffffffffffffffffffffffffffffffffff163373ffffffffffffffffffffffffffffffffffffffff161461063e576040517f08c379a0000000000000000000000000000000000000000000000000000000008152600401610635906109d2565b60405180910390fd5b805f8190555050565b5f819050919050565b61065981610647565b82525050565b5f6020820190506106725f830184610650565b92915050565b5f604051905090565b5f80fd5b5f80fd5b5f80fd5b5f80fd5b5f601f19601f8301169050919050565b7f4e487b71000000000000000000000000000000000000000000000000000000005f52604160045260245ffd5b6106d782610691565b810181811067ffffffffffffffff821117156106f6576106f56106a1565b5b80604052505050565b5f610708610678565b905061071482826106ce565b919050565b5f67ffffffffffffffff821115610733576107326106a1565b5b61073c82610691565b9050602081019050919050565b828183375f83830152505050565b5f61076961076484610719565b6106ff565b9050828152602081018484840111156107855761078461068d565b5b610790848285610749565b509392505050565b5f82601f8301126107ac576107ab610689565b5b81356107bc848260208601610757565b91505092915050565b5f602082840312156107da576107d9610681565b5b5f82013567ffffffffffffffff8111156107f7576107f6610685565b5b61080384828501610798565b91505092915050565b5f819050919050565b61081e8161080c565b82525050565b5f6020820190506108375f830184610815565b92915050565b5f73ffffffffffffffffffffffffffffffffffffffff82169050919050565b5f6108668261083d565b9050919050565b6108768161085c565b82525050565b5f60208201905061088f5f83018461086d565b92915050565b61089e81610647565b81146108a8575f80fd5b50565b5f813590506108b981610895565b92915050565b5f602082840312156108d4576108d3610681565b5b5f6108e1848285016108ab565b91505092915050565b5f82825260208201905092915050565b7f4465706f7369746f206e616f20657869737465000000000000000000000000005f82015250565b5f61092e6013836108ea565b9150610939826108fa565b602082019050919050565b5f6020820190508181035f83015261095b81610922565b9050919050565b7f4170656e6173206f20646f6e6f20706f646520657865637574617220657374615f8201527f206f7065726163616f0000000000000000000000000000000000000000000000602082015250565b5f6109bc6029836108ea565b91506109c782610962565b604082019050919050565b5f6020820190508181035f8301526109e9816109b0565b9050919050565b5f81519050919050565b5f81905092915050565b8281835e5f83830152505050565b5f610a1c826109f0565b610a2681856109fa565b9350610a36818560208601610a04565b80840191505092915050565b5f610a4d8284610a12565b915081905092915050565b7f53656e686120696e636f727265746100000000000000000000000000000000005f82015250565b5f610a8c600f836108ea565b9150610a9782610a58565b602082019050919050565b5f6020820190508181035f830152610ab981610a80565b9050919050565b7f4f2076616c6f7220646f206465706f7369746f206465766520736572206d61695f8201527f6f7220717565207a65726f000000000000000000000000000000000000000000602082015250565b5f610b1a602b836108ea565b9150610b2582610ac0565b604082019050919050565b5f6020820190508181035f830152610b4781610b0e565b905091905056fea2646970667358221220fec6f6f427880ab3977a78909987de7a353714c7e96d1ac0de95c51a54d32e4b64736f6c634300081a0033",
					"opcodes": "PUSH1 0x80 PUSH1 0x40 MSTORE CALLVALUE DUP1 ISZERO PUSH1 0xE JUMPI PUSH0 DUP1 REVERT JUMPDEST POP CALLER PUSH1 0x1 PUSH0 PUSH2 0x100 EXP DUP2 SLOAD DUP2 PUSH20 0xFFFFFFFFFFFFFFFFFFFFFFFFFFFFFFFFFFFFFFFF MUL NOT AND SWAP1 DUP4 PUSH20 0xFFFFFFFFFFFFFFFFFFFFFFFFFFFFFFFFFFFFFFFF AND MUL OR SWAP1 SSTORE POP PUSH2 0xB84 DUP1 PUSH2 0x5C PUSH0 CODECOPY PUSH0 RETURN INVALID PUSH1 0x80 PUSH1 0x40 MSTORE PUSH1 0x4 CALLDATASIZE LT PUSH2 0x6F JUMPI PUSH0 CALLDATALOAD PUSH1 0xE0 SHR DUP1 PUSH4 0x81B2D07B GT PUSH2 0x4D JUMPI DUP1 PUSH4 0x81B2D07B EQ PUSH2 0xDB JUMPI DUP1 PUSH4 0x8DA5CB5B EQ PUSH2 0x105 JUMPI DUP1 PUSH4 0xB214FAA5 EQ PUSH2 0x12F JUMPI DUP1 PUSH4 0xCAF6492E EQ PUSH2 0x14B JUMPI PUSH2 0x6F JUMP JUMPDEST DUP1 PUSH4 0x1A42BA0C EQ PUSH2 0x73 JUMPI DUP1 PUSH4 0x1F3FF68D EQ PUSH2 0x9D JUMPI DUP1 PUSH4 0x31FB67C2 EQ PUSH2 0xB3 JUMPI JUMPDEST PUSH0 DUP1 REVERT JUMPDEST CALLVALUE DUP1 ISZERO PUSH2 0x7E JUMPI PUSH0 DUP1 REVERT JUMPDEST POP PUSH2 0x87 PUSH2 0x173 JUMP JUMPDEST PUSH1 0x40 MLOAD PUSH2 0x94 SWAP2 SWAP1 PUSH2 0x65F JUMP JUMPDEST PUSH1 0x40 MLOAD DUP1 SWAP2 SUB SWAP1 RETURN JUMPDEST CALLVALUE DUP1 ISZERO PUSH2 0xA8 JUMPI PUSH0 DUP1 REVERT JUMPDEST POP PUSH2 0xB1 PUSH2 0x17B JUMP JUMPDEST STOP JUMPDEST CALLVALUE DUP1 ISZERO PUSH2 0xBE JUMPI PUSH0 DUP1 REVERT JUMPDEST POP PUSH2 0xD9 PUSH1 0x4 DUP1 CALLDATASIZE SUB DUP2 ADD SWAP1 PUSH2 0xD4 SWAP2 SWAP1 PUSH2 0x7C5 JUMP JUMPDEST PUSH2 0x30E JUMP JUMPDEST STOP JUMPDEST CALLVALUE DUP1 ISZERO PUSH2 0xE6 JUMPI PUSH0 DUP1 REVERT JUMPDEST POP PUSH2 0xEF PUSH2 0x45B JUMP JUMPDEST PUSH1 0x40 MLOAD PUSH2 0xFC SWAP2 SWAP1 PUSH2 0x824 JUMP JUMPDEST PUSH1 0x40 MLOAD DUP1 SWAP2 SUB SWAP1 RETURN JUMPDEST CALLVALUE DUP1 ISZERO PUSH2 0x110 JUMPI PUSH0 DUP1 REVERT JUMPDEST POP PUSH2 0x119 PUSH2 0x462 JUMP JUMPDEST PUSH1 0x40 MLOAD PUSH2 0x126 SWAP2 SWAP1 PUSH2 0x87C JUMP JUMPDEST PUSH1 0x40 MLOAD DUP1 SWAP2 SUB SWAP1 RETURN JUMPDEST PUSH2 0x149 PUSH1 0x4 DUP1 CALLDATASIZE SUB DUP2 ADD SWAP1 PUSH2 0x144 SWAP2 SWAP1 PUSH2 0x8BF JUMP JUMPDEST PUSH2 0x487 JUMP JUMPDEST STOP JUMPDEST CALLVALUE DUP1 ISZERO PUSH2 0x156 JUMPI PUSH0 DUP1 REVERT JUMPDEST POP PUSH2 0x171 PUSH1 0x4 DUP1 CALLDATASIZE SUB DUP2 ADD SWAP1 PUSH2 0x16C SWAP2 SWAP1 PUSH2 0x8BF JUMP JUMPDEST PUSH2 0x5AF JUMP JUMPDEST STOP JUMPDEST PUSH0 DUP1 SLOAD SWAP1 POP SWAP1 JUMP JUMPDEST PUSH0 SELFBALANCE GT PUSH2 0x1BD JUMPI PUSH1 0x40 MLOAD PUSH32 0x8C379A000000000000000000000000000000000000000000000000000000000 DUP2 MSTORE PUSH1 0x4 ADD PUSH2 0x1B4 SWAP1 PUSH2 0x944 JUMP JUMPDEST PUSH1 0x40 MLOAD DUP1 SWAP2 SUB SWAP1 REVERT JUMPDEST PUSH1 0x1 PUSH0 SWAP1 SLOAD SWAP1 PUSH2 0x100 EXP SWAP1 DIV PUSH20 0xFFFFFFFFFFFFFFFFFFFFFFFFFFFFFFFFFFFFFFFF AND PUSH20 0xFFFFFFFFFFFFFFFFFFFFFFFFFFFFFFFFFFFFFFFF AND CALLER PUSH20 0xFFFFFFFFFFFFFFFFFFFFFFFFFFFFFFFFFFFFFFFF AND EQ PUSH2 0x24C JUMPI PUSH1 0x40 MLOAD PUSH32 0x8C379A000000000000000000000000000000000000000000000000000000000 DUP2 MSTORE PUSH1 0x4 ADD PUSH2 0x243 SWAP1 PUSH2 0x9D2 JUMP JUMPDEST PUSH1 0x40 MLOAD DUP1 SWAP2 SUB SWAP1 REVERT JUMPDEST PUSH0 DUP1 SHL PUSH0 DUP2 SWAP1 SSTORE POP PUSH0 SELFBALANCE SWAP1 POP PUSH1 0x1 PUSH0 SWAP1 SLOAD SWAP1 PUSH2 0x100 EXP SWAP1 DIV PUSH20 0xFFFFFFFFFFFFFFFFFFFFFFFFFFFFFFFFFFFFFFFF AND PUSH20 0xFFFFFFFFFFFFFFFFFFFFFFFFFFFFFFFFFFFFFFFF AND PUSH2 0x8FC DUP3 SWAP1 DUP2 ISZERO MUL SWAP1 PUSH1 0x40 MLOAD PUSH0 PUSH1 0x40 MLOAD DUP1 DUP4 SUB DUP2 DUP6 DUP9 DUP9 CALL SWAP4 POP POP POP POP ISZERO DUP1 ISZERO PUSH2 0x2BC JUMPI RETURNDATASIZE PUSH0 DUP1 RETURNDATACOPY RETURNDATASIZE PUSH0 REVERT JUMPDEST POP CALLER PUSH20 0xFFFFFFFFFFFFFFFFFFFFFFFFFFFFFFFFFFFFFFFF AND PUSH32 0x7BE0CF12131690E539B6205EDEF2A3F931615E4273BC6310355344C5AF30506B DUP3 PUSH1 0x40 MLOAD PUSH2 0x303 SWAP2 SWAP1 PUSH2 0x824 JUMP JUMPDEST PUSH1 0x40 MLOAD DUP1 SWAP2 SUB SWAP1 LOG2 POP JUMP JUMPDEST PUSH0 SELFBALANCE GT PUSH2 0x350 JUMPI PUSH1 0x40 MLOAD PUSH32 0x8C379A000000000000000000000000000000000000000000000000000000000 DUP2 MSTORE PUSH1 0x4 ADD PUSH2 0x347 SWAP1 PUSH2 0x944 JUMP JUMPDEST PUSH1 0x40 MLOAD DUP1 SWAP2 SUB SWAP1 REVERT JUMPDEST DUP1 PUSH1 0x40 MLOAD PUSH1 0x20 ADD PUSH2 0x361 SWAP2 SWAP1 PUSH2 0xA42 JUMP JUMPDEST PUSH1 0x40 MLOAD PUSH1 0x20 DUP2 DUP4 SUB SUB DUP2 MSTORE SWAP1 PUSH1 0x40 MSTORE DUP1 MLOAD SWAP1 PUSH1 0x20 ADD KECCAK256 PUSH0 SLOAD EQ PUSH2 0x3B9 JUMPI PUSH1 0x40 MLOAD PUSH32 0x8C379A000000000000000000000000000000000000000000000000000000000 DUP2 MSTORE PUSH1 0x4 ADD PUSH2 0x3B0 SWAP1 PUSH2 0xAA2 JUMP JUMPDEST PUSH1 0x40 MLOAD DUP1 SWAP2 SUB SWAP1 REVERT JUMPDEST PUSH0 DUP1 SHL PUSH0 DUP2 SWAP1 SSTORE POP PUSH0 SELFBALANCE SWAP1 POP CALLER PUSH20 0xFFFFFFFFFFFFFFFFFFFFFFFFFFFFFFFFFFFFFFFF AND PUSH2 0x8FC SELFBALANCE SWAP1 DUP2 ISZERO MUL SWAP1 PUSH1 0x40 MLOAD PUSH0 PUSH1 0x40 MLOAD DUP1 DUP4 SUB DUP2 DUP6 DUP9 DUP9 CALL SWAP4 POP POP POP POP ISZERO DUP1 ISZERO PUSH2 0x408 JUMPI RETURNDATASIZE PUSH0 DUP1 RETURNDATACOPY RETURNDATASIZE PUSH0 REVERT JUMPDEST POP CALLER PUSH20 0xFFFFFFFFFFFFFFFFFFFFFFFFFFFFFFFFFFFFFFFF AND PUSH32 0x7FCF532C15F0A6DB0BD6D0E038BEA71D30D808C7D98CB3BF7268A95BF5081B65 DUP3 PUSH1 0x40 MLOAD PUSH2 0x44F SWAP2 SWAP1 PUSH2 0x824 JUMP JUMPDEST PUSH1 0x40 MLOAD DUP1 SWAP2 SUB SWAP1 LOG2 POP POP JUMP JUMPDEST PUSH0 SELFBALANCE SWAP1 POP SWAP1 JUMP JUMPDEST PUSH1 0x1 PUSH0 SWAP1 SLOAD SWAP1 PUSH2 0x100 EXP SWAP1 DIV PUSH20 0xFFFFFFFFFFFFFFFFFFFFFFFFFFFFFFFFFFFFFFFF AND DUP2 JUMP JUMPDEST PUSH1 0x1 PUSH0 SWAP1 SLOAD SWAP1 PUSH2 0x100 EXP SWAP1 DIV PUSH20 0xFFFFFFFFFFFFFFFFFFFFFFFFFFFFFFFFFFFFFFFF AND PUSH20 0xFFFFFFFFFFFFFFFFFFFFFFFFFFFFFFFFFFFFFFFF AND CALLER PUSH20 0xFFFFFFFFFFFFFFFFFFFFFFFFFFFFFFFFFFFFFFFF AND EQ PUSH2 0x516 JUMPI PUSH1 0x40 MLOAD PUSH32 0x8C379A000000000000000000000000000000000000000000000000000000000 DUP2 MSTORE PUSH1 0x4 ADD PUSH2 0x50D SWAP1 PUSH2 0x9D2 JUMP JUMPDEST PUSH1 0x40 MLOAD DUP1 SWAP2 SUB SWAP1 REVERT JUMPDEST PUSH0 CALLVALUE GT PUSH2 0x558 JUMPI PUSH1 0x40 MLOAD PUSH32 0x8C379A000000000000000000000000000000000000000000000000000000000 DUP2 MSTORE PUSH1 0x4 ADD PUSH2 0x54F SWAP1 PUSH2 0xB30 JUMP JUMPDEST PUSH1 0x40 MLOAD DUP1 SWAP2 SUB SWAP1 REVERT JUMPDEST DUP1 PUSH0 DUP2 SWAP1 SSTORE POP CALLER PUSH20 0xFFFFFFFFFFFFFFFFFFFFFFFFFFFFFFFFFFFFFFFF AND PUSH32 0xD15C9547EA5C06670C0010CE19BC32D54682A4B3801ECE7F3AB0C3F17106B4BB CALLVALUE PUSH1 0x40 MLOAD PUSH2 0x5A4 SWAP2 SWAP1 PUSH2 0x824 JUMP JUMPDEST PUSH1 0x40 MLOAD DUP1 SWAP2 SUB SWAP1 LOG2 POP JUMP JUMPDEST PUSH1 0x1 PUSH0 SWAP1 SLOAD SWAP1 PUSH2 0x100 EXP SWAP1 DIV PUSH20 0xFFFFFFFFFFFFFFFFFFFFFFFFFFFFFFFFFFFFFFFF AND PUSH20 0xFFFFFFFFFFFFFFFFFFFFFFFFFFFFFFFFFFFFFFFF AND CALLER PUSH20 0xFFFFFFFFFFFFFFFFFFFFFFFFFFFFFFFFFFFFFFFF AND EQ PUSH2 0x63E JUMPI PUSH1 0x40 MLOAD PUSH32 0x8C379A000000000000000000000000000000000000000000000000000000000 DUP2 MSTORE PUSH1 0x4 ADD PUSH2 0x635 SWAP1 PUSH2 0x9D2 JUMP JUMPDEST PUSH1 0x40 MLOAD DUP1 SWAP2 SUB SWAP1 REVERT JUMPDEST DUP1 PUSH0 DUP2 SWAP1 SSTORE POP POP JUMP JUMPDEST PUSH0 DUP2 SWAP1 POP SWAP2 SWAP1 POP JUMP JUMPDEST PUSH2 0x659 DUP2 PUSH2 0x647 JUMP JUMPDEST DUP3 MSTORE POP POP JUMP JUMPDEST PUSH0 PUSH1 0x20 DUP3 ADD SWAP1 POP PUSH2 0x672 PUSH0 DUP4 ADD DUP5 PUSH2 0x650 JUMP JUMPDEST SWAP3 SWAP2 POP POP JUMP JUMPDEST PUSH0 PUSH1 0x40 MLOAD SWAP1 POP SWAP1 JUMP JUMPDEST PUSH0 DUP1 REVERT JUMPDEST PUSH0 DUP1 REVERT JUMPDEST PUSH0 DUP1 REVERT JUMPDEST PUSH0 DUP1 REVERT JUMPDEST PUSH0 PUSH1 0x1F NOT PUSH1 0x1F DUP4 ADD AND SWAP1 POP SWAP2 SWAP1 POP JUMP JUMPDEST PUSH32 0x4E487B7100000000000000000000000000000000000000000000000000000000 PUSH0 MSTORE PUSH1 0x41 PUSH1 0x4 MSTORE PUSH1 0x24 PUSH0 REVERT JUMPDEST PUSH2 0x6D7 DUP3 PUSH2 0x691 JUMP JUMPDEST DUP2 ADD DUP2 DUP2 LT PUSH8 0xFFFFFFFFFFFFFFFF DUP3 GT OR ISZERO PUSH2 0x6F6 JUMPI PUSH2 0x6F5 PUSH2 0x6A1 JUMP JUMPDEST JUMPDEST DUP1 PUSH1 0x40 MSTORE POP POP POP JUMP JUMPDEST PUSH0 PUSH2 0x708 PUSH2 0x678 JUMP JUMPDEST SWAP1 POP PUSH2 0x714 DUP3 DUP3 PUSH2 0x6CE JUMP JUMPDEST SWAP2 SWAP1 POP JUMP JUMPDEST PUSH0 PUSH8 0xFFFFFFFFFFFFFFFF DUP3 GT ISZERO PUSH2 0x733 JUMPI PUSH2 0x732 PUSH2 0x6A1 JUMP JUMPDEST JUMPDEST PUSH2 0x73C DUP3 PUSH2 0x691 JUMP JUMPDEST SWAP1 POP PUSH1 0x20 DUP2 ADD SWAP1 POP SWAP2 SWAP1 POP JUMP JUMPDEST DUP3 DUP2 DUP4 CALLDATACOPY PUSH0 DUP4 DUP4 ADD MSTORE POP POP POP JUMP JUMPDEST PUSH0 PUSH2 0x769 PUSH2 0x764 DUP5 PUSH2 0x719 JUMP JUMPDEST PUSH2 0x6FF JUMP JUMPDEST SWAP1 POP DUP3 DUP2 MSTORE PUSH1 0x20 DUP2 ADD DUP5 DUP5 DUP5 ADD GT ISZERO PUSH2 0x785 JUMPI PUSH2 0x784 PUSH2 0x68D JUMP JUMPDEST JUMPDEST PUSH2 0x790 DUP5 DUP3 DUP6 PUSH2 0x749 JUMP JUMPDEST POP SWAP4 SWAP3 POP POP POP JUMP JUMPDEST PUSH0 DUP3 PUSH1 0x1F DUP4 ADD SLT PUSH2 0x7AC JUMPI PUSH2 0x7AB PUSH2 0x689 JUMP JUMPDEST JUMPDEST DUP2 CALLDATALOAD PUSH2 0x7BC DUP5 DUP3 PUSH1 0x20 DUP7 ADD PUSH2 0x757 JUMP JUMPDEST SWAP2 POP POP SWAP3 SWAP2 POP POP JUMP JUMPDEST PUSH0 PUSH1 0x20 DUP3 DUP5 SUB SLT ISZERO PUSH2 0x7DA JUMPI PUSH2 0x7D9 PUSH2 0x681 JUMP JUMPDEST JUMPDEST PUSH0 DUP3 ADD CALLDATALOAD PUSH8 0xFFFFFFFFFFFFFFFF DUP2 GT ISZERO PUSH2 0x7F7 JUMPI PUSH2 0x7F6 PUSH2 0x685 JUMP JUMPDEST JUMPDEST PUSH2 0x803 DUP5 DUP3 DUP6 ADD PUSH2 0x798 JUMP JUMPDEST SWAP2 POP POP SWAP3 SWAP2 POP POP JUMP JUMPDEST PUSH0 DUP2 SWAP1 POP SWAP2 SWAP1 POP JUMP JUMPDEST PUSH2 0x81E DUP2 PUSH2 0x80C JUMP JUMPDEST DUP3 MSTORE POP POP JUMP JUMPDEST PUSH0 PUSH1 0x20 DUP3 ADD SWAP1 POP PUSH2 0x837 PUSH0 DUP4 ADD DUP5 PUSH2 0x815 JUMP JUMPDEST SWAP3 SWAP2 POP POP JUMP JUMPDEST PUSH0 PUSH20 0xFFFFFFFFFFFFFFFFFFFFFFFFFFFFFFFFFFFFFFFF DUP3 AND SWAP1 POP SWAP2 SWAP1 POP JUMP JUMPDEST PUSH0 PUSH2 0x866 DUP3 PUSH2 0x83D JUMP JUMPDEST SWAP1 POP SWAP2 SWAP1 POP JUMP JUMPDEST PUSH2 0x876 DUP2 PUSH2 0x85C JUMP JUMPDEST DUP3 MSTORE POP POP JUMP JUMPDEST PUSH0 PUSH1 0x20 DUP3 ADD SWAP1 POP PUSH2 0x88F PUSH0 DUP4 ADD DUP5 PUSH2 0x86D JUMP JUMPDEST SWAP3 SWAP2 POP POP JUMP JUMPDEST PUSH2 0x89E DUP2 PUSH2 0x647 JUMP JUMPDEST DUP2 EQ PUSH2 0x8A8 JUMPI PUSH0 DUP1 REVERT JUMPDEST POP JUMP JUMPDEST PUSH0 DUP2 CALLDATALOAD SWAP1 POP PUSH2 0x8B9 DUP2 PUSH2 0x895 JUMP JUMPDEST SWAP3 SWAP2 POP POP JUMP JUMPDEST PUSH0 PUSH1 0x20 DUP3 DUP5 SUB SLT ISZERO PUSH2 0x8D4 JUMPI PUSH2 0x8D3 PUSH2 0x681 JUMP JUMPDEST JUMPDEST PUSH0 PUSH2 0x8E1 DUP5 DUP3 DUP6 ADD PUSH2 0x8AB JUMP JUMPDEST SWAP2 POP POP SWAP3 SWAP2 POP POP JUMP JUMPDEST PUSH0 DUP3 DUP3 MSTORE PUSH1 0x20 DUP3 ADD SWAP1 POP SWAP3 SWAP2 POP POP JUMP JUMPDEST PUSH32 0x4465706F7369746F206E616F2065786973746500000000000000000000000000 PUSH0 DUP3 ADD MSTORE POP JUMP JUMPDEST PUSH0 PUSH2 0x92E PUSH1 0x13 DUP4 PUSH2 0x8EA JUMP JUMPDEST SWAP2 POP PUSH2 0x939 DUP3 PUSH2 0x8FA JUMP JUMPDEST PUSH1 0x20 DUP3 ADD SWAP1 POP SWAP2 SWAP1 POP JUMP JUMPDEST PUSH0 PUSH1 0x20 DUP3 ADD SWAP1 POP DUP2 DUP2 SUB PUSH0 DUP4 ADD MSTORE PUSH2 0x95B DUP2 PUSH2 0x922 JUMP JUMPDEST SWAP1 POP SWAP2 SWAP1 POP JUMP JUMPDEST PUSH32 0x4170656E6173206F20646F6E6F20706F64652065786563757461722065737461 PUSH0 DUP3 ADD MSTORE PUSH32 0x206F7065726163616F0000000000000000000000000000000000000000000000 PUSH1 0x20 DUP3 ADD MSTORE POP JUMP JUMPDEST PUSH0 PUSH2 0x9BC PUSH1 0x29 DUP4 PUSH2 0x8EA JUMP JUMPDEST SWAP2 POP PUSH2 0x9C7 DUP3 PUSH2 0x962 JUMP JUMPDEST PUSH1 0x40 DUP3 ADD SWAP1 POP SWAP2 SWAP1 POP JUMP JUMPDEST PUSH0 PUSH1 0x20 DUP3 ADD SWAP1 POP DUP2 DUP2 SUB PUSH0 DUP4 ADD MSTORE PUSH2 0x9E9 DUP2 PUSH2 0x9B0 JUMP JUMPDEST SWAP1 POP SWAP2 SWAP1 POP JUMP JUMPDEST PUSH0 DUP2 MLOAD SWAP1 POP SWAP2 SWAP1 POP JUMP JUMPDEST PUSH0 DUP2 SWAP1 POP SWAP3 SWAP2 POP POP JUMP JUMPDEST DUP3 DUP2 DUP4 MCOPY PUSH0 DUP4 DUP4 ADD MSTORE POP POP POP JUMP JUMPDEST PUSH0 PUSH2 0xA1C DUP3 PUSH2 0x9F0 JUMP JUMPDEST PUSH2 0xA26 DUP2 DUP6 PUSH2 0x9FA JUMP JUMPDEST SWAP4 POP PUSH2 0xA36 DUP2 DUP6 PUSH1 0x20 DUP7 ADD PUSH2 0xA04 JUMP JUMPDEST DUP1 DUP5 ADD SWAP2 POP POP SWAP3 SWAP2 POP POP JUMP JUMPDEST PUSH0 PUSH2 0xA4D DUP3 DUP5 PUSH2 0xA12 JUMP JUMPDEST SWAP2 POP DUP2 SWAP1 POP SWAP3 SWAP2 POP POP JUMP JUMPDEST PUSH32 0x53656E686120696E636F72726574610000000000000000000000000000000000 PUSH0 DUP3 ADD MSTORE POP JUMP JUMPDEST PUSH0 PUSH2 0xA8C PUSH1 0xF DUP4 PUSH2 0x8EA JUMP JUMPDEST SWAP2 POP PUSH2 0xA97 DUP3 PUSH2 0xA58 JUMP JUMPDEST PUSH1 0x20 DUP3 ADD SWAP1 POP SWAP2 SWAP1 POP JUMP JUMPDEST PUSH0 PUSH1 0x20 DUP3 ADD SWAP1 POP DUP2 DUP2 SUB PUSH0 DUP4 ADD MSTORE PUSH2 0xAB9 DUP2 PUSH2 0xA80 JUMP JUMPDEST SWAP1 POP SWAP2 SWAP1 POP JUMP JUMPDEST PUSH32 0x4F2076616C6F7220646F206465706F7369746F206465766520736572206D6169 PUSH0 DUP3 ADD MSTORE PUSH32 0x6F7220717565207A65726F000000000000000000000000000000000000000000 PUSH1 0x20 DUP3 ADD MSTORE POP JUMP JUMPDEST PUSH0 PUSH2 0xB1A PUSH1 0x2B DUP4 PUSH2 0x8EA JUMP JUMPDEST SWAP2 POP PUSH2 0xB25 DUP3 PUSH2 0xAC0 JUMP JUMPDEST PUSH1 0x40 DUP3 ADD SWAP1 POP SWAP2 SWAP1 POP JUMP JUMPDEST PUSH0 PUSH1 0x20 DUP3 ADD SWAP1 POP DUP2 DUP2 SUB PUSH0 DUP4 ADD MSTORE PUSH2 0xB47 DUP2 PUSH2 0xB0E JUMP JUMPDEST SWAP1 POP SWAP2 SWAP1 POP JUMP INVALID LOG2 PUSH5 0x6970667358 0x22 SLT KECCAK256 INVALID 0xC6 0xF6 DELEGATECALL 0x27 DUP9 EXP 0xB3 SWAP8 PUSH27 0x78909987DE7A353714C7E96D1AC0DE95C51A54D32E4B64736F6C63 NUMBER STOP ADDMOD BYTE STOP CALLER "
				},
				"gasEstimates": {
					"creation": {
						"codeDepositCost": "589600",
						"executionCost": "24888",
						"totalCost": "614488"
					},
					"external": {
						"deposit(bytes32)": "26294",
						"owner()": "2530",
						"reclaimDeposit()": "infinite",
						"resetPassword(bytes32)": "24749",
						"showBalance()": "334",
						"showHashedPassword()": "2433",
						"withdraw(string)": "infinite"
					}
				},
				"methodIdentifiers": {
					"deposit(bytes32)": "b214faa5",
					"owner()": "8da5cb5b",
					"reclaimDeposit()": "1f3ff68d",
					"resetPassword(bytes32)": "caf6492e",
					"showBalance()": "81b2d07b",
					"showHashedPassword()": "1a42ba0c",
					"withdraw(string)": "31fb67c2"
				}
			},
			"storageLayout": {
				"storage": [
					{
						"astId": 3,
						"contract": "VaultFinal.sol:PublicVault",
						"label": "passwordHash",
						"offset": 0,
						"slot": "0",
						"type": "t_bytes32"
					},
					{
						"astId": 5,
						"contract": "VaultFinal.sol:PublicVault",
						"label": "owner",
						"offset": 0,
						"slot": "1",
						"type": "t_address"
					}
				],
				"types": {
					"t_address": {
						"encoding": "inplace",
						"label": "address",
						"numberOfBytes": "20"
					},
					"t_bytes32": {
						"encoding": "inplace",
						"label": "bytes32",
						"numberOfBytes": "32"
					}
				}
			},
			"userdoc": {
				"kind": "user",
				"methods": {},
				"version": 1
			}
		}
	}
}