{
	"Trust.sol": {
		"Trust": {
			"abi": [
				{
					"inputs": [],
					"stateMutability": "nonpayable",
					"type": "constructor"
				},
				{
					"inputs": [
						{
							"internalType": "address",
							"name": "kid",
							"type": "address"
						},
						{
							"internalType": "uint256",
							"name": "timeToMaturity",
							"type": "uint256"
						}
					],
					"name": "addKid",
					"outputs": [],
					"stateMutability": "payable",
					"type": "function"
				},
				{
					"inputs": [],
					"name": "admin",
					"outputs": [
						{
							"internalType": "address",
							"name": "",
							"type": "address"
						}
					],
					"stateMutability": "view",
					"type": "function"
				},
				{
					"inputs": [
						{
							"internalType": "address",
							"name": "",
							"type": "address"
						}
					],
					"name": "kids",
					"outputs": [
						{
							"internalType": "uint256",
							"name": "amount",
							"type": "uint256"
						},
						{
							"internalType": "uint256",
							"name": "maturity",
							"type": "uint256"
						},
						{
							"internalType": "bool",
							"name": "paid",
							"type": "bool"
						}
					],
					"stateMutability": "view",
					"type": "function"
				},
				{
					"inputs": [],
					"name": "withdraw",
					"outputs": [],
					"stateMutability": "nonpayable",
					"type": "function"
				}
			],
			"devdoc": {
				"kind": "dev",
				"methods": {},
				"version": 1
			},
			"evm": {
				"assembly": "    /* \"Trust.sol\":62:926  contract Trust {... */\n  mstore(0x40, 0x80)\n    /* \"Trust.sol\":246:296  constructor(){... */\n  callvalue\n  dup1\n  iszero\n  tag_1\n  jumpi\n  0x00\n  dup1\n  revert\ntag_1:\n  pop\n    /* \"Trust.sol\":278:288  msg.sender */\n  caller\n    /* \"Trust.sol\":270:275  admin */\n  0x01\n  0x00\n    /* \"Trust.sol\":270:288  admin = msg.sender */\n  0x0100\n  exp\n  dup2\n  sload\n  dup2\n  0xffffffffffffffffffffffffffffffffffffffff\n  mul\n  not\n  and\n  swap1\n  dup4\n  0xffffffffffffffffffffffffffffffffffffffff\n  and\n  mul\n  or\n  swap1\n  sstore\n  pop\n    /* \"Trust.sol\":62:926  contract Trust {... */\n  dataSize(sub_0)\n  dup1\n  dataOffset(sub_0)\n  0x00\n  codecopy\n  0x00\n  return\nstop\n\nsub_0: assembly {\n        /* \"Trust.sol\":62:926  contract Trust {... */\n      mstore(0x40, 0x80)\n      jumpi(tag_1, lt(calldatasize, 0x04))\n      shr(0xe0, calldataload(0x00))\n      dup1\n      0x2438628c\n      eq\n      tag_2\n      jumpi\n      dup1\n      0x3ccfd60b\n      eq\n      tag_3\n      jumpi\n      dup1\n      0x40990e30\n      eq\n      tag_4\n      jumpi\n      dup1\n      0xf851a440\n      eq\n      tag_5\n      jumpi\n    tag_1:\n      0x00\n      dup1\n      revert\n        /* \"Trust.sol\":175:210  mapping(address => Kid) public kids */\n    tag_2:\n      callvalue\n      dup1\n      iszero\n      tag_6\n      jumpi\n      0x00\n      dup1\n      revert\n    tag_6:\n      pop\n      tag_7\n      0x04\n      dup1\n      calldatasize\n      sub\n      dup2\n      add\n      swap1\n      tag_8\n      swap2\n      swap1\n      tag_9\n      jump\t// in\n    tag_8:\n      tag_10\n      jump\t// in\n    tag_7:\n      mload(0x40)\n      tag_11\n      swap4\n      swap3\n      swap2\n      swap1\n      tag_12\n      jump\t// in\n    tag_11:\n      mload(0x40)\n      dup1\n      swap2\n      sub\n      swap1\n      return\n        /* \"Trust.sol\":588:923  function withdraw() external {... */\n    tag_3:\n      callvalue\n      dup1\n      iszero\n      tag_13\n      jumpi\n      0x00\n      dup1\n      revert\n    tag_13:\n      pop\n      tag_14\n      tag_15\n      jump\t// in\n    tag_14:\n      stop\n        /* \"Trust.sol\":304:580  function addKid(address kid, uint timeToMaturity) external  payable {... */\n    tag_4:\n      tag_16\n      0x04\n      dup1\n      calldatasize\n      sub\n      dup2\n      add\n      swap1\n      tag_17\n      swap2\n      swap1\n      tag_18\n      jump\t// in\n    tag_17:\n      tag_19\n      jump\t// in\n    tag_16:\n      stop\n        /* \"Trust.sol\":217:237  address public admin */\n    tag_5:\n      callvalue\n      dup1\n      iszero\n      tag_20\n      jumpi\n      0x00\n      dup1\n      revert\n    tag_20:\n      pop\n      tag_21\n      tag_22\n      jump\t// in\n    tag_21:\n      mload(0x40)\n      tag_23\n      swap2\n      swap1\n      tag_24\n      jump\t// in\n    tag_23:\n      mload(0x40)\n      dup1\n      swap2\n      sub\n      swap1\n      return\n        /* \"Trust.sol\":175:210  mapping(address => Kid) public kids */\n    tag_10:\n      mstore(0x20, 0x00)\n      dup1\n      0x00\n      mstore\n      keccak256(0x00, 0x40)\n      0x00\n      swap2\n      pop\n      swap1\n      pop\n      dup1\n      0x00\n      add\n      sload\n      swap1\n      dup1\n      0x01\n      add\n      sload\n      swap1\n      dup1\n      0x02\n      add\n      0x00\n      swap1\n      sload\n      swap1\n      0x0100\n      exp\n      swap1\n      div\n      0xff\n      and\n      swap1\n      pop\n      dup4\n      jump\t// out\n        /* \"Trust.sol\":588:923  function withdraw() external {... */\n    tag_15:\n        /* \"Trust.sol\":628:643  Kid storage kid */\n      0x00\n        /* \"Trust.sol\":646:650  kids */\n      dup1\n        /* \"Trust.sol\":646:662  kids[msg.sender] */\n      0x00\n        /* \"Trust.sol\":651:661  msg.sender */\n      caller\n        /* \"Trust.sol\":646:662  kids[msg.sender] */\n      0xffffffffffffffffffffffffffffffffffffffff\n      and\n      0xffffffffffffffffffffffffffffffffffffffff\n      and\n      dup2\n      mstore\n      0x20\n      add\n      swap1\n      dup2\n      mstore\n      0x20\n      add\n      0x00\n      keccak256\n        /* \"Trust.sol\":628:662  Kid storage kid = kids[msg.sender] */\n      swap1\n      pop\n        /* \"Trust.sol\":697:712  block.timestamp */\n      timestamp\n        /* \"Trust.sol\":681:684  kid */\n      dup2\n        /* \"Trust.sol\":681:693  kid.maturity */\n      0x01\n      add\n      sload\n        /* \"Trust.sol\":681:712  kid.maturity <= block.timestamp */\n      gt\n      iszero\n        /* \"Trust.sol\":673:726  require(kid.maturity <= block.timestamp, 'too early') */\n      tag_26\n      jumpi\n      mload(0x40)\n      0x08c379a000000000000000000000000000000000000000000000000000000000\n      dup2\n      mstore\n      0x04\n      add\n      tag_27\n      swap1\n      tag_28\n      jump\t// in\n    tag_27:\n      mload(0x40)\n      dup1\n      swap2\n      sub\n      swap1\n      revert\n    tag_26:\n        /* \"Trust.sol\":758:759  0 */\n      0x00\n        /* \"Trust.sol\":745:748  kid */\n      dup2\n        /* \"Trust.sol\":745:755  kid.amount */\n      0x00\n      add\n      sload\n        /* \"Trust.sol\":745:759  kid.amount > 0 */\n      gt\n        /* \"Trust.sol\":737:785  require(kid.amount > 0, 'only kid can withdraw') */\n      tag_29\n      jumpi\n      mload(0x40)\n      0x08c379a000000000000000000000000000000000000000000000000000000000\n      dup2\n      mstore\n      0x04\n      add\n      tag_30\n      swap1\n      tag_31\n      jump\t// in\n    tag_30:\n      mload(0x40)\n      dup1\n      swap2\n      sub\n      swap1\n      revert\n    tag_29:\n        /* \"Trust.sol\":816:821  false */\n      0x00\n        /* \"Trust.sol\":804:821  kid.paid == false */\n      iszero\n      iszero\n        /* \"Trust.sol\":804:807  kid */\n      dup2\n        /* \"Trust.sol\":804:812  kid.paid */\n      0x02\n      add\n      0x00\n      swap1\n      sload\n      swap1\n      0x0100\n      exp\n      swap1\n      div\n      0xff\n      and\n        /* \"Trust.sol\":804:821  kid.paid == false */\n      iszero\n      iszero\n      eq\n        /* \"Trust.sol\":796:838  require(kid.paid == false, 'paid already') */\n      tag_32\n      jumpi\n      mload(0x40)\n      0x08c379a000000000000000000000000000000000000000000000000000000000\n      dup2\n      mstore\n      0x04\n      add\n      tag_33\n      swap1\n      tag_34\n      jump\t// in\n    tag_33:\n      mload(0x40)\n      dup1\n      swap2\n      sub\n      swap1\n      revert\n    tag_32:\n        /* \"Trust.sol\":860:864  true */\n      0x01\n        /* \"Trust.sol\":849:852  kid */\n      dup2\n        /* \"Trust.sol\":849:857  kid.paid */\n      0x02\n      add\n      0x00\n        /* \"Trust.sol\":849:864  kid.paid = true */\n      0x0100\n      exp\n      dup2\n      sload\n      dup2\n      0xff\n      mul\n      not\n      and\n      swap1\n      dup4\n      iszero\n      iszero\n      mul\n      or\n      swap1\n      sstore\n      pop\n        /* \"Trust.sol\":883:893  msg.sender */\n      caller\n        /* \"Trust.sol\":875:903  payable(msg.sender).transfer */\n      0xffffffffffffffffffffffffffffffffffffffff\n      and\n        /* \"Trust.sol\":875:915  payable(msg.sender).transfer(kid.amount) */\n      0x08fc\n        /* \"Trust.sol\":904:907  kid */\n      dup3\n        /* \"Trust.sol\":904:914  kid.amount */\n      0x00\n      add\n      sload\n        /* \"Trust.sol\":875:915  payable(msg.sender).transfer(kid.amount) */\n      swap1\n      dup2\n      iszero\n      mul\n      swap1\n      mload(0x40)\n      0x00\n      mload(0x40)\n      dup1\n      dup4\n      sub\n      dup2\n      dup6\n      dup9\n      dup9\n      call\n      swap4\n      pop\n      pop\n      pop\n      pop\n      iszero\n      dup1\n      iszero\n      tag_36\n      jumpi\n      returndatasize\n      0x00\n      dup1\n      returndatacopy\n      revert(0x00, returndatasize)\n    tag_36:\n      pop\n        /* \"Trust.sol\":617:923  {... */\n      pop\n        /* \"Trust.sol\":588:923  function withdraw() external {... */\n      jump\t// out\n        /* \"Trust.sol\":304:580  function addKid(address kid, uint timeToMaturity) external  payable {... */\n    tag_19:\n        /* \"Trust.sol\":405:410  admin */\n      0x01\n      0x00\n      swap1\n      sload\n      swap1\n      0x0100\n      exp\n      swap1\n      div\n      0xffffffffffffffffffffffffffffffffffffffff\n      and\n        /* \"Trust.sol\":391:410  msg.sender == admin */\n      0xffffffffffffffffffffffffffffffffffffffff\n      and\n        /* \"Trust.sol\":391:401  msg.sender */\n      caller\n        /* \"Trust.sol\":391:410  msg.sender == admin */\n      0xffffffffffffffffffffffffffffffffffffffff\n      and\n      eq\n        /* \"Trust.sol\":383:425  require(msg.sender == admin, 'only admin') */\n      tag_38\n      jumpi\n      mload(0x40)\n      0x08c379a000000000000000000000000000000000000000000000000000000000\n      dup2\n      mstore\n      0x04\n      add\n      tag_39\n      swap1\n      tag_40\n      jump\t// in\n    tag_39:\n      mload(0x40)\n      dup1\n      swap2\n      sub\n      swap1\n      revert\n    tag_38:\n        /* \"Trust.sol\":471:472  0 */\n      0x00\n        /* \"Trust.sol\":444:448  kids */\n      dup1\n        /* \"Trust.sol\":444:460  kids[msg.sender] */\n      0x00\n        /* \"Trust.sol\":449:459  msg.sender */\n      caller\n        /* \"Trust.sol\":444:460  kids[msg.sender] */\n      0xffffffffffffffffffffffffffffffffffffffff\n      and\n      0xffffffffffffffffffffffffffffffffffffffff\n      and\n      dup2\n      mstore\n      0x20\n      add\n      swap1\n      dup2\n      mstore\n      0x20\n      add\n      0x00\n      keccak256\n        /* \"Trust.sol\":444:467  kids[msg.sender].amount */\n      0x00\n      add\n      sload\n        /* \"Trust.sol\":444:472  kids[msg.sender].amount == 0 */\n      eq\n        /* \"Trust.sol\":436:494  require(kids[msg.sender].amount == 0, 'kid already exist') */\n      tag_41\n      jumpi\n      mload(0x40)\n      0x08c379a000000000000000000000000000000000000000000000000000000000\n      dup2\n      mstore\n      0x04\n      add\n      tag_42\n      swap1\n      tag_43\n      jump\t// in\n    tag_42:\n      mload(0x40)\n      dup1\n      swap2\n      sub\n      swap1\n      revert\n    tag_41:\n        /* \"Trust.sol\":517:572  Kid(msg.value, block.timestamp + timeToMaturity, false) */\n      mload(0x40)\n      dup1\n      0x60\n      add\n      0x40\n      mstore\n      dup1\n        /* \"Trust.sol\":521:530  msg.value */\n      callvalue\n        /* \"Trust.sol\":517:572  Kid(msg.value, block.timestamp + timeToMaturity, false) */\n      dup2\n      mstore\n      0x20\n      add\n        /* \"Trust.sol\":550:564  timeToMaturity */\n      dup3\n        /* \"Trust.sol\":532:547  block.timestamp */\n      timestamp\n        /* \"Trust.sol\":532:564  block.timestamp + timeToMaturity */\n      tag_44\n      swap2\n      swap1\n      tag_45\n      jump\t// in\n    tag_44:\n        /* \"Trust.sol\":517:572  Kid(msg.value, block.timestamp + timeToMaturity, false) */\n      dup2\n      mstore\n      0x20\n      add\n        /* \"Trust.sol\":566:571  false */\n      0x00\n        /* \"Trust.sol\":517:572  Kid(msg.value, block.timestamp + timeToMaturity, false) */\n      iszero\n      iszero\n      dup2\n      mstore\n      pop\n        /* \"Trust.sol\":505:509  kids */\n      0x00\n        /* \"Trust.sol\":505:514  kids[kid] */\n      dup1\n        /* \"Trust.sol\":510:513  kid */\n      dup5\n        /* \"Trust.sol\":505:514  kids[kid] */\n      0xffffffffffffffffffffffffffffffffffffffff\n      and\n      0xffffffffffffffffffffffffffffffffffffffff\n      and\n      dup2\n      mstore\n      0x20\n      add\n      swap1\n      dup2\n      mstore\n      0x20\n      add\n      0x00\n      keccak256\n        /* \"Trust.sol\":505:572  kids[kid] = Kid(msg.value, block.timestamp + timeToMaturity, false) */\n      0x00\n      dup3\n      add\n      mload\n      dup2\n      0x00\n      add\n      sstore\n      0x20\n      dup3\n      add\n      mload\n      dup2\n      0x01\n      add\n      sstore\n      0x40\n      dup3\n      add\n      mload\n      dup2\n      0x02\n      add\n      exp(0x0100, 0x00)\n      dup2\n      sload\n      dup2\n      0xff\n      mul\n      not\n      and\n      swap1\n      dup4\n      iszero\n      iszero\n      mul\n      or\n      swap1\n      sstore\n      pop\n      swap1\n      pop\n      pop\n        /* \"Trust.sol\":304:580  function addKid(address kid, uint timeToMaturity) external  payable {... */\n      pop\n      pop\n      jump\t// out\n        /* \"Trust.sol\":217:237  address public admin */\n    tag_22:\n      0x01\n      0x00\n      swap1\n      sload\n      swap1\n      0x0100\n      exp\n      swap1\n      div\n      0xffffffffffffffffffffffffffffffffffffffff\n      and\n      dup2\n      jump\t// out\n        /* \"#utility.yul\":88:205   */\n    tag_47:\n        /* \"#utility.yul\":197:198   */\n      0x00\n        /* \"#utility.yul\":194:195   */\n      dup1\n        /* \"#utility.yul\":187:199   */\n      revert\n        /* \"#utility.yul\":334:460   */\n    tag_49:\n        /* \"#utility.yul\":371:378   */\n      0x00\n        /* \"#utility.yul\":411:453   */\n      0xffffffffffffffffffffffffffffffffffffffff\n        /* \"#utility.yul\":404:409   */\n      dup3\n        /* \"#utility.yul\":400:454   */\n      and\n        /* \"#utility.yul\":389:454   */\n      swap1\n      pop\n        /* \"#utility.yul\":334:460   */\n      swap2\n      swap1\n      pop\n      jump\t// out\n        /* \"#utility.yul\":466:562   */\n    tag_50:\n        /* \"#utility.yul\":503:510   */\n      0x00\n        /* \"#utility.yul\":532:556   */\n      tag_78\n        /* \"#utility.yul\":550:555   */\n      dup3\n        /* \"#utility.yul\":532:556   */\n      tag_49\n      jump\t// in\n    tag_78:\n        /* \"#utility.yul\":521:556   */\n      swap1\n      pop\n        /* \"#utility.yul\":466:562   */\n      swap2\n      swap1\n      pop\n      jump\t// out\n        /* \"#utility.yul\":568:690   */\n    tag_51:\n        /* \"#utility.yul\":641:665   */\n      tag_80\n        /* \"#utility.yul\":659:664   */\n      dup2\n        /* \"#utility.yul\":641:665   */\n      tag_50\n      jump\t// in\n    tag_80:\n        /* \"#utility.yul\":634:639   */\n      dup2\n        /* \"#utility.yul\":631:666   */\n      eq\n        /* \"#utility.yul\":621:684   */\n      tag_81\n      jumpi\n        /* \"#utility.yul\":680:681   */\n      0x00\n        /* \"#utility.yul\":677:678   */\n      dup1\n        /* \"#utility.yul\":670:682   */\n      revert\n        /* \"#utility.yul\":621:684   */\n    tag_81:\n        /* \"#utility.yul\":568:690   */\n      pop\n      jump\t// out\n        /* \"#utility.yul\":696:835   */\n    tag_52:\n        /* \"#utility.yul\":742:747   */\n      0x00\n        /* \"#utility.yul\":780:786   */\n      dup2\n        /* \"#utility.yul\":767:787   */\n      calldataload\n        /* \"#utility.yul\":758:787   */\n      swap1\n      pop\n        /* \"#utility.yul\":796:829   */\n      tag_83\n        /* \"#utility.yul\":823:828   */\n      dup2\n        /* \"#utility.yul\":796:829   */\n      tag_51\n      jump\t// in\n    tag_83:\n        /* \"#utility.yul\":696:835   */\n      swap3\n      swap2\n      pop\n      pop\n      jump\t// out\n        /* \"#utility.yul\":841:1170   */\n    tag_9:\n        /* \"#utility.yul\":900:906   */\n      0x00\n        /* \"#utility.yul\":949:951   */\n      0x20\n        /* \"#utility.yul\":937:946   */\n      dup3\n        /* \"#utility.yul\":928:935   */\n      dup5\n        /* \"#utility.yul\":924:947   */\n      sub\n        /* \"#utility.yul\":920:952   */\n      slt\n        /* \"#utility.yul\":917:1036   */\n      iszero\n      tag_85\n      jumpi\n        /* \"#utility.yul\":955:1034   */\n      tag_86\n      tag_47\n      jump\t// in\n    tag_86:\n        /* \"#utility.yul\":917:1036   */\n    tag_85:\n        /* \"#utility.yul\":1075:1076   */\n      0x00\n        /* \"#utility.yul\":1100:1153   */\n      tag_87\n        /* \"#utility.yul\":1145:1152   */\n      dup5\n        /* \"#utility.yul\":1136:1142   */\n      dup3\n        /* \"#utility.yul\":1125:1134   */\n      dup6\n        /* \"#utility.yul\":1121:1143   */\n      add\n        /* \"#utility.yul\":1100:1153   */\n      tag_52\n      jump\t// in\n    tag_87:\n        /* \"#utility.yul\":1090:1153   */\n      swap2\n      pop\n        /* \"#utility.yul\":1046:1163   */\n      pop\n        /* \"#utility.yul\":841:1170   */\n      swap3\n      swap2\n      pop\n      pop\n      jump\t// out\n        /* \"#utility.yul\":1176:1253   */\n    tag_53:\n        /* \"#utility.yul\":1213:1220   */\n      0x00\n        /* \"#utility.yul\":1242:1247   */\n      dup2\n        /* \"#utility.yul\":1231:1247   */\n      swap1\n      pop\n        /* \"#utility.yul\":1176:1253   */\n      swap2\n      swap1\n      pop\n      jump\t// out\n        /* \"#utility.yul\":1259:1377   */\n    tag_54:\n        /* \"#utility.yul\":1346:1370   */\n      tag_90\n        /* \"#utility.yul\":1364:1369   */\n      dup2\n        /* \"#utility.yul\":1346:1370   */\n      tag_53\n      jump\t// in\n    tag_90:\n        /* \"#utility.yul\":1341:1344   */\n      dup3\n        /* \"#utility.yul\":1334:1371   */\n      mstore\n        /* \"#utility.yul\":1259:1377   */\n      pop\n      pop\n      jump\t// out\n        /* \"#utility.yul\":1383:1473   */\n    tag_55:\n        /* \"#utility.yul\":1417:1424   */\n      0x00\n        /* \"#utility.yul\":1460:1465   */\n      dup2\n        /* \"#utility.yul\":1453:1466   */\n      iszero\n        /* \"#utility.yul\":1446:1467   */\n      iszero\n        /* \"#utility.yul\":1435:1467   */\n      swap1\n      pop\n        /* \"#utility.yul\":1383:1473   */\n      swap2\n      swap1\n      pop\n      jump\t// out\n        /* \"#utility.yul\":1479:1588   */\n    tag_56:\n        /* \"#utility.yul\":1560:1581   */\n      tag_93\n        /* \"#utility.yul\":1575:1580   */\n      dup2\n        /* \"#utility.yul\":1560:1581   */\n      tag_55\n      jump\t// in\n    tag_93:\n        /* \"#utility.yul\":1555:1558   */\n      dup3\n        /* \"#utility.yul\":1548:1582   */\n      mstore\n        /* \"#utility.yul\":1479:1588   */\n      pop\n      pop\n      jump\t// out\n        /* \"#utility.yul\":1594:2024   */\n    tag_12:\n        /* \"#utility.yul\":1737:1741   */\n      0x00\n        /* \"#utility.yul\":1775:1777   */\n      0x60\n        /* \"#utility.yul\":1764:1773   */\n      dup3\n        /* \"#utility.yul\":1760:1778   */\n      add\n        /* \"#utility.yul\":1752:1778   */\n      swap1\n      pop\n        /* \"#utility.yul\":1788:1859   */\n      tag_95\n        /* \"#utility.yul\":1856:1857   */\n      0x00\n        /* \"#utility.yul\":1845:1854   */\n      dup4\n        /* \"#utility.yul\":1841:1858   */\n      add\n        /* \"#utility.yul\":1832:1838   */\n      dup7\n        /* \"#utility.yul\":1788:1859   */\n      tag_54\n      jump\t// in\n    tag_95:\n        /* \"#utility.yul\":1869:1941   */\n      tag_96\n        /* \"#utility.yul\":1937:1939   */\n      0x20\n        /* \"#utility.yul\":1926:1935   */\n      dup4\n        /* \"#utility.yul\":1922:1940   */\n      add\n        /* \"#utility.yul\":1913:1919   */\n      dup6\n        /* \"#utility.yul\":1869:1941   */\n      tag_54\n      jump\t// in\n    tag_96:\n        /* \"#utility.yul\":1951:2017   */\n      tag_97\n        /* \"#utility.yul\":2013:2015   */\n      0x40\n        /* \"#utility.yul\":2002:2011   */\n      dup4\n        /* \"#utility.yul\":1998:2016   */\n      add\n        /* \"#utility.yul\":1989:1995   */\n      dup5\n        /* \"#utility.yul\":1951:2017   */\n      tag_56\n      jump\t// in\n    tag_97:\n        /* \"#utility.yul\":1594:2024   */\n      swap5\n      swap4\n      pop\n      pop\n      pop\n      pop\n      jump\t// out\n        /* \"#utility.yul\":2030:2152   */\n    tag_57:\n        /* \"#utility.yul\":2103:2127   */\n      tag_99\n        /* \"#utility.yul\":2121:2126   */\n      dup2\n        /* \"#utility.yul\":2103:2127   */\n      tag_53\n      jump\t// in\n    tag_99:\n        /* \"#utility.yul\":2096:2101   */\n      dup2\n        /* \"#utility.yul\":2093:2128   */\n      eq\n        /* \"#utility.yul\":2083:2146   */\n      tag_100\n      jumpi\n        /* \"#utility.yul\":2142:2143   */\n      0x00\n        /* \"#utility.yul\":2139:2140   */\n      dup1\n        /* \"#utility.yul\":2132:2144   */\n      revert\n        /* \"#utility.yul\":2083:2146   */\n    tag_100:\n        /* \"#utility.yul\":2030:2152   */\n      pop\n      jump\t// out\n        /* \"#utility.yul\":2158:2297   */\n    tag_58:\n        /* \"#utility.yul\":2204:2209   */\n      0x00\n        /* \"#utility.yul\":2242:2248   */\n      dup2\n        /* \"#utility.yul\":2229:2249   */\n      calldataload\n        /* \"#utility.yul\":2220:2249   */\n      swap1\n      pop\n        /* \"#utility.yul\":2258:2291   */\n      tag_102\n        /* \"#utility.yul\":2285:2290   */\n      dup2\n        /* \"#utility.yul\":2258:2291   */\n      tag_57\n      jump\t// in\n    tag_102:\n        /* \"#utility.yul\":2158:2297   */\n      swap3\n      swap2\n      pop\n      pop\n      jump\t// out\n        /* \"#utility.yul\":2303:2777   */\n    tag_18:\n        /* \"#utility.yul\":2371:2377   */\n      0x00\n        /* \"#utility.yul\":2379:2385   */\n      dup1\n        /* \"#utility.yul\":2428:2430   */\n      0x40\n        /* \"#utility.yul\":2416:2425   */\n      dup4\n        /* \"#utility.yul\":2407:2414   */\n      dup6\n        /* \"#utility.yul\":2403:2426   */\n      sub\n        /* \"#utility.yul\":2399:2431   */\n      slt\n        /* \"#utility.yul\":2396:2515   */\n      iszero\n      tag_104\n      jumpi\n        /* \"#utility.yul\":2434:2513   */\n      tag_105\n      tag_47\n      jump\t// in\n    tag_105:\n        /* \"#utility.yul\":2396:2515   */\n    tag_104:\n        /* \"#utility.yul\":2554:2555   */\n      0x00\n        /* \"#utility.yul\":2579:2632   */\n      tag_106\n        /* \"#utility.yul\":2624:2631   */\n      dup6\n        /* \"#utility.yul\":2615:2621   */\n      dup3\n        /* \"#utility.yul\":2604:2613   */\n      dup7\n        /* \"#utility.yul\":2600:2622   */\n      add\n        /* \"#utility.yul\":2579:2632   */\n      tag_52\n      jump\t// in\n    tag_106:\n        /* \"#utility.yul\":2569:2632   */\n      swap3\n      pop\n        /* \"#utility.yul\":2525:2642   */\n      pop\n        /* \"#utility.yul\":2681:2683   */\n      0x20\n        /* \"#utility.yul\":2707:2760   */\n      tag_107\n        /* \"#utility.yul\":2752:2759   */\n      dup6\n        /* \"#utility.yul\":2743:2749   */\n      dup3\n        /* \"#utility.yul\":2732:2741   */\n      dup7\n        /* \"#utility.yul\":2728:2750   */\n      add\n        /* \"#utility.yul\":2707:2760   */\n      tag_58\n      jump\t// in\n    tag_107:\n        /* \"#utility.yul\":2697:2760   */\n      swap2\n      pop\n        /* \"#utility.yul\":2652:2770   */\n      pop\n        /* \"#utility.yul\":2303:2777   */\n      swap3\n      pop\n      swap3\n      swap1\n      pop\n      jump\t// out\n        /* \"#utility.yul\":2783:2901   */\n    tag_59:\n        /* \"#utility.yul\":2870:2894   */\n      tag_109\n        /* \"#utility.yul\":2888:2893   */\n      dup2\n        /* \"#utility.yul\":2870:2894   */\n      tag_50\n      jump\t// in\n    tag_109:\n        /* \"#utility.yul\":2865:2868   */\n      dup3\n        /* \"#utility.yul\":2858:2895   */\n      mstore\n        /* \"#utility.yul\":2783:2901   */\n      pop\n      pop\n      jump\t// out\n        /* \"#utility.yul\":2907:3129   */\n    tag_24:\n        /* \"#utility.yul\":3000:3004   */\n      0x00\n        /* \"#utility.yul\":3038:3040   */\n      0x20\n        /* \"#utility.yul\":3027:3036   */\n      dup3\n        /* \"#utility.yul\":3023:3041   */\n      add\n        /* \"#utility.yul\":3015:3041   */\n      swap1\n      pop\n        /* \"#utility.yul\":3051:3122   */\n      tag_111\n        /* \"#utility.yul\":3119:3120   */\n      0x00\n        /* \"#utility.yul\":3108:3117   */\n      dup4\n        /* \"#utility.yul\":3104:3121   */\n      add\n        /* \"#utility.yul\":3095:3101   */\n      dup5\n        /* \"#utility.yul\":3051:3122   */\n      tag_59\n      jump\t// in\n    tag_111:\n        /* \"#utility.yul\":2907:3129   */\n      swap3\n      swap2\n      pop\n      pop\n      jump\t// out\n        /* \"#utility.yul\":3135:3304   */\n    tag_60:\n        /* \"#utility.yul\":3219:3230   */\n      0x00\n        /* \"#utility.yul\":3253:3259   */\n      dup3\n        /* \"#utility.yul\":3248:3251   */\n      dup3\n        /* \"#utility.yul\":3241:3260   */\n      mstore\n        /* \"#utility.yul\":3293:3297   */\n      0x20\n        /* \"#utility.yul\":3288:3291   */\n      dup3\n        /* \"#utility.yul\":3284:3298   */\n      add\n        /* \"#utility.yul\":3269:3298   */\n      swap1\n      pop\n        /* \"#utility.yul\":3135:3304   */\n      swap3\n      swap2\n      pop\n      pop\n      jump\t// out\n        /* \"#utility.yul\":3310:3469   */\n    tag_61:\n        /* \"#utility.yul\":3450:3461   */\n      0x746f6f206561726c790000000000000000000000000000000000000000000000\n        /* \"#utility.yul\":3446:3447   */\n      0x00\n        /* \"#utility.yul\":3438:3444   */\n      dup3\n        /* \"#utility.yul\":3434:3448   */\n      add\n        /* \"#utility.yul\":3427:3462   */\n      mstore\n        /* \"#utility.yul\":3310:3469   */\n      pop\n      jump\t// out\n        /* \"#utility.yul\":3475:3840   */\n    tag_62:\n        /* \"#utility.yul\":3617:3620   */\n      0x00\n        /* \"#utility.yul\":3638:3704   */\n      tag_115\n        /* \"#utility.yul\":3702:3703   */\n      0x09\n        /* \"#utility.yul\":3697:3700   */\n      dup4\n        /* \"#utility.yul\":3638:3704   */\n      tag_60\n      jump\t// in\n    tag_115:\n        /* \"#utility.yul\":3631:3704   */\n      swap2\n      pop\n        /* \"#utility.yul\":3713:3806   */\n      tag_116\n        /* \"#utility.yul\":3802:3805   */\n      dup3\n        /* \"#utility.yul\":3713:3806   */\n      tag_61\n      jump\t// in\n    tag_116:\n        /* \"#utility.yul\":3831:3833   */\n      0x20\n        /* \"#utility.yul\":3826:3829   */\n      dup3\n        /* \"#utility.yul\":3822:3834   */\n      add\n        /* \"#utility.yul\":3815:3834   */\n      swap1\n      pop\n        /* \"#utility.yul\":3475:3840   */\n      swap2\n      swap1\n      pop\n      jump\t// out\n        /* \"#utility.yul\":3846:4265   */\n    tag_28:\n        /* \"#utility.yul\":4012:4016   */\n      0x00\n        /* \"#utility.yul\":4050:4052   */\n      0x20\n        /* \"#utility.yul\":4039:4048   */\n      dup3\n        /* \"#utility.yul\":4035:4053   */\n      add\n        /* \"#utility.yul\":4027:4053   */\n      swap1\n      pop\n        /* \"#utility.yul\":4099:4108   */\n      dup2\n        /* \"#utility.yul\":4093:4097   */\n      dup2\n        /* \"#utility.yul\":4089:4109   */\n      sub\n        /* \"#utility.yul\":4085:4086   */\n      0x00\n        /* \"#utility.yul\":4074:4083   */\n      dup4\n        /* \"#utility.yul\":4070:4087   */\n      add\n        /* \"#utility.yul\":4063:4110   */\n      mstore\n        /* \"#utility.yul\":4127:4258   */\n      tag_118\n        /* \"#utility.yul\":4253:4257   */\n      dup2\n        /* \"#utility.yul\":4127:4258   */\n      tag_62\n      jump\t// in\n    tag_118:\n        /* \"#utility.yul\":4119:4258   */\n      swap1\n      pop\n        /* \"#utility.yul\":3846:4265   */\n      swap2\n      swap1\n      pop\n      jump\t// out\n        /* \"#utility.yul\":4271:4442   */\n    tag_63:\n        /* \"#utility.yul\":4411:4434   */\n      0x6f6e6c79206b69642063616e2077697468647261770000000000000000000000\n        /* \"#utility.yul\":4407:4408   */\n      0x00\n        /* \"#utility.yul\":4399:4405   */\n      dup3\n        /* \"#utility.yul\":4395:4409   */\n      add\n        /* \"#utility.yul\":4388:4435   */\n      mstore\n        /* \"#utility.yul\":4271:4442   */\n      pop\n      jump\t// out\n        /* \"#utility.yul\":4448:4814   */\n    tag_64:\n        /* \"#utility.yul\":4590:4593   */\n      0x00\n        /* \"#utility.yul\":4611:4678   */\n      tag_121\n        /* \"#utility.yul\":4675:4677   */\n      0x15\n        /* \"#utility.yul\":4670:4673   */\n      dup4\n        /* \"#utility.yul\":4611:4678   */\n      tag_60\n      jump\t// in\n    tag_121:\n        /* \"#utility.yul\":4604:4678   */\n      swap2\n      pop\n        /* \"#utility.yul\":4687:4780   */\n      tag_122\n        /* \"#utility.yul\":4776:4779   */\n      dup3\n        /* \"#utility.yul\":4687:4780   */\n      tag_63\n      jump\t// in\n    tag_122:\n        /* \"#utility.yul\":4805:4807   */\n      0x20\n        /* \"#utility.yul\":4800:4803   */\n      dup3\n        /* \"#utility.yul\":4796:4808   */\n      add\n        /* \"#utility.yul\":4789:4808   */\n      swap1\n      pop\n        /* \"#utility.yul\":4448:4814   */\n      swap2\n      swap1\n      pop\n      jump\t// out\n        /* \"#utility.yul\":4820:5239   */\n    tag_31:\n        /* \"#utility.yul\":4986:4990   */\n      0x00\n        /* \"#utility.yul\":5024:5026   */\n      0x20\n        /* \"#utility.yul\":5013:5022   */\n      dup3\n        /* \"#utility.yul\":5009:5027   */\n      add\n        /* \"#utility.yul\":5001:5027   */\n      swap1\n      pop\n        /* \"#utility.yul\":5073:5082   */\n      dup2\n        /* \"#utility.yul\":5067:5071   */\n      dup2\n        /* \"#utility.yul\":5063:5083   */\n      sub\n        /* \"#utility.yul\":5059:5060   */\n      0x00\n        /* \"#utility.yul\":5048:5057   */\n      dup4\n        /* \"#utility.yul\":5044:5061   */\n      add\n        /* \"#utility.yul\":5037:5084   */\n      mstore\n        /* \"#utility.yul\":5101:5232   */\n      tag_124\n        /* \"#utility.yul\":5227:5231   */\n      dup2\n        /* \"#utility.yul\":5101:5232   */\n      tag_64\n      jump\t// in\n    tag_124:\n        /* \"#utility.yul\":5093:5232   */\n      swap1\n      pop\n        /* \"#utility.yul\":4820:5239   */\n      swap2\n      swap1\n      pop\n      jump\t// out\n        /* \"#utility.yul\":5245:5407   */\n    tag_65:\n        /* \"#utility.yul\":5385:5399   */\n      0x7061696420616c72656164790000000000000000000000000000000000000000\n        /* \"#utility.yul\":5381:5382   */\n      0x00\n        /* \"#utility.yul\":5373:5379   */\n      dup3\n        /* \"#utility.yul\":5369:5383   */\n      add\n        /* \"#utility.yul\":5362:5400   */\n      mstore\n        /* \"#utility.yul\":5245:5407   */\n      pop\n      jump\t// out\n        /* \"#utility.yul\":5413:5779   */\n    tag_66:\n        /* \"#utility.yul\":5555:5558   */\n      0x00\n        /* \"#utility.yul\":5576:5643   */\n      tag_127\n        /* \"#utility.yul\":5640:5642   */\n      0x0c\n        /* \"#utility.yul\":5635:5638   */\n      dup4\n        /* \"#utility.yul\":5576:5643   */\n      tag_60\n      jump\t// in\n    tag_127:\n        /* \"#utility.yul\":5569:5643   */\n      swap2\n      pop\n        /* \"#utility.yul\":5652:5745   */\n      tag_128\n        /* \"#utility.yul\":5741:5744   */\n      dup3\n        /* \"#utility.yul\":5652:5745   */\n      tag_65\n      jump\t// in\n    tag_128:\n        /* \"#utility.yul\":5770:5772   */\n      0x20\n        /* \"#utility.yul\":5765:5768   */\n      dup3\n        /* \"#utility.yul\":5761:5773   */\n      add\n        /* \"#utility.yul\":5754:5773   */\n      swap1\n      pop\n        /* \"#utility.yul\":5413:5779   */\n      swap2\n      swap1\n      pop\n      jump\t// out\n        /* \"#utility.yul\":5785:6204   */\n    tag_34:\n        /* \"#utility.yul\":5951:5955   */\n      0x00\n        /* \"#utility.yul\":5989:5991   */\n      0x20\n        /* \"#utility.yul\":5978:5987   */\n      dup3\n        /* \"#utility.yul\":5974:5992   */\n      add\n        /* \"#utility.yul\":5966:5992   */\n      swap1\n      pop\n        /* \"#utility.yul\":6038:6047   */\n      dup2\n        /* \"#utility.yul\":6032:6036   */\n      dup2\n        /* \"#utility.yul\":6028:6048   */\n      sub\n        /* \"#utility.yul\":6024:6025   */\n      0x00\n        /* \"#utility.yul\":6013:6022   */\n      dup4\n        /* \"#utility.yul\":6009:6026   */\n      add\n        /* \"#utility.yul\":6002:6049   */\n      mstore\n        /* \"#utility.yul\":6066:6197   */\n      tag_130\n        /* \"#utility.yul\":6192:6196   */\n      dup2\n        /* \"#utility.yul\":6066:6197   */\n      tag_66\n      jump\t// in\n    tag_130:\n        /* \"#utility.yul\":6058:6197   */\n      swap1\n      pop\n        /* \"#utility.yul\":5785:6204   */\n      swap2\n      swap1\n      pop\n      jump\t// out\n        /* \"#utility.yul\":6210:6370   */\n    tag_67:\n        /* \"#utility.yul\":6350:6362   */\n      0x6f6e6c792061646d696e00000000000000000000000000000000000000000000\n        /* \"#utility.yul\":6346:6347   */\n      0x00\n        /* \"#utility.yul\":6338:6344   */\n      dup3\n        /* \"#utility.yul\":6334:6348   */\n      add\n        /* \"#utility.yul\":6327:6363   */\n      mstore\n        /* \"#utility.yul\":6210:6370   */\n      pop\n      jump\t// out\n        /* \"#utility.yul\":6376:6742   */\n    tag_68:\n        /* \"#utility.yul\":6518:6521   */\n      0x00\n        /* \"#utility.yul\":6539:6606   */\n      tag_133\n        /* \"#utility.yul\":6603:6605   */\n      0x0a\n        /* \"#utility.yul\":6598:6601   */\n      dup4\n        /* \"#utility.yul\":6539:6606   */\n      tag_60\n      jump\t// in\n    tag_133:\n        /* \"#utility.yul\":6532:6606   */\n      swap2\n      pop\n        /* \"#utility.yul\":6615:6708   */\n      tag_134\n        /* \"#utility.yul\":6704:6707   */\n      dup3\n        /* \"#utility.yul\":6615:6708   */\n      tag_67\n      jump\t// in\n    tag_134:\n        /* \"#utility.yul\":6733:6735   */\n      0x20\n        /* \"#utility.yul\":6728:6731   */\n      dup3\n        /* \"#utility.yul\":6724:6736   */\n      add\n        /* \"#utility.yul\":6717:6736   */\n      swap1\n      pop\n        /* \"#utility.yul\":6376:6742   */\n      swap2\n      swap1\n      pop\n      jump\t// out\n        /* \"#utility.yul\":6748:7167   */\n    tag_40:\n        /* \"#utility.yul\":6914:6918   */\n      0x00\n        /* \"#utility.yul\":6952:6954   */\n      0x20\n        /* \"#utility.yul\":6941:6950   */\n      dup3\n        /* \"#utility.yul\":6937:6955   */\n      add\n        /* \"#utility.yul\":6929:6955   */\n      swap1\n      pop\n        /* \"#utility.yul\":7001:7010   */\n      dup2\n        /* \"#utility.yul\":6995:6999   */\n      dup2\n        /* \"#utility.yul\":6991:7011   */\n      sub\n        /* \"#utility.yul\":6987:6988   */\n      0x00\n        /* \"#utility.yul\":6976:6985   */\n      dup4\n        /* \"#utility.yul\":6972:6989   */\n      add\n        /* \"#utility.yul\":6965:7012   */\n      mstore\n        /* \"#utility.yul\":7029:7160   */\n      tag_136\n        /* \"#utility.yul\":7155:7159   */\n      dup2\n        /* \"#utility.yul\":7029:7160   */\n      tag_68\n      jump\t// in\n    tag_136:\n        /* \"#utility.yul\":7021:7160   */\n      swap1\n      pop\n        /* \"#utility.yul\":6748:7167   */\n      swap2\n      swap1\n      pop\n      jump\t// out\n        /* \"#utility.yul\":7173:7340   */\n    tag_69:\n        /* \"#utility.yul\":7313:7332   */\n      0x6b696420616c7265616479206578697374000000000000000000000000000000\n        /* \"#utility.yul\":7309:7310   */\n      0x00\n        /* \"#utility.yul\":7301:7307   */\n      dup3\n        /* \"#utility.yul\":7297:7311   */\n      add\n        /* \"#utility.yul\":7290:7333   */\n      mstore\n        /* \"#utility.yul\":7173:7340   */\n      pop\n      jump\t// out\n        /* \"#utility.yul\":7346:7712   */\n    tag_70:\n        /* \"#utility.yul\":7488:7491   */\n      0x00\n        /* \"#utility.yul\":7509:7576   */\n      tag_139\n        /* \"#utility.yul\":7573:7575   */\n      0x11\n        /* \"#utility.yul\":7568:7571   */\n      dup4\n        /* \"#utility.yul\":7509:7576   */\n      tag_60\n      jump\t// in\n    tag_139:\n        /* \"#utility.yul\":7502:7576   */\n      swap2\n      pop\n        /* \"#utility.yul\":7585:7678   */\n      tag_140\n        /* \"#utility.yul\":7674:7677   */\n      dup3\n        /* \"#utility.yul\":7585:7678   */\n      tag_69\n      jump\t// in\n    tag_140:\n        /* \"#utility.yul\":7703:7705   */\n      0x20\n        /* \"#utility.yul\":7698:7701   */\n      dup3\n        /* \"#utility.yul\":7694:7706   */\n      add\n        /* \"#utility.yul\":7687:7706   */\n      swap1\n      pop\n        /* \"#utility.yul\":7346:7712   */\n      swap2\n      swap1\n      pop\n      jump\t// out\n        /* \"#utility.yul\":7718:8137   */\n    tag_43:\n        /* \"#utility.yul\":7884:7888   */\n      0x00\n        /* \"#utility.yul\":7922:7924   */\n      0x20\n        /* \"#utility.yul\":7911:7920   */\n      dup3\n        /* \"#utility.yul\":7907:7925   */\n      add\n        /* \"#utility.yul\":7899:7925   */\n      swap1\n      pop\n        /* \"#utility.yul\":7971:7980   */\n      dup2\n        /* \"#utility.yul\":7965:7969   */\n      dup2\n        /* \"#utility.yul\":7961:7981   */\n      sub\n        /* \"#utility.yul\":7957:7958   */\n      0x00\n        /* \"#utility.yul\":7946:7955   */\n      dup4\n        /* \"#utility.yul\":7942:7959   */\n      add\n        /* \"#utility.yul\":7935:7982   */\n      mstore\n        /* \"#utility.yul\":7999:8130   */\n      tag_142\n        /* \"#utility.yul\":8125:8129   */\n      dup2\n        /* \"#utility.yul\":7999:8130   */\n      tag_70\n      jump\t// in\n    tag_142:\n        /* \"#utility.yul\":7991:8130   */\n      swap1\n      pop\n        /* \"#utility.yul\":7718:8137   */\n      swap2\n      swap1\n      pop\n      jump\t// out\n        /* \"#utility.yul\":8143:8323   */\n    tag_71:\n        /* \"#utility.yul\":8191:8268   */\n      0x4e487b7100000000000000000000000000000000000000000000000000000000\n        /* \"#utility.yul\":8188:8189   */\n      0x00\n        /* \"#utility.yul\":8181:8269   */\n      mstore\n        /* \"#utility.yul\":8288:8292   */\n      0x11\n        /* \"#utility.yul\":8285:8286   */\n      0x04\n        /* \"#utility.yul\":8278:8293   */\n      mstore\n        /* \"#utility.yul\":8312:8316   */\n      0x24\n        /* \"#utility.yul\":8309:8310   */\n      0x00\n        /* \"#utility.yul\":8302:8317   */\n      revert\n        /* \"#utility.yul\":8329:8520   */\n    tag_45:\n        /* \"#utility.yul\":8369:8372   */\n      0x00\n        /* \"#utility.yul\":8388:8408   */\n      tag_145\n        /* \"#utility.yul\":8406:8407   */\n      dup3\n        /* \"#utility.yul\":8388:8408   */\n      tag_53\n      jump\t// in\n    tag_145:\n        /* \"#utility.yul\":8383:8408   */\n      swap2\n      pop\n        /* \"#utility.yul\":8422:8442   */\n      tag_146\n        /* \"#utility.yul\":8440:8441   */\n      dup4\n        /* \"#utility.yul\":8422:8442   */\n      tag_53\n      jump\t// in\n    tag_146:\n        /* \"#utility.yul\":8417:8442   */\n      swap3\n      pop\n        /* \"#utility.yul\":8465:8466   */\n      dup3\n        /* \"#utility.yul\":8462:8463   */\n      dup3\n        /* \"#utility.yul\":8458:8467   */\n      add\n        /* \"#utility.yul\":8451:8467   */\n      swap1\n      pop\n        /* \"#utility.yul\":8486:8489   */\n      dup1\n        /* \"#utility.yul\":8483:8484   */\n      dup3\n        /* \"#utility.yul\":8480:8490   */\n      gt\n        /* \"#utility.yul\":8477:8513   */\n      iszero\n      tag_147\n      jumpi\n        /* \"#utility.yul\":8493:8511   */\n      tag_148\n      tag_71\n      jump\t// in\n    tag_148:\n        /* \"#utility.yul\":8477:8513   */\n    tag_147:\n        /* \"#utility.yul\":8329:8520   */\n      swap3\n      swap2\n      pop\n      pop\n      jump\t// out\n\n    auxdata: 0xa2646970667358221220675cc954dbb0a211915ecc156c3ecb7dd0fcd60c5992c584848f16c5fe78387164736f6c634300081a0033\n}\n",
				"bytecode": {
					"linkReferences": {},
					"object": "6080604052348015600e575f80fd5b503360015f6101000a81548173ffffffffffffffffffffffffffffffffffffffff021916908373ffffffffffffffffffffffffffffffffffffffff1602179055506108928061005c5f395ff3fe60806040526004361061003e575f3560e01c80632438628c146100425780633ccfd60b1461008057806340990e3014610096578063f851a440146100b2575b5f80fd5b34801561004d575f80fd5b50610068600480360381019061006391906104c2565b6100dc565b6040516100779392919061051f565b60405180910390f35b34801561008b575f80fd5b5061009461010d565b005b6100b060048036038101906100ab919061057e565b610294565b005b3480156100bd575f80fd5b506100c661043f565b6040516100d391906105cb565b60405180910390f35b5f602052805f5260405f205f91509050805f015490806001015490806002015f9054906101000a900460ff16905083565b5f805f3373ffffffffffffffffffffffffffffffffffffffff1673ffffffffffffffffffffffffffffffffffffffff1681526020019081526020015f2090504281600101541115610193576040517f08c379a000000000000000000000000000000000000000000000000000000000815260040161018a9061063e565b60405180910390fd5b5f815f0154116101d8576040517f08c379a00000000000000000000000000000000000000000000000000000000081526004016101cf906106a6565b60405180910390fd5b5f1515816002015f9054906101000a900460ff1615151461022e576040517f08c379a00000000000000000000000000000000000000000000000000000000081526004016102259061070e565b60405180910390fd5b6001816002015f6101000a81548160ff0219169083151502179055503373ffffffffffffffffffffffffffffffffffffffff166108fc825f015490811502906040515f60405180830381858888f19350505050158015610290573d5f803e3d5ffd5b5050565b60015f9054906101000a900473ffffffffffffffffffffffffffffffffffffffff1673ffffffffffffffffffffffffffffffffffffffff163373ffffffffffffffffffffffffffffffffffffffff1614610323576040517f08c379a000000000000000000000000000000000000000000000000000000000815260040161031a90610776565b60405180910390fd5b5f805f3373ffffffffffffffffffffffffffffffffffffffff1673ffffffffffffffffffffffffffffffffffffffff1681526020019081526020015f205f0154146103a3576040517f08c379a000000000000000000000000000000000000000000000000000000000815260040161039a906107de565b60405180910390fd5b604051806060016040528034815260200182426103c09190610829565b81526020015f15158152505f808473ffffffffffffffffffffffffffffffffffffffff1673ffffffffffffffffffffffffffffffffffffffff1681526020019081526020015f205f820151815f0155602082015181600101556040820151816002015f6101000a81548160ff0219169083151502179055509050505050565b60015f9054906101000a900473ffffffffffffffffffffffffffffffffffffffff1681565b5f80fd5b5f73ffffffffffffffffffffffffffffffffffffffff82169050919050565b5f61049182610468565b9050919050565b6104a181610487565b81146104ab575f80fd5b50565b5f813590506104bc81610498565b92915050565b5f602082840312156104d7576104d6610464565b5b5f6104e4848285016104ae565b91505092915050565b5f819050919050565b6104ff816104ed565b82525050565b5f8115159050919050565b61051981610505565b82525050565b5f6060820190506105325f8301866104f6565b61053f60208301856104f6565b61054c6040830184610510565b949350505050565b61055d816104ed565b8114610567575f80fd5b50565b5f8135905061057881610554565b92915050565b5f806040838503121561059457610593610464565b5b5f6105a1858286016104ae565b92505060206105b28582860161056a565b9150509250929050565b6105c581610487565b82525050565b5f6020820190506105de5f8301846105bc565b92915050565b5f82825260208201905092915050565b7f746f6f206561726c7900000000000000000000000000000000000000000000005f82015250565b5f6106286009836105e4565b9150610633826105f4565b602082019050919050565b5f6020820190508181035f8301526106558161061c565b9050919050565b7f6f6e6c79206b69642063616e20776974686472617700000000000000000000005f82015250565b5f6106906015836105e4565b915061069b8261065c565b602082019050919050565b5f6020820190508181035f8301526106bd81610684565b9050919050565b7f7061696420616c726561647900000000000000000000000000000000000000005f82015250565b5f6106f8600c836105e4565b9150610703826106c4565b602082019050919050565b5f6020820190508181035f830152610725816106ec565b9050919050565b7f6f6e6c792061646d696e000000000000000000000000000000000000000000005f82015250565b5f610760600a836105e4565b915061076b8261072c565b602082019050919050565b5f6020820190508181035f83015261078d81610754565b9050919050565b7f6b696420616c72656164792065786973740000000000000000000000000000005f82015250565b5f6107c86011836105e4565b91506107d382610794565b602082019050919050565b5f6020820190508181035f8301526107f5816107bc565b9050919050565b7f4e487b71000000000000000000000000000000000000000000000000000000005f52601160045260245ffd5b5f610833826104ed565b915061083e836104ed565b9250828201905080821115610856576108556107fc565b5b9291505056fea2646970667358221220675cc954dbb0a211915ecc156c3ecb7dd0fcd60c5992c584848f16c5fe78387164736f6c634300081a0033",
					"opcodes": "PUSH1 0x80 PUSH1 0x40 MSTORE CALLVALUE DUP1 ISZERO PUSH1 0xE JUMPI PUSH0 DUP1 REVERT JUMPDEST POP CALLER PUSH1 0x1 PUSH0 PUSH2 0x100 EXP DUP2 SLOAD DUP2 PUSH20 0xFFFFFFFFFFFFFFFFFFFFFFFFFFFFFFFFFFFFFFFF MUL NOT AND SWAP1 DUP4 PUSH20 0xFFFFFFFFFFFFFFFFFFFFFFFFFFFFFFFFFFFFFFFF AND MUL OR SWAP1 SSTORE POP PUSH2 0x892 DUP1 PUSH2 0x5C PUSH0 CODECOPY PUSH0 RETURN INVALID PUSH1 0x80 PUSH1 0x40 MSTORE PUSH1 0x4 CALLDATASIZE LT PUSH2 0x3E JUMPI PUSH0 CALLDATALOAD PUSH1 0xE0 SHR DUP1 PUSH4 0x2438628C EQ PUSH2 0x42 JUMPI DUP1 PUSH4 0x3CCFD60B EQ PUSH2 0x80 JUMPI DUP1 PUSH4 0x40990E30 EQ PUSH2 0x96 JUMPI DUP1 PUSH4 0xF851A440 EQ PUSH2 0xB2 JUMPI JUMPDEST PUSH0 DUP1 REVERT JUMPDEST CALLVALUE DUP1 ISZERO PUSH2 0x4D JUMPI PUSH0 DUP1 REVERT JUMPDEST POP PUSH2 0x68 PUSH1 0x4 DUP1 CALLDATASIZE SUB DUP2 ADD SWAP1 PUSH2 0x63 SWAP2 SWAP1 PUSH2 0x4C2 JUMP JUMPDEST PUSH2 0xDC JUMP JUMPDEST PUSH1 0x40 MLOAD PUSH2 0x77 SWAP4 SWAP3 SWAP2 SWAP1 PUSH2 0x51F JUMP JUMPDEST PUSH1 0x40 MLOAD DUP1 SWAP2 SUB SWAP1 RETURN JUMPDEST CALLVALUE DUP1 ISZERO PUSH2 0x8B JUMPI PUSH0 DUP1 REVERT JUMPDEST POP PUSH2 0x94 PUSH2 0x10D JUMP JUMPDEST STOP JUMPDEST PUSH2 0xB0 PUSH1 0x4 DUP1 CALLDATASIZE SUB DUP2 ADD SWAP1 PUSH2 0xAB SWAP2 SWAP1 PUSH2 0x57E JUMP JUMPDEST PUSH2 0x294 JUMP JUMPDEST STOP JUMPDEST CALLVALUE DUP1 ISZERO PUSH2 0xBD JUMPI PUSH0 DUP1 REVERT JUMPDEST POP PUSH2 0xC6 PUSH2 0x43F JUMP JUMPDEST PUSH1 0x40 MLOAD PUSH2 0xD3 SWAP2 SWAP1 PUSH2 0x5CB JUMP JUMPDEST PUSH1 0x40 MLOAD DUP1 SWAP2 SUB SWAP1 RETURN JUMPDEST PUSH0 PUSH1 0x20 MSTORE DUP1 PUSH0 MSTORE PUSH1 0x40 PUSH0 KECCAK256 PUSH0 SWAP2 POP SWAP1 POP DUP1 PUSH0 ADD SLOAD SWAP1 DUP1 PUSH1 0x1 ADD SLOAD SWAP1 DUP1 PUSH1 0x2 ADD PUSH0 SWAP1 SLOAD SWAP1 PUSH2 0x100 EXP SWAP1 DIV PUSH1 0xFF AND SWAP1 POP DUP4 JUMP JUMPDEST PUSH0 DUP1 PUSH0 CALLER PUSH20 0xFFFFFFFFFFFFFFFFFFFFFFFFFFFFFFFFFFFFFFFF AND PUSH20 0xFFFFFFFFFFFFFFFFFFFFFFFFFFFFFFFFFFFFFFFF AND DUP2 MSTORE PUSH1 0x20 ADD SWAP1 DUP2 MSTORE PUSH1 0x20 ADD PUSH0 KECCAK256 SWAP1 POP TIMESTAMP DUP2 PUSH1 0x1 ADD SLOAD GT ISZERO PUSH2 0x193 JUMPI PUSH1 0x40 MLOAD PUSH32 0x8C379A000000000000000000000000000000000000000000000000000000000 DUP2 MSTORE PUSH1 0x4 ADD PUSH2 0x18A SWAP1 PUSH2 0x63E JUMP JUMPDEST PUSH1 0x40 MLOAD DUP1 SWAP2 SUB SWAP1 REVERT JUMPDEST PUSH0 DUP2 PUSH0 ADD SLOAD GT PUSH2 0x1D8 JUMPI PUSH1 0x40 MLOAD PUSH32 0x8C379A000000000000000000000000000000000000000000000000000000000 DUP2 MSTORE PUSH1 0x4 ADD PUSH2 0x1CF SWAP1 PUSH2 0x6A6 JUMP JUMPDEST PUSH1 0x40 MLOAD DUP1 SWAP2 SUB SWAP1 REVERT JUMPDEST PUSH0 ISZERO ISZERO DUP2 PUSH1 0x2 ADD PUSH0 SWAP1 SLOAD SWAP1 PUSH2 0x100 EXP SWAP1 DIV PUSH1 0xFF AND ISZERO ISZERO EQ PUSH2 0x22E JUMPI PUSH1 0x40 MLOAD PUSH32 0x8C379A000000000000000000000000000000000000000000000000000000000 DUP2 MSTORE PUSH1 0x4 ADD PUSH2 0x225 SWAP1 PUSH2 0x70E JUMP JUMPDEST PUSH1 0x40 MLOAD DUP1 SWAP2 SUB SWAP1 REVERT JUMPDEST PUSH1 0x1 DUP2 PUSH1 0x2 ADD PUSH0 PUSH2 0x100 EXP DUP2 SLOAD DUP2 PUSH1 0xFF MUL NOT AND SWAP1 DUP4 ISZERO ISZERO MUL OR SWAP1 SSTORE POP CALLER PUSH20 0xFFFFFFFFFFFFFFFFFFFFFFFFFFFFFFFFFFFFFFFF AND PUSH2 0x8FC DUP3 PUSH0 ADD SLOAD SWAP1 DUP2 ISZERO MUL SWAP1 PUSH1 0x40 MLOAD PUSH0 PUSH1 0x40 MLOAD DUP1 DUP4 SUB DUP2 DUP6 DUP9 DUP9 CALL SWAP4 POP POP POP POP ISZERO DUP1 ISZERO PUSH2 0x290 JUMPI RETURNDATASIZE PUSH0 DUP1 RETURNDATACOPY RETURNDATASIZE PUSH0 REVERT JUMPDEST POP POP JUMP JUMPDEST PUSH1 0x1 PUSH0 SWAP1 SLOAD SWAP1 PUSH2 0x100 EXP SWAP1 DIV PUSH20 0xFFFFFFFFFFFFFFFFFFFFFFFFFFFFFFFFFFFFFFFF AND PUSH20 0xFFFFFFFFFFFFFFFFFFFFFFFFFFFFFFFFFFFFFFFF AND CALLER PUSH20 0xFFFFFFFFFFFFFFFFFFFFFFFFFFFFFFFFFFFFFFFF AND EQ PUSH2 0x323 JUMPI PUSH1 0x40 MLOAD PUSH32 0x8C379A000000000000000000000000000000000000000000000000000000000 DUP2 MSTORE PUSH1 0x4 ADD PUSH2 0x31A SWAP1 PUSH2 0x776 JUMP JUMPDEST PUSH1 0x40 MLOAD DUP1 SWAP2 SUB SWAP1 REVERT JUMPDEST PUSH0 DUP1 PUSH0 CALLER PUSH20 0xFFFFFFFFFFFFFFFFFFFFFFFFFFFFFFFFFFFFFFFF AND PUSH20 0xFFFFFFFFFFFFFFFFFFFFFFFFFFFFFFFFFFFFFFFF AND DUP2 MSTORE PUSH1 0x20 ADD SWAP1 DUP2 MSTORE PUSH1 0x20 ADD PUSH0 KECCAK256 PUSH0 ADD SLOAD EQ PUSH2 0x3A3 JUMPI PUSH1 0x40 MLOAD PUSH32 0x8C379A000000000000000000000000000000000000000000000000000000000 DUP2 MSTORE PUSH1 0x4 ADD PUSH2 0x39A SWAP1 PUSH2 0x7DE JUMP JUMPDEST PUSH1 0x40 MLOAD DUP1 SWAP2 SUB SWAP1 REVERT JUMPDEST PUSH1 0x40 MLOAD DUP1 PUSH1 0x60 ADD PUSH1 0x40 MSTORE DUP1 CALLVALUE DUP2 MSTORE PUSH1 0x20 ADD DUP3 TIMESTAMP PUSH2 0x3C0 SWAP2 SWAP1 PUSH2 0x829 JUMP JUMPDEST DUP2 MSTORE PUSH1 0x20 ADD PUSH0 ISZERO ISZERO DUP2 MSTORE POP PUSH0 DUP1 DUP5 PUSH20 0xFFFFFFFFFFFFFFFFFFFFFFFFFFFFFFFFFFFFFFFF AND PUSH20 0xFFFFFFFFFFFFFFFFFFFFFFFFFFFFFFFFFFFFFFFF AND DUP2 MSTORE PUSH1 0x20 ADD SWAP1 DUP2 MSTORE PUSH1 0x20 ADD PUSH0 KECCAK256 PUSH0 DUP3 ADD MLOAD DUP2 PUSH0 ADD SSTORE PUSH1 0x20 DUP3 ADD MLOAD DUP2 PUSH1 0x1 ADD SSTORE PUSH1 0x40 DUP3 ADD MLOAD DUP2 PUSH1 0x2 ADD PUSH0 PUSH2 0x100 EXP DUP2 SLOAD DUP2 PUSH1 0xFF MUL NOT AND SWAP1 DUP4 ISZERO ISZERO MUL OR SWAP1 SSTORE POP SWAP1 POP POP POP POP JUMP JUMPDEST PUSH1 0x1 PUSH0 SWAP1 SLOAD SWAP1 PUSH2 0x100 EXP SWAP1 DIV PUSH20 0xFFFFFFFFFFFFFFFFFFFFFFFFFFFFFFFFFFFFFFFF AND DUP2 JUMP JUMPDEST PUSH0 DUP1 REVERT JUMPDEST PUSH0 PUSH20 0xFFFFFFFFFFFFFFFFFFFFFFFFFFFFFFFFFFFFFFFF DUP3 AND SWAP1 POP SWAP2 SWAP1 POP JUMP JUMPDEST PUSH0 PUSH2 0x491 DUP3 PUSH2 0x468 JUMP JUMPDEST SWAP1 POP SWAP2 SWAP1 POP JUMP JUMPDEST PUSH2 0x4A1 DUP2 PUSH2 0x487 JUMP JUMPDEST DUP2 EQ PUSH2 0x4AB JUMPI PUSH0 DUP1 REVERT JUMPDEST POP JUMP JUMPDEST PUSH0 DUP2 CALLDATALOAD SWAP1 POP PUSH2 0x4BC DUP2 PUSH2 0x498 JUMP JUMPDEST SWAP3 SWAP2 POP POP JUMP JUMPDEST PUSH0 PUSH1 0x20 DUP3 DUP5 SUB SLT ISZERO PUSH2 0x4D7 JUMPI PUSH2 0x4D6 PUSH2 0x464 JUMP JUMPDEST JUMPDEST PUSH0 PUSH2 0x4E4 DUP5 DUP3 DUP6 ADD PUSH2 0x4AE JUMP JUMPDEST SWAP2 POP POP SWAP3 SWAP2 POP POP JUMP JUMPDEST PUSH0 DUP2 SWAP1 POP SWAP2 SWAP1 POP JUMP JUMPDEST PUSH2 0x4FF DUP2 PUSH2 0x4ED JUMP JUMPDEST DUP3 MSTORE POP POP JUMP JUMPDEST PUSH0 DUP2 ISZERO ISZERO SWAP1 POP SWAP2 SWAP1 POP JUMP JUMPDEST PUSH2 0x519 DUP2 PUSH2 0x505 JUMP JUMPDEST DUP3 MSTORE POP POP JUMP JUMPDEST PUSH0 PUSH1 0x60 DUP3 ADD SWAP1 POP PUSH2 0x532 PUSH0 DUP4 ADD DUP7 PUSH2 0x4F6 JUMP JUMPDEST PUSH2 0x53F PUSH1 0x20 DUP4 ADD DUP6 PUSH2 0x4F6 JUMP JUMPDEST PUSH2 0x54C PUSH1 0x40 DUP4 ADD DUP5 PUSH2 0x510 JUMP JUMPDEST SWAP5 SWAP4 POP POP POP POP JUMP JUMPDEST PUSH2 0x55D DUP2 PUSH2 0x4ED JUMP JUMPDEST DUP2 EQ PUSH2 0x567 JUMPI PUSH0 DUP1 REVERT JUMPDEST POP JUMP JUMPDEST PUSH0 DUP2 CALLDATALOAD SWAP1 POP PUSH2 0x578 DUP2 PUSH2 0x554 JUMP JUMPDEST SWAP3 SWAP2 POP POP JUMP JUMPDEST PUSH0 DUP1 PUSH1 0x40 DUP4 DUP6 SUB SLT ISZERO PUSH2 0x594 JUMPI PUSH2 0x593 PUSH2 0x464 JUMP JUMPDEST JUMPDEST PUSH0 PUSH2 0x5A1 DUP6 DUP3 DUP7 ADD PUSH2 0x4AE JUMP JUMPDEST SWAP3 POP POP PUSH1 0x20 PUSH2 0x5B2 DUP6 DUP3 DUP7 ADD PUSH2 0x56A JUMP JUMPDEST SWAP2 POP POP SWAP3 POP SWAP3 SWAP1 POP JUMP JUMPDEST PUSH2 0x5C5 DUP2 PUSH2 0x487 JUMP JUMPDEST DUP3 MSTORE POP POP JUMP JUMPDEST PUSH0 PUSH1 0x20 DUP3 ADD SWAP1 POP PUSH2 0x5DE PUSH0 DUP4 ADD DUP5 PUSH2 0x5BC JUMP JUMPDEST SWAP3 SWAP2 POP POP JUMP JUMPDEST PUSH0 DUP3 DUP3 MSTORE PUSH1 0x20 DUP3 ADD SWAP1 POP SWAP3 SWAP2 POP POP JUMP JUMPDEST PUSH32 0x746F6F206561726C790000000000000000000000000000000000000000000000 PUSH0 DUP3 ADD MSTORE POP JUMP JUMPDEST PUSH0 PUSH2 0x628 PUSH1 0x9 DUP4 PUSH2 0x5E4 JUMP JUMPDEST SWAP2 POP PUSH2 0x633 DUP3 PUSH2 0x5F4 JUMP JUMPDEST PUSH1 0x20 DUP3 ADD SWAP1 POP SWAP2 SWAP1 POP JUMP JUMPDEST PUSH0 PUSH1 0x20 DUP3 ADD SWAP1 POP DUP2 DUP2 SUB PUSH0 DUP4 ADD MSTORE PUSH2 0x655 DUP2 PUSH2 0x61C JUMP JUMPDEST SWAP1 POP SWAP2 SWAP1 POP JUMP JUMPDEST PUSH32 0x6F6E6C79206B69642063616E2077697468647261770000000000000000000000 PUSH0 DUP3 ADD MSTORE POP JUMP JUMPDEST PUSH0 PUSH2 0x690 PUSH1 0x15 DUP4 PUSH2 0x5E4 JUMP JUMPDEST SWAP2 POP PUSH2 0x69B DUP3 PUSH2 0x65C JUMP JUMPDEST PUSH1 0x20 DUP3 ADD SWAP1 POP SWAP2 SWAP1 POP JUMP JUMPDEST PUSH0 PUSH1 0x20 DUP3 ADD SWAP1 POP DUP2 DUP2 SUB PUSH0 DUP4 ADD MSTORE PUSH2 0x6BD DUP2 PUSH2 0x684 JUMP JUMPDEST SWAP1 POP SWAP2 SWAP1 POP JUMP JUMPDEST PUSH32 0x7061696420616C72656164790000000000000000000000000000000000000000 PUSH0 DUP3 ADD MSTORE POP JUMP JUMPDEST PUSH0 PUSH2 0x6F8 PUSH1 0xC DUP4 PUSH2 0x5E4 JUMP JUMPDEST SWAP2 POP PUSH2 0x703 DUP3 PUSH2 0x6C4 JUMP JUMPDEST PUSH1 0x20 DUP3 ADD SWAP1 POP SWAP2 SWAP1 POP JUMP JUMPDEST PUSH0 PUSH1 0x20 DUP3 ADD SWAP1 POP DUP2 DUP2 SUB PUSH0 DUP4 ADD MSTORE PUSH2 0x725 DUP2 PUSH2 0x6EC JUMP JUMPDEST SWAP1 POP SWAP2 SWAP1 POP JUMP JUMPDEST PUSH32 0x6F6E6C792061646D696E00000000000000000000000000000000000000000000 PUSH0 DUP3 ADD MSTORE POP JUMP JUMPDEST PUSH0 PUSH2 0x760 PUSH1 0xA DUP4 PUSH2 0x5E4 JUMP JUMPDEST SWAP2 POP PUSH2 0x76B DUP3 PUSH2 0x72C JUMP JUMPDEST PUSH1 0x20 DUP3 ADD SWAP1 POP SWAP2 SWAP1 POP JUMP JUMPDEST PUSH0 PUSH1 0x20 DUP3 ADD SWAP1 POP DUP2 DUP2 SUB PUSH0 DUP4 ADD MSTORE PUSH2 0x78D DUP2 PUSH2 0x754 JUMP JUMPDEST SWAP1 POP SWAP2 SWAP1 POP JUMP JUMPDEST PUSH32 0x6B696420616C7265616479206578697374000000000000000000000000000000 PUSH0 DUP3 ADD MSTORE POP JUMP JUMPDEST PUSH0 PUSH2 0x7C8 PUSH1 0x11 DUP4 PUSH2 0x5E4 JUMP JUMPDEST SWAP2 POP PUSH2 0x7D3 DUP3 PUSH2 0x794 JUMP JUMPDEST PUSH1 0x20 DUP3 ADD SWAP1 POP SWAP2 SWAP1 POP JUMP JUMPDEST PUSH0 PUSH1 0x20 DUP3 ADD SWAP1 POP DUP2 DUP2 SUB PUSH0 DUP4 ADD MSTORE PUSH2 0x7F5 DUP2 PUSH2 0x7BC JUMP JUMPDEST SWAP1 POP SWAP2 SWAP1 POP JUMP JUMPDEST PUSH32 0x4E487B7100000000000000000000000000000000000000000000000000000000 PUSH0 MSTORE PUSH1 0x11 PUSH1 0x4 MSTORE PUSH1 0x24 PUSH0 REVERT JUMPDEST PUSH0 PUSH2 0x833 DUP3 PUSH2 0x4ED JUMP JUMPDEST SWAP2 POP PUSH2 0x83E DUP4 PUSH2 0x4ED JUMP JUMPDEST SWAP3 POP DUP3 DUP3 ADD SWAP1 POP DUP1 DUP3 GT ISZERO PUSH2 0x856 JUMPI PUSH2 0x855 PUSH2 0x7FC JUMP JUMPDEST JUMPDEST SWAP3 SWAP2 POP POP JUMP INVALID LOG2 PUSH5 0x6970667358 0x22 SLT KECCAK256 PUSH8 0x5CC954DBB0A21191 MCOPY 0xCC ISZERO PUSH13 0x3ECB7DD0FCD60C5992C584848F AND 0xC5 INVALID PUSH25 0x387164736F6C634300081A0033000000000000000000000000 "
				},
				"gasEstimates": {
					"creation": {
						"codeDepositCost": "438800",
						"executionCost": "24737",
						"totalCost": "463537"
					},
					"external": {
						"addKid(address,uint256)": "infinite",
						"admin()": "2552",
						"kids(address)": "infinite",
						"withdraw()": "infinite"
					}
				},
				"methodIdentifiers": {
					"addKid(address,uint256)": "40990e30",
					"admin()": "f851a440",
					"kids(address)": "2438628c",
					"withdraw()": "3ccfd60b"
				}
			},
			"storageLayout": {
				"storage": [
					{
						"astId": 13,
						"contract": "Trust.sol:Trust",
						"label": "kids",
						"offset": 0,
						"slot": "0",
						"type": "t_mapping(t_address,t_struct(Kid)8_storage)"
					},
					{
						"astId": 15,
						"contract": "Trust.sol:Trust",
						"label": "admin",
						"offset": 0,
						"slot": "1",
						"type": "t_address"
					}
				],
				"types": {
					"t_address": {
						"encoding": "inplace",
						"label": "address",
						"numberOfBytes": "20"
					},
					"t_bool": {
						"encoding": "inplace",
						"label": "bool",
						"numberOfBytes": "1"
					},
					"t_mapping(t_address,t_struct(Kid)8_storage)": {
						"encoding": "mapping",
						"key": "t_address",
						"label": "mapping(address => struct Trust.Kid)",
						"numberOfBytes": "32",
						"value": "t_struct(Kid)8_storage"
					},
					"t_struct(Kid)8_storage": {
						"encoding": "inplace",
						"label": "struct Trust.Kid",
						"members": [
							{
								"astId": 3,
								"contract": "Trust.sol:Trust",
								"label": "amount",
								"offset": 0,
								"slot": "0",
								"type": "t_uint256"
							},
							{
								"astId": 5,
								"contract": "Trust.sol:Trust",
								"label": "maturity",
								"offset": 0,
								"slot": "1",
								"type": "t_uint256"
							},
							{
								"astId": 7,
								"contract": "Trust.sol:Trust",
								"label": "paid",
								"offset": 0,
								"slot": "2",
								"type": "t_bool"
							}
						],
						"numberOfBytes": "96"
					},
					"t_uint256": {
						"encoding": "inplace",
						"label": "uint256",
						"numberOfBytes": "32"
					}
				}
			},
			"userdoc": {
				"kind": "user",
				"methods": {},
				"version": 1
			}
		}
	}
}